{"abi":[{"type":"constructor","inputs":[{"name":"_admin","type":"address","internalType":"address"}],"stateMutability":"nonpayable"},{"type":"function","name":"ADMIN_ROLE","inputs":[],"outputs":[{"name":"","type":"bytes32","internalType":"bytes32"}],"stateMutability":"view"},{"type":"function","name":"DEFAULT_ADMIN_ROLE","inputs":[],"outputs":[{"name":"","type":"bytes32","internalType":"bytes32"}],"stateMutability":"view"},{"type":"function","name":"MONTHLY_LEADERBOARD","inputs":[],"outputs":[{"name":"","type":"bytes32","internalType":"bytes32"}],"stateMutability":"view"},{"type":"function","name":"STATS_UPDATER_ROLE","inputs":[],"outputs":[{"name":"","type":"bytes32","internalType":"bytes32"}],"stateMutability":"view"},{"type":"function","name":"STREAK_LEADERBOARD","inputs":[],"outputs":[{"name":"","type":"bytes32","internalType":"bytes32"}],"stateMutability":"view"},{"type":"function","name":"WEEKLY_LEADERBOARD","inputs":[],"outputs":[{"name":"","type":"bytes32","internalType":"bytes32"}],"stateMutability":"view"},{"type":"function","name":"WINS_LEADERBOARD","inputs":[],"outputs":[{"name":"","type":"bytes32","internalType":"bytes32"}],"stateMutability":"view"},{"type":"function","name":"WIN_RATE_LEADERBOARD","inputs":[],"outputs":[{"name":"","type":"bytes32","internalType":"bytes32"}],"stateMutability":"view"},{"type":"function","name":"checkResetNeeded","inputs":[],"outputs":[{"name":"needsWeeklyReset","type":"bool","internalType":"bool"},{"name":"needsMonthlyReset","type":"bool","internalType":"bool"}],"stateMutability":"view"},{"type":"function","name":"getGlobalStats","inputs":[],"outputs":[{"name":"totalGames","type":"uint256","internalType":"uint256"},{"name":"totalPlayers","type":"uint256","internalType":"uint256"},{"name":"averageGameDuration","type":"uint256","internalType":"uint256"},{"name":"totalPlayTime","type":"uint256","internalType":"uint256"},{"name":"longestGame","type":"uint256","internalType":"uint256"},{"name":"shortestGame","type":"uint256","internalType":"uint256"},{"name":"totalRewardsDistributed","type":"uint256","internalType":"uint256"}],"stateMutability":"view"},{"type":"function","name":"getLeaderboard","inputs":[{"name":"leaderboardType","type":"bytes32","internalType":"bytes32"},{"name":"limit","type":"uint256","internalType":"uint256"}],"outputs":[{"name":"entries","type":"tuple[]","internalType":"struct BattleshipStatistics.LeaderboardEntry[]","components":[{"name":"player","type":"address","internalType":"address"},{"name":"score","type":"uint256","internalType":"uint256"},{"name":"rank","type":"uint256","internalType":"uint256"}]}],"stateMutability":"view"},{"type":"function","name":"getPlayerRank","inputs":[{"name":"player","type":"address","internalType":"address"},{"name":"leaderboardType","type":"bytes32","internalType":"bytes32"}],"outputs":[{"name":"rank","type":"uint256","internalType":"uint256"}],"stateMutability":"view"},{"type":"function","name":"getPlayerStats","inputs":[{"name":"player","type":"address","internalType":"address"}],"outputs":[{"name":"totalGames","type":"uint256","internalType":"uint256"},{"name":"wins","type":"uint256","internalType":"uint256"},{"name":"losses","type":"uint256","internalType":"uint256"},{"name":"draws","type":"uint256","internalType":"uint256"},{"name":"winRate","type":"uint256","internalType":"uint256"},{"name":"currentWinStreak","type":"uint256","internalType":"uint256"},{"name":"bestWinStreak","type":"uint256","internalType":"uint256"},{"name":"averageGameDuration","type":"uint256","internalType":"uint256"},{"name":"totalRewardsEarned","type":"uint256","internalType":"uint256"},{"name":"gamesThisWeek","type":"uint256","internalType":"uint256"},{"name":"weeklyWinRate","type":"uint256","internalType":"uint256"}],"stateMutability":"view"},{"type":"function","name":"getRoleAdmin","inputs":[{"name":"role","type":"bytes32","internalType":"bytes32"}],"outputs":[{"name":"","type":"bytes32","internalType":"bytes32"}],"stateMutability":"view"},{"type":"function","name":"grantRole","inputs":[{"name":"role","type":"bytes32","internalType":"bytes32"},{"name":"account","type":"address","internalType":"address"}],"outputs":[],"stateMutability":"nonpayable"},{"type":"function","name":"hasRole","inputs":[{"name":"role","type":"bytes32","internalType":"bytes32"},{"name":"account","type":"address","internalType":"address"}],"outputs":[{"name":"","type":"bool","internalType":"bool"}],"stateMutability":"view"},{"type":"function","name":"pause","inputs":[],"outputs":[],"stateMutability":"nonpayable"},{"type":"function","name":"paused","inputs":[],"outputs":[{"name":"","type":"bool","internalType":"bool"}],"stateMutability":"view"},{"type":"function","name":"recordDraw","inputs":[{"name":"player1","type":"address","internalType":"address"},{"name":"player2","type":"address","internalType":"address"},{"name":"duration","type":"uint256","internalType":"uint256"},{"name":"shots","type":"uint256","internalType":"uint256"},{"name":"endReason","type":"string","internalType":"string"}],"outputs":[],"stateMutability":"nonpayable"},{"type":"function","name":"recordGameResult","inputs":[{"name":"player","type":"address","internalType":"address"},{"name":"isWinner","type":"bool","internalType":"bool"},{"name":"gameId","type":"uint256","internalType":"uint256"},{"name":"duration","type":"uint256","internalType":"uint256"},{"name":"shots","type":"uint256","internalType":"uint256"},{"name":"endReason","type":"string","internalType":"string"},{"name":"rewardEarned","type":"uint256","internalType":"uint256"}],"outputs":[],"stateMutability":"nonpayable"},{"type":"function","name":"renounceRole","inputs":[{"name":"role","type":"bytes32","internalType":"bytes32"},{"name":"callerConfirmation","type":"address","internalType":"address"}],"outputs":[],"stateMutability":"nonpayable"},{"type":"function","name":"resetMonthlyStats","inputs":[],"outputs":[],"stateMutability":"nonpayable"},{"type":"function","name":"resetWeeklyStats","inputs":[],"outputs":[],"stateMutability":"nonpayable"},{"type":"function","name":"revokeRole","inputs":[{"name":"role","type":"bytes32","internalType":"bytes32"},{"name":"account","type":"address","internalType":"address"}],"outputs":[],"stateMutability":"nonpayable"},{"type":"function","name":"supportsInterface","inputs":[{"name":"interfaceId","type":"bytes4","internalType":"bytes4"}],"outputs":[{"name":"","type":"bool","internalType":"bool"}],"stateMutability":"view"},{"type":"function","name":"unpause","inputs":[],"outputs":[],"stateMutability":"nonpayable"},{"type":"function","name":"updateLeaderboard","inputs":[{"name":"leaderboardType","type":"bytes32","internalType":"bytes32"}],"outputs":[],"stateMutability":"nonpayable"},{"type":"event","name":"GlobalStatsUpdated","inputs":[{"name":"timestamp","type":"uint256","indexed":false,"internalType":"uint256"}],"anonymous":false},{"type":"event","name":"LeaderboardUpdated","inputs":[{"name":"leaderboardType","type":"bytes32","indexed":true,"internalType":"bytes32"},{"name":"timestamp","type":"uint256","indexed":false,"internalType":"uint256"}],"anonymous":false},{"type":"event","name":"MonthlyStatsReset","inputs":[{"name":"newMonth","type":"uint256","indexed":false,"internalType":"uint256"}],"anonymous":false},{"type":"event","name":"NewPlayer","inputs":[{"name":"player","type":"address","indexed":true,"internalType":"address"},{"name":"timestamp","type":"uint256","indexed":false,"internalType":"uint256"}],"anonymous":false},{"type":"event","name":"Paused","inputs":[{"name":"account","type":"address","indexed":false,"internalType":"address"}],"anonymous":false},{"type":"event","name":"PlayerStatsUpdated","inputs":[{"name":"player","type":"address","indexed":true,"internalType":"address"},{"name":"timestamp","type":"uint256","indexed":false,"internalType":"uint256"}],"anonymous":false},{"type":"event","name":"RoleAdminChanged","inputs":[{"name":"role","type":"bytes32","indexed":true,"internalType":"bytes32"},{"name":"previousAdminRole","type":"bytes32","indexed":true,"internalType":"bytes32"},{"name":"newAdminRole","type":"bytes32","indexed":true,"internalType":"bytes32"}],"anonymous":false},{"type":"event","name":"RoleGranted","inputs":[{"name":"role","type":"bytes32","indexed":true,"internalType":"bytes32"},{"name":"account","type":"address","indexed":true,"internalType":"address"},{"name":"sender","type":"address","indexed":true,"internalType":"address"}],"anonymous":false},{"type":"event","name":"RoleRevoked","inputs":[{"name":"role","type":"bytes32","indexed":true,"internalType":"bytes32"},{"name":"account","type":"address","indexed":true,"internalType":"address"},{"name":"sender","type":"address","indexed":true,"internalType":"address"}],"anonymous":false},{"type":"event","name":"Unpaused","inputs":[{"name":"account","type":"address","indexed":false,"internalType":"address"}],"anonymous":false},{"type":"event","name":"WeeklyStatsReset","inputs":[{"name":"newWeek","type":"uint256","indexed":false,"internalType":"uint256"}],"anonymous":false},{"type":"error","name":"AccessControlBadConfirmation","inputs":[]},{"type":"error","name":"AccessControlUnauthorizedAccount","inputs":[{"name":"account","type":"address","internalType":"address"},{"name":"neededRole","type":"bytes32","internalType":"bytes32"}]},{"type":"error","name":"EnforcedPause","inputs":[]},{"type":"error","name":"ExpectedPause","inputs":[]}],"bytecode":{"object":"0x60803461008d57601f612e6538819003918201601f19168301916001600160401b038311848410176100915780849260209460405283398101031261008d57516001600160a01b038116810361008d578061005c610062926100a5565b5061011b565b5062093a804204600f5562278d00420460105542600d555f19600a55604051612c5690816101af8239f35b5f80fd5b634e487b7160e01b5f52604160045260245ffd5b6001600160a01b0381165f9081525f516020612e455f395f51905f52602052604090205460ff16610116576001600160a01b03165f8181525f516020612e455f395f51905f5260205260408120805460ff191660011790553391905f516020612e055f395f51905f528180a4600190565b505f90565b6001600160a01b0381165f9081525f516020612e255f395f51905f52602052604090205460ff16610116576001600160a01b03165f8181525f516020612e255f395f51905f5260205260408120805460ff191660011790553391907fa49807205ce4d355092ef5a8a18f56e8913cf4a201fbe287825b095693c21775905f516020612e055f395f51905f529080a460019056fe6080806040526004361015610012575f80fd5b5f905f3560e01c90816301ffc9a714611c6157508063049a80ac14611c095780631c00b9f114611bb1578063201748fb14611b595780632210814014611a5b578063248a9ca314611a13578063295647f5146119c65780632f2ff15d1461196b57806336568abe146118e1578063379e10c61461188f5780633f4ba83a146117d457806340ce25691461150e57806348b6d3d6146114cf5780634fd66eae1461132a578063577d8d87146106f05780635c975abb146106af57806362560790146106565780636b4169c3146105b25780636c34b4261461043f57806375b238fc146103e657806376d4dfa41461038d5780638456cb59146102f7578063882f20f4146102b557806391d1485414610240578063a217fddf14610206578063d547741f146101a15763ec487ca414610147575f80fd5b3461019e57807ffffffffffffffffffffffffffffffffffffffffffffffffffffffffffffffffc36011261019e5760206040517e9817c221cc98cf8539dd285e3fc05cbf4d20927bed0807d8fc76de41d18fa48152f35b80fd5b503461019e5760407ffffffffffffffffffffffffffffffffffffffffffffffffffffffffffffffffc36011261019e576102026004356101df611d40565b906101fd6101f8825f525f602052600160405f20015490565b612126565b612276565b5080f35b503461019e57807ffffffffffffffffffffffffffffffffffffffffffffffffffffffffffffffffc36011261019e57602090604051908152f35b503461019e5760407ffffffffffffffffffffffffffffffffffffffffffffffffffffffffffffffffc36011261019e5773ffffffffffffffffffffffffffffffffffffffff604061028f611d40565b926004358152806020522091165f52602052602060ff60405f2054166040519015158152f35b503461019e57807ffffffffffffffffffffffffffffffffffffffffffffffffffffffffffffffffc36011261019e576102ec612017565b6102f4612613565b80f35b503461019e57807ffffffffffffffffffffffffffffffffffffffffffffffffffffffffffffffffc36011261019e5761032e612017565b61033661233e565b60017fffffffffffffffffffffffffffffffffffffffffffffffffffffffffffffff00815416176001557f62e78cea01bee320cd4e420270b5ea74000d11b0c9f74754ebdbfc544b05a2586020604051338152a180f35b503461019e57807ffffffffffffffffffffffffffffffffffffffffffffffffffffffffffffffffc36011261019e5760206040517fc8efdaa9c597531d8f242e1824f04d1c9773eec21e8ef820ccb8745ec9156f478152f35b503461019e57807ffffffffffffffffffffffffffffffffffffffffffffffffffffffffffffffffc36011261019e5760206040517fa49807205ce4d355092ef5a8a18f56e8913cf4a201fbe287825b095693c217758152f35b503461019e5760407ffffffffffffffffffffffffffffffffffffffffffffffffffffffffffffffffc36011261019e576004358152601160205260408120805460243590818111156105ab57505b61049e61049982611fb2565b611db0565b918183527fffffffffffffffffffffffffffffffffffffffffffffffffffffffffffffffe06104cc83611fb2565b01845b818110610586575050835b828110610554578385604051918291602083016020845282518091526020604085019301915b81811061050e575050500390f35b91935091602060606001926040875173ffffffffffffffffffffffffffffffffffffffff8151168352848101518584015201516040820152019401910191849392610500565b8061056a61056460019385611e64565b50611fde565b6105748287611fca565b5261057f8186611fca565b50016104da565b602090610591611d63565b8781528783820152876040820152828288010152016104cf565b905061048d565b503461019e57807ffffffffffffffffffffffffffffffffffffffffffffffffffffffffffffffffc36011261019e57600554600654600754600854600954600a5460e096919291907fffffffffffffffffffffffffffffffffffffffffffffffffffffffffffffffff810361064e5750925b600b5494604051968752602087015260408601526060850152608084015260a083015260c0820152f35b905092610624565b503461019e57807ffffffffffffffffffffffffffffffffffffffffffffffffffffffffffffffffc36011261019e5760206040517f642020592940af779b209f8f9c4277bbad555b8b993dc071b1a5ed41bab724f98152f35b503461019e57807ffffffffffffffffffffffffffffffffffffffffffffffffffffffffffffffffc36011261019e57602060ff600154166040519015158152f35b503461019e5760e07ffffffffffffffffffffffffffffffffffffffffffffffffffffffffffffffffc36011261019e57610728611d1d565b60243591821515830361019e5760643560a43567ffffffffffffffff81116113265760209161075c83923690600401611df4565b906108c360c43561076b61209f565b61077361233e565b610883601073ffffffffffffffffffffffffffffffffffffffff8a169a8b8a526003885260ff60408b20541615611318575b6107ad61246a565b8b8a526002885260408a20906107c38254611f66565b8255600782016107d66084358254611eaa565b9055600882016107e7888254611eaa565b9055600982016107f8868254611eaa565b905542600b830155600c820161080e8154611f66565b9055600d820161081e8154611f66565b9055156112ed57600181016108338154611f66565b9055600e81016108438154611f66565b9055600f81016108538154611f66565b9055600481016108638154611f66565b8091558a600683015560058201805482116112e5575b50505b0185611f93565b61088d8154611f66565b905561089a600554611f66565b90816005556108bb6108ae85600854611eaa565b9182600855600b54611eaa565b600b55611f2f565b60075560095481116112dc575b600a5481106112d3575b5042600d55604051928184925191829101835e8101600e8152030190206109018154611f66565b90557f8c4f31cb42c4b07019625df06e0a5141aaf219caaaf6c0abe683bf3fe21b0afd6020604051428152a1827f30f4786970ac88a2370b6400a52babacb2e9bf4fd3e13b956cc06898318351226020604051428152a26109827f8423b31c20eaff5bea51418b1d031b050f9a27a6a49ed5553c31cd4a9cd2be1a8361299d565b927f8423b31c20eaff5bea51418b1d031b050f9a27a6a49ed5553c31cd4a9cd2be1a8252601160205260408220937fffffffffffffffffffffffffffffffffffffffffffffffffffffffffffffffff838654905b81811061129b575b507fffffffffffffffffffffffffffffffffffffffffffffffffffffffffffffffff82146112585750610a1360019187611e64565b5001555b610a2084612ad7565b815b8454811015610a7c5760018101808211610a4f57906001916002610a468389611e64565b50015501610a22565b6024847f4e487b710000000000000000000000000000000000000000000000000000000081526011600452fd5b5092507f8423b31c20eaff5bea51418b1d031b050f9a27a6a49ed5553c31cd4a9cd2be1a7f825f9605da4b5855b542fc82735353589cfdafc1b49c52dfce76d19f09a1dddf6020604051428152a2610af47fc8efdaa9c597531d8f242e1824f04d1c9773eec21e8ef820ccb8745ec9156f478361299d565b927fc8efdaa9c597531d8f242e1824f04d1c9773eec21e8ef820ccb8745ec9156f478252601160205260408220937fffffffffffffffffffffffffffffffffffffffffffffffffffffffffffffffff838654905b818110611220575b507fffffffffffffffffffffffffffffffffffffffffffffffffffffffffffffffff82146111dd5750610b8560019187611e64565b5001555b610b9284612ad7565b815b8454811015610bc15760018101808211610a4f57906001916002610bb88389611e64565b50015501610b94565b5092507fc8efdaa9c597531d8f242e1824f04d1c9773eec21e8ef820ccb8745ec9156f477f825f9605da4b5855b542fc82735353589cfdafc1b49c52dfce76d19f09a1dddf6020604051428152a2610c397f24e9476f6a39fcf7abcf58f578d60056fee1ee9a2f8b721b13a7f06a8816e4888361299d565b927f24e9476f6a39fcf7abcf58f578d60056fee1ee9a2f8b721b13a7f06a8816e4888252601160205260408220937fffffffffffffffffffffffffffffffffffffffffffffffffffffffffffffffff838654905b8181106111a5575b507fffffffffffffffffffffffffffffffffffffffffffffffffffffffffffffffff82146111625750610cca60019187611e64565b5001555b610cd784612ad7565b815b8454811015610d065760018101808211610a4f57906001916002610cfd8389611e64565b50015501610cd9565b5092507f24e9476f6a39fcf7abcf58f578d60056fee1ee9a2f8b721b13a7f06a8816e4887f825f9605da4b5855b542fc82735353589cfdafc1b49c52dfce76d19f09a1dddf6020604051428152a2610d7e7f642020592940af779b209f8f9c4277bbad555b8b993dc071b1a5ed41bab724f98361299d565b927f642020592940af779b209f8f9c4277bbad555b8b993dc071b1a5ed41bab724f98252601160205260408220937fffffffffffffffffffffffffffffffffffffffffffffffffffffffffffffffff838654905b81811061112a575b507fffffffffffffffffffffffffffffffffffffffffffffffffffffffffffffffff82146110ba5750610e0f60019187611e64565b5001555b610e1c84612ad7565b815b8454811015610e4b5760018101808211610a4f57906001916002610e428389611e64565b50015501610e1e565b50917ff10f82f164d3c43fa1bf02d7f111f05dd7bb07c9212ba7dbf9fc785cb423999b610ec2917f642020592940af779b209f8f9c4277bbad555b8b993dc071b1a5ed41bab724f97f825f9605da4b5855b542fc82735353589cfdafc1b49c52dfce76d19f09a1dddf6020604051428152a261299d565b7ff10f82f164d3c43fa1bf02d7f111f05dd7bb07c9212ba7dbf9fc785cb423999b8252601160205260408220927fffffffffffffffffffffffffffffffffffffffffffffffffffffffffffffffff90838554905b818110611082575b507fffffffffffffffffffffffffffffffffffffffffffffffffffffffffffffffff831461100c575050610f5460019185611e64565b5001555b610f6182612ad7565b805b8254811015610fbd5760018101808211610f9057906001916002610f878387611e64565b50015501610f63565b6024837f4e487b710000000000000000000000000000000000000000000000000000000081526011600452fd5b507ff10f82f164d3c43fa1bf02d7f111f05dd7bb07c9212ba7dbf9fc785cb423999b7f825f9605da4b5855b542fc82735353589cfdafc1b49c52dfce76d19f09a1dddf6020604051428152a280f35b915091611017611d63565b928352602083015282604083015268010000000000000000811015611055579061104a8260016110509401865585611e64565b90612786565b610f58565b6024837f4e487b710000000000000000000000000000000000000000000000000000000081526041600452fd5b8273ffffffffffffffffffffffffffffffffffffffff6110a2838a611e64565b505416146110b257600101610f16565b925086610f1e565b90506110c4611d63565b918383526020830152836040830152680100000000000000008110156110fd579061104a8260016110f89401885587611e64565b610e13565b6024847f4e487b710000000000000000000000000000000000000000000000000000000081526041600452fd5b8473ffffffffffffffffffffffffffffffffffffffff61114a838b611e64565b5054161461115a57600101610dd2565b91505f610dda565b905061116c611d63565b918383526020830152836040830152680100000000000000008110156110fd579061104a8260016111a09401885587611e64565b610cce565b8473ffffffffffffffffffffffffffffffffffffffff6111c5838b611e64565b505416146111d557600101610c8d565b91505f610c95565b90506111e7611d63565b918383526020830152836040830152680100000000000000008110156110fd579061104a82600161121b9401885587611e64565b610b89565b8473ffffffffffffffffffffffffffffffffffffffff611240838b611e64565b5054161461125057600101610b48565b91505f610b50565b9050611262611d63565b918383526020830152836040830152680100000000000000008110156110fd579061104a8260016112969401885587611e64565b610a17565b8473ffffffffffffffffffffffffffffffffffffffff6112bb838b611e64565b505416146112cb576001016109d6565b91505f6109de565b600a555f6108da565b806009556108d0565b555f80610879565b600281016112fb8154611f66565b90556006810161130b8154611f66565b905589600482015561087c565b6113218b612372565b6107a5565b8280fd5b503461019e5760207ffffffffffffffffffffffffffffffffffffffffffffffffffffffffffffffffc36011261019e5773ffffffffffffffffffffffffffffffffffffffff611377611d1d565b16815260026020526040812080549081158015906114c85761139d836008840154611f2f565b905b156114c2576001820154612710810290808204612710149015171561149557836113c891611f2f565b600c83015491821561148b57600e84015495612710870296808804612710149015171561145e57506113fd8361016097611f2f565b935b600181015492600282015490600383015460048401549260096005860154950154966040519a8b5260208b015260408a01526060890152608088015260a087015260c086015260e0850152610100840152610120830152610140820152f35b807f4e487b7100000000000000000000000000000000000000000000000000000000602492526011600452fd5b61016095936113ff565b6024857f4e487b710000000000000000000000000000000000000000000000000000000081526011600452fd5b836113c8565b839061139f565b503461019e57807ffffffffffffffffffffffffffffffffffffffffffffffffffffffffffffffffc36011261019e57611506612017565b6102f46124a0565b346117d05760a07ffffffffffffffffffffffffffffffffffffffffffffffffffffffffffffffffc3601126117d057611545611d1d565b61154d611d40565b9060443560843567ffffffffffffffff81116117d057611571903690600401611df4565b9061157a61209f565b61158261233e565b73ffffffffffffffffffffffffffffffffffffffff831692835f52600360205260ff60405f205416156117c1575b5073ffffffffffffffffffffffffffffffffffffffff841693845f52600360205260ff60405f205416156117b2575b506115e861246a565b5f838152600260205260408082208683529082209160643560011c91905b6002811061170f578787602080898961163d611623600554611f66565b8060055561163383600854611eaa565b6008819055611f2f565b6007556009548111611706575b600a5481106116fd575b5042600d55604051928184925191829101835e8101600e81520301902061167b8154611f66565b90557f8c4f31cb42c4b07019625df06e0a5141aaf219caaaf6c0abe683bf3fe21b0afd6020604051428152a17f30f4786970ac88a2370b6400a52babacb2e9bf4fd3e13b956cc06898318351226020604051428152a27f30f4786970ac88a2370b6400a52babacb2e9bf4fd3e13b956cc06898318351226020604051428152a2005b600a5585611654565b8060095561164a565b600190806117a7576117956010845b6117288154611f66565b8155600381016117388154611f66565b9055600881016117498a8254611eaa565b90556007810161175a888254611eaa565b905542600b820155600c81016117708154611f66565b9055600d81016117808154611f66565b90555f60048201555f60068201550188611f93565b61179f8154611f66565b905501611606565b61179560108661171e565b6117bb90612372565b846115df565b6117ca90612372565b846115b0565b5f80fd5b346117d0575f7ffffffffffffffffffffffffffffffffffffffffffffffffffffffffffffffffc3601126117d05761180a612017565b60015460ff811615611867577fffffffffffffffffffffffffffffffffffffffffffffffffffffffffffffff00166001557f5db9ee0a495bf2e6ff9c91a7834c1ba4fdd244a5e8aa4e537bd38aeae4b073aa6020604051338152a1005b7f8dfc202b000000000000000000000000000000000000000000000000000000005f5260045ffd5b346117d0575f7ffffffffffffffffffffffffffffffffffffffffffffffffffffffffffffffffc3601126117d0576040600f5462093a804204141560105462278d004204141582519182526020820152f35b346117d05760407ffffffffffffffffffffffffffffffffffffffffffffffffffffffffffffffffc3601126117d057611918611d40565b3373ffffffffffffffffffffffffffffffffffffffff8216036119435761194190600435612276565b005b7f6697b232000000000000000000000000000000000000000000000000000000005f5260045ffd5b346117d05760407ffffffffffffffffffffffffffffffffffffffffffffffffffffffffffffffffc3601126117d0576119416004356119a8611d40565b906119c16101f8825f525f602052600160405f20015490565b6121a4565b346117d05760407ffffffffffffffffffffffffffffffffffffffffffffffffffffffffffffffffc3601126117d0576020611a0b611a02611d1d565b60243590611eb7565b604051908152f35b346117d05760207ffffffffffffffffffffffffffffffffffffffffffffffffffffffffffffffffc3601126117d0576020611a0b6004355f525f602052600160405f20015490565b346117d05760207ffffffffffffffffffffffffffffffffffffffffffffffffffffffffffffffffc3601126117d057600435611a95612017565b805f52601160205260405f208054905f815581611af3575b50505f5b6004548110156119415780611aed8373ffffffffffffffffffffffffffffffffffffffff611ae060019561218c565b90549060031b1c1661280f565b01611ab1565b81600302916003830403611b2c575f5260205f20908101905b81811015611aad57805f600392555f60018201555f600282015501611b0c565b7f4e487b71000000000000000000000000000000000000000000000000000000005f52601160045260245ffd5b346117d0575f7ffffffffffffffffffffffffffffffffffffffffffffffffffffffffffffffffc3601126117d05760206040517ff10f82f164d3c43fa1bf02d7f111f05dd7bb07c9212ba7dbf9fc785cb423999b8152f35b346117d0575f7ffffffffffffffffffffffffffffffffffffffffffffffffffffffffffffffffc3601126117d05760206040517f24e9476f6a39fcf7abcf58f578d60056fee1ee9a2f8b721b13a7f06a8816e4888152f35b346117d0575f7ffffffffffffffffffffffffffffffffffffffffffffffffffffffffffffffffc3601126117d05760206040517f8423b31c20eaff5bea51418b1d031b050f9a27a6a49ed5553c31cd4a9cd2be1a8152f35b346117d05760207ffffffffffffffffffffffffffffffffffffffffffffffffffffffffffffffffc3601126117d057600435907fffffffff0000000000000000000000000000000000000000000000000000000082168092036117d057817f7965db0b0000000000000000000000000000000000000000000000000000000060209314908115611cf3575b5015158152f35b7f01ffc9a70000000000000000000000000000000000000000000000000000000091501483611cec565b6004359073ffffffffffffffffffffffffffffffffffffffff821682036117d057565b6024359073ffffffffffffffffffffffffffffffffffffffff821682036117d057565b604051906060820182811067ffffffffffffffff821117611d8357604052565b7f4e487b71000000000000000000000000000000000000000000000000000000005f52604160045260245ffd5b907fffffffffffffffffffffffffffffffffffffffffffffffffffffffffffffffe0601f604051930116820182811067ffffffffffffffff821117611d8357604052565b81601f820112156117d05780359067ffffffffffffffff8211611d8357611e4260207fffffffffffffffffffffffffffffffffffffffffffffffffffffffffffffffe0601f85011601611db0565b92828452602083830101116117d057815f926020809301838601378301015290565b8054821015611e7d575f52600360205f20910201905f90565b7f4e487b71000000000000000000000000000000000000000000000000000000005f52603260045260245ffd5b91908201809211611b2c57565b5f9182526011602052604082208054925b838110611ed757505050505f90565b73ffffffffffffffffffffffffffffffffffffffff611ef68284611e64565b50541673ffffffffffffffffffffffffffffffffffffffff841614611f1d57600101611ec8565b9250505060018101809111611b2c5790565b8115611f39570490565b7f4e487b71000000000000000000000000000000000000000000000000000000005f52601260045260245ffd5b7fffffffffffffffffffffffffffffffffffffffffffffffffffffffffffffffff8114611b2c5760010190565b6040518151909260209284929081908501845e82019081520301902090565b67ffffffffffffffff8111611d835760051b60200190565b8051821015611e7d5760209160051b010190565b906002611fe9611d63565b9273ffffffffffffffffffffffffffffffffffffffff81541684526001810154602085015201546040830152565b335f9081527f7d7ffb7a348e1c6a02869081a26547b49160dd3df72d1d75a570eb9b698292ec602052604090205460ff161561204f57565b7fe2517d3f000000000000000000000000000000000000000000000000000000005f52336004527fa49807205ce4d355092ef5a8a18f56e8913cf4a201fbe287825b095693c2177560245260445ffd5b335f9081527f96fb76514e2c02587c10386f03768718ed683639a5d00da6479e668c89e96938602052604090205460ff16156120d757565b7fe2517d3f000000000000000000000000000000000000000000000000000000005f52336004527e9817c221cc98cf8539dd285e3fc05cbf4d20927bed0807d8fc76de41d18fa460245260445ffd5b805f525f60205260405f2073ffffffffffffffffffffffffffffffffffffffff33165f5260205260ff60405f2054161561215d5750565b7fe2517d3f000000000000000000000000000000000000000000000000000000005f523360045260245260445ffd5b600454811015611e7d5760045f5260205f2001905f90565b805f525f60205260405f2073ffffffffffffffffffffffffffffffffffffffff83165f5260205260ff60405f205416155f1461227057805f525f60205260405f2073ffffffffffffffffffffffffffffffffffffffff83165f5260205260405f2060017fffffffffffffffffffffffffffffffffffffffffffffffffffffffffffffff0082541617905573ffffffffffffffffffffffffffffffffffffffff339216907f2f8788117e7eff1d82e926ec794901d17c78024a50270940304540a733656f0d5f80a4600190565b50505f90565b805f525f60205260405f2073ffffffffffffffffffffffffffffffffffffffff83165f5260205260ff60405f2054165f1461227057805f525f60205260405f2073ffffffffffffffffffffffffffffffffffffffff83165f5260205260405f207fffffffffffffffffffffffffffffffffffffffffffffffffffffffffffffff00815416905573ffffffffffffffffffffffffffffffffffffffff339216907ff6391f5c32d9c69d2a47ea670b442974b53935d1edc7fd64eb21e047a839171b5f80a4600190565b60ff6001541661234a57565b7fd93c0665000000000000000000000000000000000000000000000000000000005f5260045ffd5b73ffffffffffffffffffffffffffffffffffffffff16805f52600360205260ff60405f205416156123a05750565b805f52600360205260405f2060017fffffffffffffffffffffffffffffffffffffffffffffffffffffffffffffff0082541617905560045468010000000000000000811015611d83578060016123f9920160045561218c565b81549060031b9073ffffffffffffffffffffffffffffffffffffffff84831b921b1916179055805f52600260205242600a60405f20015561243b600654611f66565b6006557f6b8fe0f067804a78a12efa88b8428446c8d8a703d5604dffc63ac27fcbdcfd0d6020604051428152a2565b600f5462093a80420403612493575b60105462278d0042040361248957565b6124916124a0565b565b61249b612613565b612479565b62278d0042046010555f5b6004548110156124fa578073ffffffffffffffffffffffffffffffffffffffff6124d660019361218c565b90549060031b1c165f5260026020525f600f6040822082600d8201550155016124ab565b507ff10f82f164d3c43fa1bf02d7f111f05dd7bb07c9212ba7dbf9fc785cb423999b5f90815260116020527fc40966074640aa34113114255360a58e9fd55817a7c296313d3075c5abcd8d238054918155816125da575b50505f5b6004548110156125aa57806125a47ff10f82f164d3c43fa1bf02d7f111f05dd7bb07c9212ba7dbf9fc785cb423999b73ffffffffffffffffffffffffffffffffffffffff611ae060019561218c565b01612555565b507fa1062d872f890b4516862f9dd287fe0fe4cb2d08a336b0b670f2f85c717aeae26020601054604051908152a1565b81600302916003830403611b2c575f5260205f20908101905b8181101561255157805f600392555f60018201555f6002820155016125f3565b62093a804204600f555f5b60045481101561266d578073ffffffffffffffffffffffffffffffffffffffff61264960019361218c565b90549060031b1c165f5260026020525f600e6040822082600c82015501550161261e565b507f642020592940af779b209f8f9c4277bbad555b8b993dc071b1a5ed41bab724f95f90815260116020527f17933c0a7b60e3041d40b525581445594561f620fa015ec7d92b3215633b055980549181558161274d575b50505f5b60045481101561271d57806127177f642020592940af779b209f8f9c4277bbad555b8b993dc071b1a5ed41bab724f973ffffffffffffffffffffffffffffffffffffffff611ae060019561218c565b016126c8565b507f1016ad99238a781fc8c15b43a6ba1e9de64fa485f9038dbca981a5df2fbba66a6020600f54604051908152a1565b81600302916003830403611b2c575f5260205f20908101905b818110156126c457805f600392555f60018201555f600282015501612766565b91906127e35760408173ffffffffffffffffffffffffffffffffffffffff806002945116167fffffffffffffffffffffffff0000000000000000000000000000000000000000855416178455602081015160018501550151910155565b7f4e487b71000000000000000000000000000000000000000000000000000000005f525f60045260245ffd5b9161281a828461299d565b5f838152601160205260408120805490957fffffffffffffffffffffffffffffffffffffffffffffffffffffffffffffffff925b82811061294f575b507fffffffffffffffffffffffffffffffffffffffffffffffffffffffffffffffff83146128f757505061288c60019186611e64565b5001555b61289983612ad7565b5f5b83548110156128c8576001810190818111611b2c5760019160026128bf8388611e64565b5001550161289b565b5091507f825f9605da4b5855b542fc82735353589cfdafc1b49c52dfce76d19f09a1dddf6020604051428152a2565b91509173ffffffffffffffffffffffffffffffffffffffff612917611d63565b9216825260208201525f604082015268010000000000000000821015611d835761104a82600161294a9401875586611e64565b612890565b73ffffffffffffffffffffffffffffffffffffffff61296e828a611e64565b50541673ffffffffffffffffffffffffffffffffffffffff8316146129955760010161284e565b92505f612856565b73ffffffffffffffffffffffffffffffffffffffff165f52600260205260405f20907f8423b31c20eaff5bea51418b1d031b050f9a27a6a49ed5553c31cd4a9cd2be1a81145f146129f057506001015490565b7fc8efdaa9c597531d8f242e1824f04d1c9773eec21e8ef820ccb8745ec9156f478103612a47575080549081156122705760010154906127108202918083046127101490151715611b2c57612a4491611f2f565b90565b7f24e9476f6a39fcf7abcf58f578d60056fee1ee9a2f8b721b13a7f06a8816e4888103612a7657506005015490565b7f642020592940af779b209f8f9c4277bbad555b8b993dc071b1a5ed41bab724f98103612aa55750600e015490565b7ff10f82f164d3c43fa1bf02d7f111f05dd7bb07c9212ba7dbf9fc785cb423999b14612ad057505f90565b600f015490565b600181541115612c5357906001915b8054831015612c4e57612afc6105648483611e64565b91835b8015801580612c09575b15612bec577fffffffffffffffffffffffffffffffffffffffffffffffffffffffffffffffff820191808311611b2c57612b4e612b468487611e64565b509186611e64565b9190916127e357808203612b91575b505015612aff577f4e487b71000000000000000000000000000000000000000000000000000000005f52601160045260245ffd5b60028173ffffffffffffffffffffffffffffffffffffffff8083945416167fffffffffffffffffffffffff00000000000000000000000000000000000000008554161784556001810154600185015501549101555f80612b5d565b506001929361104a612c019296939686611e64565b019190612ae6565b507fffffffffffffffffffffffffffffffffffffffffffffffffffffffffffffffff8201828111611b2c57612c4060019186611e64565b500154602086015111612b09565b509050565b50562f8788117e7eff1d82e926ec794901d17c78024a50270940304540a733656f0d7d7ffb7a348e1c6a02869081a26547b49160dd3df72d1d75a570eb9b698292ecad3228b676f7d3cd4284a5443f17f1962b36e491b30a40b2405849e597ba5fb5","linkReferences":{}},"methodIdentifiers":{"ADMIN_ROLE()":"75b238fc","DEFAULT_ADMIN_ROLE()":"a217fddf","MONTHLY_LEADERBOARD()":"201748fb","STATS_UPDATER_ROLE()":"ec487ca4","STREAK_LEADERBOARD()":"1c00b9f1","WEEKLY_LEADERBOARD()":"62560790","WINS_LEADERBOARD()":"049a80ac","WIN_RATE_LEADERBOARD()":"76d4dfa4","checkResetNeeded()":"379e10c6","getGlobalStats()":"6b4169c3","getLeaderboard(bytes32,uint256)":"6c34b426","getPlayerRank(address,bytes32)":"295647f5","getPlayerStats(address)":"4fd66eae","getRoleAdmin(bytes32)":"248a9ca3","grantRole(bytes32,address)":"2f2ff15d","hasRole(bytes32,address)":"91d14854","pause()":"8456cb59","paused()":"5c975abb","recordDraw(address,address,uint256,uint256,string)":"40ce2569","recordGameResult(address,bool,uint256,uint256,uint256,string,uint256)":"577d8d87","renounceRole(bytes32,address)":"36568abe","resetMonthlyStats()":"48b6d3d6","resetWeeklyStats()":"882f20f4","revokeRole(bytes32,address)":"d547741f","supportsInterface(bytes4)":"01ffc9a7","unpause()":"3f4ba83a","updateLeaderboard(bytes32)":"22108140"},"id":45}