{"abi":[{"type":"constructor","inputs":[{"name":"_usdcToken","type":"address","internalType":"address"},{"name":"_gameFactory","type":"address","internalType":"address"},{"name":"_treasury","type":"address","internalType":"address"},{"name":"_backend","type":"address","internalType":"address"},{"name":"_admin","type":"address","internalType":"address"}],"stateMutability":"nonpayable"},{"type":"function","name":"BACKEND_ROLE","inputs":[],"outputs":[{"name":"","type":"bytes32","internalType":"bytes32"}],"stateMutability":"view"},{"type":"function","name":"DEFAULT_ADMIN_ROLE","inputs":[],"outputs":[{"name":"","type":"bytes32","internalType":"bytes32"}],"stateMutability":"view"},{"type":"function","name":"INVITE_TIMEOUT","inputs":[],"outputs":[{"name":"","type":"uint256","internalType":"uint256"}],"stateMutability":"view"},{"type":"function","name":"MIN_STAKE_AMOUNT","inputs":[],"outputs":[{"name":"","type":"uint256","internalType":"uint256"}],"stateMutability":"view"},{"type":"function","name":"PLATFORM_FEE_PERCENTAGE","inputs":[],"outputs":[{"name":"","type":"uint256","internalType":"uint256"}],"stateMutability":"view"},{"type":"function","name":"TREASURY_ROLE","inputs":[],"outputs":[{"name":"","type":"bytes32","internalType":"bytes32"}],"stateMutability":"view"},{"type":"function","name":"acceptInvite","inputs":[{"name":"inviteId","type":"uint256","internalType":"uint256"}],"outputs":[],"stateMutability":"nonpayable"},{"type":"function","name":"bettingInvites","inputs":[{"name":"","type":"uint256","internalType":"uint256"}],"outputs":[{"name":"id","type":"uint256","internalType":"uint256"},{"name":"creator","type":"address","internalType":"address"},{"name":"stakeAmount","type":"uint256","internalType":"uint256"},{"name":"acceptor","type":"address","internalType":"address"},{"name":"createdAt","type":"uint256","internalType":"uint256"},{"name":"timeout","type":"uint256","internalType":"uint256"},{"name":"betStatus","type":"uint8","internalType":"enum BattleshipBetting.BetStatus"},{"name":"gameStatus","type":"uint8","internalType":"enum BattleshipBetting.GameStatus"},{"name":"gameId","type":"uint256","internalType":"uint256"},{"name":"fundsDistributed","type":"bool","internalType":"bool"}],"stateMutability":"view"},{"type":"function","name":"cancelInvite","inputs":[{"name":"inviteId","type":"uint256","internalType":"uint256"}],"outputs":[],"stateMutability":"nonpayable"},{"type":"function","name":"createGame","inputs":[{"name":"inviteId","type":"uint256","internalType":"uint256"}],"outputs":[{"name":"gameId","type":"uint256","internalType":"uint256"}],"stateMutability":"nonpayable"},{"type":"function","name":"createInvite","inputs":[{"name":"stakeAmount","type":"uint256","internalType":"uint256"}],"outputs":[{"name":"inviteId","type":"uint256","internalType":"uint256"}],"stateMutability":"nonpayable"},{"type":"function","name":"emergencyWithdraw","inputs":[{"name":"token","type":"address","internalType":"address"},{"name":"amount","type":"uint256","internalType":"uint256"}],"outputs":[],"stateMutability":"nonpayable"},{"type":"function","name":"gameFactory","inputs":[],"outputs":[{"name":"","type":"address","internalType":"contract GameFactoryWithStats"}],"stateMutability":"view"},{"type":"function","name":"gameIdToBettingInvite","inputs":[{"name":"","type":"uint256","internalType":"uint256"}],"outputs":[{"name":"","type":"uint256","internalType":"uint256"}],"stateMutability":"view"},{"type":"function","name":"getBettingInvite","inputs":[{"name":"inviteId","type":"uint256","internalType":"uint256"}],"outputs":[{"name":"invite","type":"tuple","internalType":"struct BattleshipBetting.BettingInvite","components":[{"name":"id","type":"uint256","internalType":"uint256"},{"name":"creator","type":"address","internalType":"address"},{"name":"stakeAmount","type":"uint256","internalType":"uint256"},{"name":"acceptor","type":"address","internalType":"address"},{"name":"createdAt","type":"uint256","internalType":"uint256"},{"name":"timeout","type":"uint256","internalType":"uint256"},{"name":"betStatus","type":"uint8","internalType":"enum BattleshipBetting.BetStatus"},{"name":"gameStatus","type":"uint8","internalType":"enum BattleshipBetting.GameStatus"},{"name":"gameId","type":"uint256","internalType":"uint256"},{"name":"fundsDistributed","type":"bool","internalType":"bool"}]}],"stateMutability":"view"},{"type":"function","name":"getGameBettingInfo","inputs":[{"name":"gameId","type":"uint256","internalType":"uint256"}],"outputs":[{"name":"inviteId","type":"uint256","internalType":"uint256"},{"name":"totalPool","type":"uint256","internalType":"uint256"},{"name":"resolved","type":"bool","internalType":"bool"}],"stateMutability":"view"},{"type":"function","name":"getPlayerInvites","inputs":[{"name":"player","type":"address","internalType":"address"}],"outputs":[{"name":"inviteIds","type":"uint256[]","internalType":"uint256[]"}],"stateMutability":"view"},{"type":"function","name":"getRoleAdmin","inputs":[{"name":"role","type":"bytes32","internalType":"bytes32"}],"outputs":[{"name":"","type":"bytes32","internalType":"bytes32"}],"stateMutability":"view"},{"type":"function","name":"grantRole","inputs":[{"name":"role","type":"bytes32","internalType":"bytes32"},{"name":"account","type":"address","internalType":"address"}],"outputs":[],"stateMutability":"nonpayable"},{"type":"function","name":"handleExpiredInvite","inputs":[{"name":"inviteId","type":"uint256","internalType":"uint256"}],"outputs":[],"stateMutability":"nonpayable"},{"type":"function","name":"hasRole","inputs":[{"name":"role","type":"bytes32","internalType":"bytes32"},{"name":"account","type":"address","internalType":"address"}],"outputs":[{"name":"","type":"bool","internalType":"bool"}],"stateMutability":"view"},{"type":"function","name":"isInviteExpired","inputs":[{"name":"inviteId","type":"uint256","internalType":"uint256"}],"outputs":[{"name":"expired","type":"bool","internalType":"bool"}],"stateMutability":"view"},{"type":"function","name":"pause","inputs":[],"outputs":[],"stateMutability":"nonpayable"},{"type":"function","name":"paused","inputs":[],"outputs":[{"name":"","type":"bool","internalType":"bool"}],"stateMutability":"view"},{"type":"function","name":"playerInvites","inputs":[{"name":"","type":"address","internalType":"address"},{"name":"","type":"uint256","internalType":"uint256"}],"outputs":[{"name":"","type":"uint256","internalType":"uint256"}],"stateMutability":"view"},{"type":"function","name":"renounceRole","inputs":[{"name":"role","type":"bytes32","internalType":"bytes32"},{"name":"callerConfirmation","type":"address","internalType":"address"}],"outputs":[],"stateMutability":"nonpayable"},{"type":"function","name":"resolveGame","inputs":[{"name":"gameId","type":"uint256","internalType":"uint256"},{"name":"winner","type":"address","internalType":"address"}],"outputs":[],"stateMutability":"nonpayable"},{"type":"function","name":"revokeRole","inputs":[{"name":"role","type":"bytes32","internalType":"bytes32"},{"name":"account","type":"address","internalType":"address"}],"outputs":[],"stateMutability":"nonpayable"},{"type":"function","name":"setTreasury","inputs":[{"name":"newTreasury","type":"address","internalType":"address"}],"outputs":[],"stateMutability":"nonpayable"},{"type":"function","name":"supportsInterface","inputs":[{"name":"interfaceId","type":"bytes4","internalType":"bytes4"}],"outputs":[{"name":"","type":"bool","internalType":"bool"}],"stateMutability":"view"},{"type":"function","name":"treasury","inputs":[],"outputs":[{"name":"","type":"address","internalType":"address"}],"stateMutability":"view"},{"type":"function","name":"unpause","inputs":[],"outputs":[],"stateMutability":"nonpayable"},{"type":"function","name":"usdcToken","inputs":[],"outputs":[{"name":"","type":"address","internalType":"contract IERC20"}],"stateMutability":"view"},{"type":"event","name":"GameCreated","inputs":[{"name":"gameId","type":"uint256","indexed":true,"internalType":"uint256"},{"name":"inviteId","type":"uint256","indexed":true,"internalType":"uint256"},{"name":"playerA","type":"address","indexed":true,"internalType":"address"},{"name":"playerB","type":"address","indexed":false,"internalType":"address"}],"anonymous":false},{"type":"event","name":"GameResolved","inputs":[{"name":"gameId","type":"uint256","indexed":true,"internalType":"uint256"},{"name":"winner","type":"address","indexed":true,"internalType":"address"},{"name":"winnerPayout","type":"uint256","indexed":false,"internalType":"uint256"},{"name":"platformFee","type":"uint256","indexed":false,"internalType":"uint256"}],"anonymous":false},{"type":"event","name":"InviteAccepted","inputs":[{"name":"inviteId","type":"uint256","indexed":true,"internalType":"uint256"},{"name":"acceptor","type":"address","indexed":true,"internalType":"address"}],"anonymous":false},{"type":"event","name":"InviteCancelled","inputs":[{"name":"inviteId","type":"uint256","indexed":true,"internalType":"uint256"},{"name":"creator","type":"address","indexed":true,"internalType":"address"},{"name":"stakeAmount","type":"uint256","indexed":false,"internalType":"uint256"}],"anonymous":false},{"type":"event","name":"InviteCreated","inputs":[{"name":"inviteId","type":"uint256","indexed":true,"internalType":"uint256"},{"name":"creator","type":"address","indexed":true,"internalType":"address"},{"name":"stakeAmount","type":"uint256","indexed":false,"internalType":"uint256"}],"anonymous":false},{"type":"event","name":"InviteExpired","inputs":[{"name":"inviteId","type":"uint256","indexed":true,"internalType":"uint256"},{"name":"creator","type":"address","indexed":true,"internalType":"address"},{"name":"stakeAmount","type":"uint256","indexed":false,"internalType":"uint256"}],"anonymous":false},{"type":"event","name":"Paused","inputs":[{"name":"account","type":"address","indexed":false,"internalType":"address"}],"anonymous":false},{"type":"event","name":"RoleAdminChanged","inputs":[{"name":"role","type":"bytes32","indexed":true,"internalType":"bytes32"},{"name":"previousAdminRole","type":"bytes32","indexed":true,"internalType":"bytes32"},{"name":"newAdminRole","type":"bytes32","indexed":true,"internalType":"bytes32"}],"anonymous":false},{"type":"event","name":"RoleGranted","inputs":[{"name":"role","type":"bytes32","indexed":true,"internalType":"bytes32"},{"name":"account","type":"address","indexed":true,"internalType":"address"},{"name":"sender","type":"address","indexed":true,"internalType":"address"}],"anonymous":false},{"type":"event","name":"RoleRevoked","inputs":[{"name":"role","type":"bytes32","indexed":true,"internalType":"bytes32"},{"name":"account","type":"address","indexed":true,"internalType":"address"},{"name":"sender","type":"address","indexed":true,"internalType":"address"}],"anonymous":false},{"type":"event","name":"TreasuryUpdated","inputs":[{"name":"oldTreasury","type":"address","indexed":true,"internalType":"address"},{"name":"newTreasury","type":"address","indexed":true,"internalType":"address"}],"anonymous":false},{"type":"event","name":"Unpaused","inputs":[{"name":"account","type":"address","indexed":false,"internalType":"address"}],"anonymous":false},{"type":"error","name":"AccessControlBadConfirmation","inputs":[]},{"type":"error","name":"AccessControlUnauthorizedAccount","inputs":[{"name":"account","type":"address","internalType":"address"},{"name":"neededRole","type":"bytes32","internalType":"bytes32"}]},{"type":"error","name":"AlreadyResolved","inputs":[]},{"type":"error","name":"EnforcedPause","inputs":[]},{"type":"error","name":"ExpectedPause","inputs":[]},{"type":"error","name":"GameNotFound","inputs":[]},{"type":"error","name":"InsufficientBalance","inputs":[]},{"type":"error","name":"InvalidInviteStatus","inputs":[]},{"type":"error","name":"InvalidStakeAmount","inputs":[]},{"type":"error","name":"InviteNotFound","inputs":[]},{"type":"error","name":"NotExpired","inputs":[]},{"type":"error","name":"ReentrancyGuardReentrantCall","inputs":[]},{"type":"error","name":"SafeERC20FailedOperation","inputs":[{"name":"token","type":"address","internalType":"address"}]},{"type":"error","name":"SamePlayerNotAllowed","inputs":[]},{"type":"error","name":"TransferFailed","inputs":[]},{"type":"error","name":"UnauthorizedAction","inputs":[]}],"bytecode":{"object":"0x60c03461027c57601f612b3338819003918201601f19168301916001600160401b038311848410176102805780849260a09460405283398101031261027c5761004781610294565b9061005460208201610294565b61006060408301610294565b91610079608061007260608401610294565b9201610294565b60016002819055600755936001600160a01b0316918215610242576001600160a01b03169182156101fd576001600160a01b0384169485156101c5576001600160a01b0383161561018e576001600160a01b038116156101595761010695610100946100fa9360805260a05260018060a01b031960035416176003556102a8565b5061031e565b506103b1565b5060405161266e90816104458239608051818181610437015281816107a401528181610ab001528181610eb1015281816118de01528181611a6d0152611b3d015260a051818181610f47015261128b0152f35b60405162461bcd60e51b815260206004820152600d60248201526c24b73b30b634b21030b236b4b760991b6044820152606490fd5b60405162461bcd60e51b815260206004820152600f60248201526e125b9d985b1a5908189858dad95b99608a1b6044820152606490fd5b60405162461bcd60e51b815260206004820152601060248201526f496e76616c696420747265617375727960801b6044820152606490fd5b60405162461bcd60e51b815260206004820152601460248201527f496e76616c69642067616d6520666163746f72790000000000000000000000006044820152606490fd5b60405162461bcd60e51b815260206004820152601260248201527124b73b30b634b2102aa9a221903a37b5b2b760711b6044820152606490fd5b5f80fd5b634e487b7160e01b5f52604160045260245ffd5b51906001600160a01b038216820361027c57565b6001600160a01b0381165f9081525f516020612b135f395f51905f52602052604090205460ff16610319576001600160a01b03165f8181525f516020612b135f395f51905f5260205260408120805460ff191660011790553391905f516020612ab35f395f51905f528180a4600190565b505f90565b6001600160a01b0381165f9081525f516020612ad35f395f51905f52602052604090205460ff16610319576001600160a01b03165f8181525f516020612ad35f395f51905f5260205260408120805460ff191660011790553391907f25cf2b509f2a7f322675b2a5322b182f44ad2c03ac941a0af17c9b178f5d5d5f905f516020612ab35f395f51905f529080a4600190565b6001600160a01b0381165f9081525f516020612af35f395f51905f52602052604090205460ff16610319576001600160a01b03165f8181525f516020612af35f395f51905f5260205260408120805460ff191660011790553391907fe1dcbdb91df27212a29bc27177c840cf2f819ecf2187432e1fac86c2dd5dfca9905f516020612ab35f395f51905f529080a460019056fe6080806040526004361015610012575f80fd5b5f3560e01c90816301ffc9a714611d595750806306528e9414611bfd57806311ca230b1461190257806311eac85514611894578063155482321461185b5780631afb485e1461176757806322b1eabd146115aa578063248a9ca31461155a57806327ed71881461151f5780632f2ff15d146114c457806336568abe1461143c5780633f4ba83a1461138157806348e837b9146111935780635c975abb1461115357806360d20b831461110b57806361d027b3146110ba5780636742c6bb1461107f578063806094e814610fff5780638456cb5914610f6b57806385bfd47c14610efd5780638c40ac2e14610db057806391d1485414610d3c57806392c2becc14610ce457806395ccea6714610c59578063a217fddf14610c21578063bf8e9176146109eb578063d11a57ec14610993578063d547741f14610931578063d96af54514610852578063df1072ae1461069e578063e157ca58146103e9578063f0f44260146102b15763fce3eba414610187575f80fd5b346102ad5760207ffffffffffffffffffffffffffffffffffffffffffffffffffffffffffffffffc3601126102ad576004355f526004602052602060405f206040516101d281611ed4565b8154815273ffffffffffffffffffffffffffffffffffffffff600183015416838201526002820154604082015273ffffffffffffffffffffffffffffffffffffffff60038301541660608201526004820154608082015260058201549060a0810191825261012060ff6008600686015495828088169760c087019861025681611e5b565b8952831c1661026481611e5b565b60e0860152600781015461010086015201541615159101525142119081610291575b506040519015158152f35b90505161029d81611e5b565b6102a681611e5b565b155f610286565b5f80fd5b346102ad5760207ffffffffffffffffffffffffffffffffffffffffffffffffffffffffffffffffc3601126102ad576102e8611e38565b6102f061203e565b73ffffffffffffffffffffffffffffffffffffffff811690811561038b5761033a73ffffffffffffffffffffffffffffffffffffffff6003541691610334836123b6565b506121db565b50817fffffffffffffffffffffffff000000000000000000000000000000000000000060035416176003557f4ab5be82436d353e61ca18726e984e561f5c1cc7c6d38b29d2553c790434705a5f80a3005b60646040517f08c379a000000000000000000000000000000000000000000000000000000000815260206004820152601860248201527f496e76616c6964207472656173757279206164647265737300000000000000006044820152fd5b346102ad5760207ffffffffffffffffffffffffffffffffffffffffffffffffffffffffffffffffc3601126102ad5760043561042361210c565b61042b612140565b620f42408110610676577f0000000000000000000000000000000000000000000000000000000000000000906040517f70a0823100000000000000000000000000000000000000000000000000000000815233600482015260208160248173ffffffffffffffffffffffffffffffffffffffff87165afa801561066b5782915f91610636575b501061060e57600754907fffffffffffffffffffffffffffffffffffffffffffffffffffffffffffffffff82146105e15760018201600755815f52600460205260405f208281556001810173ffffffffffffffffffffffffffffffffffffffff33167fffffffffffffffffffffffff0000000000000000000000000000000000000000825416179055816002820155426004820155620151804201908142116105e1576020946006826105a894600587950155017fffffffffffffffffffffffffffffffffffffffffffffffffffffffffffff00008154169055335f526006865261059f8560405f20611f5f565b30903390612580565b604051908152817f3831b8873f6bc90e6e48c8f719e8dfb620e1c352df641e46cd402197e9e6075e843393a36001600255604051908152f35b7f4e487b71000000000000000000000000000000000000000000000000000000005f52601160045260245ffd5b7ff4d678b8000000000000000000000000000000000000000000000000000000005f5260045ffd5b9150506020813d602011610663575b8161065260209383611f1e565b810103126102ad57819051846104b1565b3d9150610645565b6040513d5f823e3d90fd5b7f040ef8ec000000000000000000000000000000000000000000000000000000005f5260045ffd5b346102ad5760207ffffffffffffffffffffffffffffffffffffffffffffffffffffffffffffffffc3601126102ad576004356106d861210c565b6106e0612140565b805f52600460205260405f2090600182019173ffffffffffffffffffffffffffffffffffffffff83541692831561082a57600682019182549160ff831661072681611e5b565b6108025760058201544211156107da576107c8600273ffffffffffffffffffffffffffffffffffffffff937f0c4ee53fb482a995019f183f230e87886a81285d5c6778d41baafdebd4876c8b9660057fffffffffffffffffffffffffffffffffffffffffffffffffffffffffffffff006020981617905501968754907f0000000000000000000000000000000000000000000000000000000000000000612177565b54169354604051908152a36001600255005b7fd0404f85000000000000000000000000000000000000000000000000000000005f5260045ffd5b7fa553278d000000000000000000000000000000000000000000000000000000005f5260045ffd5b7f2b7e5c34000000000000000000000000000000000000000000000000000000005f5260045ffd5b346102ad5760207ffffffffffffffffffffffffffffffffffffffffffffffffffffffffffffffffc3601126102ad5773ffffffffffffffffffffffffffffffffffffffff61089e611e38565b165f52600660205260405f20604051806020835491828152019081935f5260205f20905f5b81811061091b57505050816108d9910382611f1e565b604051918291602083019060208452518091526040830191905f5b818110610902575050500390f35b82518452859450602093840193909201916001016108f4565b82548452602090930192600192830192016108c3565b346102ad5760407ffffffffffffffffffffffffffffffffffffffffffffffffffffffffffffffffc3601126102ad5761099160043561096e611e15565b9061098c610987825f525f602052600160405f20015490565b6120a6565b6124b8565b005b346102ad575f7ffffffffffffffffffffffffffffffffffffffffffffffffffffffffffffffffc3601126102ad5760206040517fe1dcbdb91df27212a29bc27177c840cf2f819ecf2187432e1fac86c2dd5dfca98152f35b346102ad5760207ffffffffffffffffffffffffffffffffffffffffffffffffffffffffffffffffc3601126102ad57600435610a2561210c565b610a2d612140565b805f52600460205260405f2073ffffffffffffffffffffffffffffffffffffffff600182015416801561082a57600682019060ff825416610a6d81611e5b565b610802573314610bf957600582015442116107da576040517f70a082310000000000000000000000000000000000000000000000000000000081523360048201527f00000000000000000000000000000000000000000000000000000000000000009160208260248173ffffffffffffffffffffffffffffffffffffffff87165afa91821561066b575f92610bc5575b50600284019182541161060e576003610b98940173ffffffffffffffffffffffffffffffffffffffff33167fffffffffffffffffffffffff000000000000000000000000000000000000000082541617905560017fffffffffffffffffffffffffffffffffffffffffffffffffffffffffffffff00825416179055335f526006602052610b8d8460405f20611f5f565b549030903390612580565b33907fea2a541d8aec9a94feec59f129de64d7d5b9a30636f0bd3b9d5be8337cb6aed25f80a36001600255005b9091506020813d602011610bf1575b81610be160209383611f1e565b810103126102ad57519085610afd565b3d9150610bd4565b7f3dd5aeec000000000000000000000000000000000000000000000000000000005f5260045ffd5b346102ad575f7ffffffffffffffffffffffffffffffffffffffffffffffffffffffffffffffffc3601126102ad5760206040515f8152f35b346102ad5760407ffffffffffffffffffffffffffffffffffffffffffffffffffffffffffffffffc3601126102ad57610c90611e38565b73ffffffffffffffffffffffffffffffffffffffff60243591610cb161203e565b1680610cd857505f80808093818115610ccf575b3390f11561066b57005b506108fc610cc5565b90610991913390612177565b346102ad575f7ffffffffffffffffffffffffffffffffffffffffffffffffffffffffffffffffc3601126102ad5760206040517f25cf2b509f2a7f322675b2a5322b182f44ad2c03ac941a0af17c9b178f5d5d5f8152f35b346102ad5760407ffffffffffffffffffffffffffffffffffffffffffffffffffffffffffffffffc3601126102ad57610d73611e15565b6004355f525f60205273ffffffffffffffffffffffffffffffffffffffff60405f2091165f52602052602060ff60405f2054166040519015158152f35b346102ad5760207ffffffffffffffffffffffffffffffffffffffffffffffffffffffffffffffffc3601126102ad57600435610dea61210c565b610df2612140565b805f52600460205260405f2090600182019173ffffffffffffffffffffffffffffffffffffffff83541692831561082a57833303610ed557600682019182549160ff8316610e3f81611e5b565b610802576107c8600273ffffffffffffffffffffffffffffffffffffffff937f9e830de5cabc9471b77aed8bbe71f9c224b21b89cab4f0f1cf826116684a0b8a9660047fffffffffffffffffffffffffffffffffffffffffffffffffffffffffffffff006020981617905501968754907f0000000000000000000000000000000000000000000000000000000000000000612177565b7f843800fa000000000000000000000000000000000000000000000000000000005f5260045ffd5b346102ad575f7ffffffffffffffffffffffffffffffffffffffffffffffffffffffffffffffffc3601126102ad57602060405173ffffffffffffffffffffffffffffffffffffffff7f0000000000000000000000000000000000000000000000000000000000000000168152f35b346102ad575f7ffffffffffffffffffffffffffffffffffffffffffffffffffffffffffffffffc3601126102ad57610fa161203e565b610fa961210c565b60017fffffffffffffffffffffffffffffffffffffffffffffffffffffffffffffff00815416176001557f62e78cea01bee320cd4e420270b5ea74000d11b0c9f74754ebdbfc544b05a2586020604051338152a1005b346102ad5760407ffffffffffffffffffffffffffffffffffffffffffffffffffffffffffffffffc3601126102ad57611036611e38565b73ffffffffffffffffffffffffffffffffffffffff60243591165f52600660205260405f2080548210156102ad5760209161107091611e92565b90549060031b1c604051908152f35b346102ad575f7ffffffffffffffffffffffffffffffffffffffffffffffffffffffffffffffffc3601126102ad576020604051620151808152f35b346102ad575f7ffffffffffffffffffffffffffffffffffffffffffffffffffffffffffffffffc3601126102ad57602073ffffffffffffffffffffffffffffffffffffffff60035416604051908152f35b346102ad5760207ffffffffffffffffffffffffffffffffffffffffffffffffffffffffffffffffc3601126102ad576004355f526005602052602060405f2054604051908152f35b346102ad575f7ffffffffffffffffffffffffffffffffffffffffffffffffffffffffffffffffc3601126102ad57602060ff600154166040519015158152f35b346102ad5760207ffffffffffffffffffffffffffffffffffffffffffffffffffffffffffffffffc3601126102ad576004356111cd611fb6565b6111d561210c565b805f52600460205260405f2090600182019173ffffffffffffffffffffffffffffffffffffffff83541691821561082a5760068201600160ff82541661121a81611e5b565b0361080257600383019273ffffffffffffffffffffffffffffffffffffffff845416604051957fa6f979ff000000000000000000000000000000000000000000000000000000008752600487015260248601526020856044815f73ffffffffffffffffffffffffffffffffffffffff7f0000000000000000000000000000000000000000000000000000000000000000165af194851561066b575f9561134a575b50602073ffffffffffffffffffffffffffffffffffffffff80829888958660077faa0df669286412e327485c405f9062e6cfebf8f6fe56578278467d7bbda223c39701556101027fffffffffffffffffffffffffffffffffffffffffffffffffffffffffffff0000825416179055855f52600584528660405f20555416955416604051908152a4604051908152f35b909194506020813d602011611379575b8161136760209383611f1e565b810103126102ad5751939060206112bb565b3d915061135a565b346102ad575f7ffffffffffffffffffffffffffffffffffffffffffffffffffffffffffffffffc3601126102ad576113b761203e565b60015460ff811615611414577fffffffffffffffffffffffffffffffffffffffffffffffffffffffffffffff00166001557f5db9ee0a495bf2e6ff9c91a7834c1ba4fdd244a5e8aa4e537bd38aeae4b073aa6020604051338152a1005b7f8dfc202b000000000000000000000000000000000000000000000000000000005f5260045ffd5b346102ad5760407ffffffffffffffffffffffffffffffffffffffffffffffffffffffffffffffffc3601126102ad57611473611e15565b3373ffffffffffffffffffffffffffffffffffffffff82160361149c57610991906004356124b8565b7f6697b232000000000000000000000000000000000000000000000000000000005f5260045ffd5b346102ad5760407ffffffffffffffffffffffffffffffffffffffffffffffffffffffffffffffffc3601126102ad57610991600435611501611e15565b9061151a610987825f525f602052600160405f20015490565b6122e4565b346102ad575f7ffffffffffffffffffffffffffffffffffffffffffffffffffffffffffffffffc3601126102ad576020604051620f42408152f35b346102ad5760207ffffffffffffffffffffffffffffffffffffffffffffffffffffffffffffffffc3601126102ad5760206115a26004355f525f602052600160405f20015490565b604051908152f35b346102ad5760207ffffffffffffffffffffffffffffffffffffffffffffffffffffffffffffffffc3601126102ad575f6101206040516115e981611ed4565b8281528260208201528260408201528260608201528260808201528260a08201528260c08201528260e08201528261010082015201526004355f52600460205261014060405f206040519061163d82611ed4565b805482528173ffffffffffffffffffffffffffffffffffffffff600183015416916020820192835260028101546040830190815273ffffffffffffffffffffffffffffffffffffffff6003830154166060840190815260048301546080850190815273ffffffffffffffffffffffffffffffffffffffff60058501549260a087019384526006860154948260ff600881808a169960c08d019a6116df81611e5b565b8b52821c169960e08c019a6116f381611e5b565b8b5261010060078201549c019b8c52015416996101208c019a15158b526040519b518c52511660208b01525160408a0152511660608801525160808701525160a08601525161174181611e5b565b60c08501525161175081611e5b565b60e084015251610100830152511515610120820152f35b346102ad5760207ffffffffffffffffffffffffffffffffffffffffffffffffffffffffffffffffc3601126102ad576004355f52600460205261014060405f2080549073ffffffffffffffffffffffffffffffffffffffff60018201541690600281015473ffffffffffffffffffffffffffffffffffffffff600383015416600483015460058401549060068501549260ff8085169460081c169460ff600860078901549801541697604051998a5260208a015260408901526060880152608087015260a086015261183881611e5b565b60c085015261184681611e5b565b60e08401526101008301521515610120820152f35b346102ad575f7ffffffffffffffffffffffffffffffffffffffffffffffffffffffffffffffffc3601126102ad576020604051600a8152f35b346102ad575f7ffffffffffffffffffffffffffffffffffffffffffffffffffffffffffffffffc3601126102ad57602060405173ffffffffffffffffffffffffffffffffffffffff7f0000000000000000000000000000000000000000000000000000000000000000168152f35b346102ad5760407ffffffffffffffffffffffffffffffffffffffffffffffffffffffffffffffffc3601126102ad5760043561193c611e15565b90611945611fb6565b61194d61210c565b611955612140565b805f52600560205260405f20548015611bd5575f52600460205260405f209160068301805490600260ff831661198a81611e5b565b03610802576008850191825460ff8116611bad576001926104037fffffffffffffffffffffffffffffffffffffffffffffffffffffffffffff00007fffffffffffffffffffffffffffffffffffffffffffffffffffffffffffffff0094161790551617905560028301928354938460011b94808604600214901517156105e157600a8502858104600a14861517156105e15760649004948581039081116105e1578073ffffffffffffffffffffffffffffffffffffffff85169687155f14611ae357505050611aab925073ffffffffffffffffffffffffffffffffffffffff60037f000000000000000000000000000000000000000000000000000000000000000093611aa08360018301541685549087612177565b015416905491612177565b7f219b2d245e1961a92c11db4ce58525469333a81b7e44fe7e214fb8b98f15889a60405f5f5b82519182526020820152a36001600255005b919390925073ffffffffffffffffffffffffffffffffffffffff6001820154168714908115611b89575b5015610ed557611b846040937f219b2d245e1961a92c11db4ce58525469333a81b7e44fe7e214fb8b98f15889a957f0000000000000000000000000000000000000000000000000000000000000000611b7f8573ffffffffffffffffffffffffffffffffffffffff6003541683612177565b612177565b611ad1565b73ffffffffffffffffffffffffffffffffffffffff91506003015416861487611b0d565b7f6d5703c2000000000000000000000000000000000000000000000000000000005f5260045ffd5b7f26cf189c000000000000000000000000000000000000000000000000000000005f5260045ffd5b346102ad5760207ffffffffffffffffffffffffffffffffffffffffffffffffffffffffffffffffc3601126102ad575f5f6004355f52600560205260405f20549081611c5b575b606092604051928352602083015215156040820152f35b508091505f52600460205260405f2090604051611c7781611ed4565b8254815273ffffffffffffffffffffffffffffffffffffffff60018401541660208201526002830154906040810191825273ffffffffffffffffffffffffffffffffffffffff600385015416606082015260048401546080820152600584015460a082015261012060ff6008600687015496828089169860c0870199611cfc81611e5b565b8a52831c16611d0a81611e5b565b60e08601526007810154610100860152015416151591015251918260011b92808404600214901517156105e15760036060939151611d4781611e5b565b611d5081611e5b565b14909250611c44565b346102ad5760207ffffffffffffffffffffffffffffffffffffffffffffffffffffffffffffffffc3601126102ad57600435907fffffffff0000000000000000000000000000000000000000000000000000000082168092036102ad57817f7965db0b0000000000000000000000000000000000000000000000000000000060209314908115611deb575b5015158152f35b7f01ffc9a70000000000000000000000000000000000000000000000000000000091501483611de4565b6024359073ffffffffffffffffffffffffffffffffffffffff821682036102ad57565b6004359073ffffffffffffffffffffffffffffffffffffffff821682036102ad57565b60061115611e6557565b7f4e487b71000000000000000000000000000000000000000000000000000000005f52602160045260245ffd5b8054821015611ea7575f5260205f2001905f90565b7f4e487b71000000000000000000000000000000000000000000000000000000005f52603260045260245ffd5b610140810190811067ffffffffffffffff821117611ef157604052565b7f4e487b71000000000000000000000000000000000000000000000000000000005f52604160045260245ffd5b90601f7fffffffffffffffffffffffffffffffffffffffffffffffffffffffffffffffe0910116810190811067ffffffffffffffff821117611ef157604052565b805468010000000000000000811015611ef157611f8191600182018155611e92565b7fffffffffffffffffffffffffffffffffffffffffffffffffffffffffffffffff829392549160031b92831b921b1916179055565b335f9081527f48c7bdbf6e737fbd4f28e9ac2ee21ca1cecfc20cb008a302f41dcc98ef949678602052604090205460ff1615611fee57565b7fe2517d3f000000000000000000000000000000000000000000000000000000005f52336004527f25cf2b509f2a7f322675b2a5322b182f44ad2c03ac941a0af17c9b178f5d5d5f60245260445ffd5b335f9081527fad3228b676f7d3cd4284a5443f17f1962b36e491b30a40b2405849e597ba5fb5602052604090205460ff161561207657565b7fe2517d3f000000000000000000000000000000000000000000000000000000005f52336004525f60245260445ffd5b805f525f60205260405f2073ffffffffffffffffffffffffffffffffffffffff33165f5260205260ff60405f205416156120dd5750565b7fe2517d3f000000000000000000000000000000000000000000000000000000005f523360045260245260445ffd5b60ff6001541661211857565b7fd93c0665000000000000000000000000000000000000000000000000000000005f5260045ffd5b600280541461214f5760028055565b7f3ee5aeb5000000000000000000000000000000000000000000000000000000005f5260045ffd5b6121d99273ffffffffffffffffffffffffffffffffffffffff604051937fa9059cbb0000000000000000000000000000000000000000000000000000000060208601521660248401526044830152604482526121d4606483611f1e565b6125e7565b565b73ffffffffffffffffffffffffffffffffffffffff81165f9081527f9e5c930214a7bc8a78d251e617445bcdba028aed2ede5828cc6cd6c8261656f5602052604090205460ff166122df5773ffffffffffffffffffffffffffffffffffffffff165f8181527f9e5c930214a7bc8a78d251e617445bcdba028aed2ede5828cc6cd6c8261656f56020526040812080547fffffffffffffffffffffffffffffffffffffffffffffffffffffffffffffff001660011790553391907fe1dcbdb91df27212a29bc27177c840cf2f819ecf2187432e1fac86c2dd5dfca9907f2f8788117e7eff1d82e926ec794901d17c78024a50270940304540a733656f0d9080a4600190565b505f90565b805f525f60205260405f2073ffffffffffffffffffffffffffffffffffffffff83165f5260205260ff60405f205416155f146123b057805f525f60205260405f2073ffffffffffffffffffffffffffffffffffffffff83165f5260205260405f2060017fffffffffffffffffffffffffffffffffffffffffffffffffffffffffffffff0082541617905573ffffffffffffffffffffffffffffffffffffffff339216907f2f8788117e7eff1d82e926ec794901d17c78024a50270940304540a733656f0d5f80a4600190565b50505f90565b73ffffffffffffffffffffffffffffffffffffffff81165f9081527f9e5c930214a7bc8a78d251e617445bcdba028aed2ede5828cc6cd6c8261656f5602052604090205460ff16156122df5773ffffffffffffffffffffffffffffffffffffffff165f8181527f9e5c930214a7bc8a78d251e617445bcdba028aed2ede5828cc6cd6c8261656f56020526040812080547fffffffffffffffffffffffffffffffffffffffffffffffffffffffffffffff001690553391907fe1dcbdb91df27212a29bc27177c840cf2f819ecf2187432e1fac86c2dd5dfca9907ff6391f5c32d9c69d2a47ea670b442974b53935d1edc7fd64eb21e047a839171b9080a4600190565b805f525f60205260405f2073ffffffffffffffffffffffffffffffffffffffff83165f5260205260ff60405f2054165f146123b057805f525f60205260405f2073ffffffffffffffffffffffffffffffffffffffff83165f5260205260405f207fffffffffffffffffffffffffffffffffffffffffffffffffffffffffffffff00815416905573ffffffffffffffffffffffffffffffffffffffff339216907ff6391f5c32d9c69d2a47ea670b442974b53935d1edc7fd64eb21e047a839171b5f80a4600190565b90919273ffffffffffffffffffffffffffffffffffffffff6121d99481604051957f23b872dd0000000000000000000000000000000000000000000000000000000060208801521660248601521660448401526064830152606482526121d4608483611f1e565b905f602091828151910182855af11561066b575f513d612665575073ffffffffffffffffffffffffffffffffffffffff81163b155b6126235750565b73ffffffffffffffffffffffffffffffffffffffff907f5274afe7000000000000000000000000000000000000000000000000000000005f521660045260245ffd5b6001141561261c562f8788117e7eff1d82e926ec794901d17c78024a50270940304540a733656f0d48c7bdbf6e737fbd4f28e9ac2ee21ca1cecfc20cb008a302f41dcc98ef9496789e5c930214a7bc8a78d251e617445bcdba028aed2ede5828cc6cd6c8261656f5ad3228b676f7d3cd4284a5443f17f1962b36e491b30a40b2405849e597ba5fb5","linkReferences":{}},"methodIdentifiers":{"BACKEND_ROLE()":"92c2becc","DEFAULT_ADMIN_ROLE()":"a217fddf","INVITE_TIMEOUT()":"6742c6bb","MIN_STAKE_AMOUNT()":"27ed7188","PLATFORM_FEE_PERCENTAGE()":"15548232","TREASURY_ROLE()":"d11a57ec","acceptInvite(uint256)":"bf8e9176","bettingInvites(uint256)":"1afb485e","cancelInvite(uint256)":"8c40ac2e","createGame(uint256)":"48e837b9","createInvite(uint256)":"e157ca58","emergencyWithdraw(address,uint256)":"95ccea67","gameFactory()":"85bfd47c","gameIdToBettingInvite(uint256)":"60d20b83","getBettingInvite(uint256)":"22b1eabd","getGameBettingInfo(uint256)":"06528e94","getPlayerInvites(address)":"d96af545","getRoleAdmin(bytes32)":"248a9ca3","grantRole(bytes32,address)":"2f2ff15d","handleExpiredInvite(uint256)":"df1072ae","hasRole(bytes32,address)":"91d14854","isInviteExpired(uint256)":"fce3eba4","pause()":"8456cb59","paused()":"5c975abb","playerInvites(address,uint256)":"806094e8","renounceRole(bytes32,address)":"36568abe","resolveGame(uint256,address)":"11ca230b","revokeRole(bytes32,address)":"d547741f","setTreasury(address)":"f0f44260","supportsInterface(bytes4)":"01ffc9a7","treasury()":"61d027b3","unpause()":"3f4ba83a","usdcToken()":"11eac855"},"id":51}