{
    "abi": [
        {
            "type": "constructor",
            "inputs": [],
            "stateMutability": "nonpayable"
        },
        {
            "type": "function",
            "name": "BACKEND_ROLE",
            "inputs": [],
            "outputs": [
                {
                    "name": "",
                    "type": "bytes32",
                    "internalType": "bytes32"
                }
            ],
            "stateMutability": "view"
        },
        {
            "type": "function",
            "name": "DEFAULT_ADMIN_ROLE",
            "inputs": [],
            "outputs": [
                {
                    "name": "",
                    "type": "bytes32",
                    "internalType": "bytes32"
                }
            ],
            "stateMutability": "view"
        },
        {
            "type": "function",
            "name": "FACTORY_ROLE",
            "inputs": [],
            "outputs": [
                {
                    "name": "",
                    "type": "bytes32",
                    "internalType": "bytes32"
                }
            ],
            "stateMutability": "view"
        },
        {
            "type": "function",
            "name": "UPGRADE_INTERFACE_VERSION",
            "inputs": [],
            "outputs": [
                {
                    "name": "",
                    "type": "string",
                    "internalType": "string"
                }
            ],
            "stateMutability": "view"
        },
        {
            "type": "function",
            "name": "VERSION",
            "inputs": [],
            "outputs": [
                {
                    "name": "",
                    "type": "string",
                    "internalType": "string"
                }
            ],
            "stateMutability": "view"
        },
        {
            "type": "function",
            "name": "backend",
            "inputs": [],
            "outputs": [
                {
                    "name": "",
                    "type": "address",
                    "internalType": "address"
                }
            ],
            "stateMutability": "view"
        },
        {
            "type": "function",
            "name": "cancelGame",
            "inputs": [],
            "outputs": [],
            "stateMutability": "nonpayable"
        },
        {
            "type": "function",
            "name": "createdAt",
            "inputs": [],
            "outputs": [
                {
                    "name": "",
                    "type": "uint256",
                    "internalType": "uint256"
                }
            ],
            "stateMutability": "view"
        },
        {
            "type": "function",
            "name": "factory",
            "inputs": [],
            "outputs": [
                {
                    "name": "",
                    "type": "address",
                    "internalType": "address"
                }
            ],
            "stateMutability": "view"
        },
        {
            "type": "function",
            "name": "gameId",
            "inputs": [],
            "outputs": [
                {
                    "name": "",
                    "type": "uint256",
                    "internalType": "uint256"
                }
            ],
            "stateMutability": "view"
        },
        {
            "type": "function",
            "name": "gameResult",
            "inputs": [],
            "outputs": [
                {
                    "name": "winner",
                    "type": "address",
                    "internalType": "address"
                },
                {
                    "name": "startTime",
                    "type": "uint256",
                    "internalType": "uint256"
                },
                {
                    "name": "endTime",
                    "type": "uint256",
                    "internalType": "uint256"
                },
                {
                    "name": "totalShots",
                    "type": "uint256",
                    "internalType": "uint256"
                },
                {
                    "name": "endReason",
                    "type": "string",
                    "internalType": "string"
                }
            ],
            "stateMutability": "view"
        },
        {
            "type": "function",
            "name": "getGameDuration",
            "inputs": [],
            "outputs": [
                {
                    "name": "duration",
                    "type": "uint256",
                    "internalType": "uint256"
                }
            ],
            "stateMutability": "view"
        },
        {
            "type": "function",
            "name": "getGameInfo",
            "inputs": [],
            "outputs": [
                {
                    "name": "gameId",
                    "type": "uint256",
                    "internalType": "uint256"
                },
                {
                    "name": "player1",
                    "type": "address",
                    "internalType": "address"
                },
                {
                    "name": "player2",
                    "type": "address",
                    "internalType": "address"
                },
                {
                    "name": "state",
                    "type": "uint8",
                    "internalType": "enum BattleshipGameImplementation.GameState"
                },
                {
                    "name": "createdAt",
                    "type": "uint256",
                    "internalType": "uint256"
                },
                {
                    "name": "gameResult",
                    "type": "tuple",
                    "internalType": "struct BattleshipGameImplementation.GameResult",
                    "components": [
                        {
                            "name": "winner",
                            "type": "address",
                            "internalType": "address"
                        },
                        {
                            "name": "startTime",
                            "type": "uint256",
                            "internalType": "uint256"
                        },
                        {
                            "name": "endTime",
                            "type": "uint256",
                            "internalType": "uint256"
                        },
                        {
                            "name": "totalShots",
                            "type": "uint256",
                            "internalType": "uint256"
                        },
                        {
                            "name": "endReason",
                            "type": "string",
                            "internalType": "string"
                        }
                    ]
                }
            ],
            "stateMutability": "view"
        },
        {
            "type": "function",
            "name": "getRoleAdmin",
            "inputs": [
                {
                    "name": "role",
                    "type": "bytes32",
                    "internalType": "bytes32"
                }
            ],
            "outputs": [
                {
                    "name": "",
                    "type": "bytes32",
                    "internalType": "bytes32"
                }
            ],
            "stateMutability": "view"
        },
        {
            "type": "function",
            "name": "grantRole",
            "inputs": [
                {
                    "name": "role",
                    "type": "bytes32",
                    "internalType": "bytes32"
                },
                {
                    "name": "account",
                    "type": "address",
                    "internalType": "address"
                }
            ],
            "outputs": [],
            "stateMutability": "nonpayable"
        },
        {
            "type": "function",
            "name": "hasRole",
            "inputs": [
                {
                    "name": "role",
                    "type": "bytes32",
                    "internalType": "bytes32"
                },
                {
                    "name": "account",
                    "type": "address",
                    "internalType": "address"
                }
            ],
            "outputs": [
                {
                    "name": "",
                    "type": "bool",
                    "internalType": "bool"
                }
            ],
            "stateMutability": "view"
        },
        {
            "type": "function",
            "name": "initialize",
            "inputs": [
                {
                    "name": "_gameId",
                    "type": "uint256",
                    "internalType": "uint256"
                },
                {
                    "name": "_player1",
                    "type": "address",
                    "internalType": "address"
                },
                {
                    "name": "_player2",
                    "type": "address",
                    "internalType": "address"
                },
                {
                    "name": "_factory",
                    "type": "address",
                    "internalType": "address"
                },
                {
                    "name": "_backend",
                    "type": "address",
                    "internalType": "address"
                }
            ],
            "outputs": [],
            "stateMutability": "nonpayable"
        },
        {
            "type": "function",
            "name": "isPlayer",
            "inputs": [
                {
                    "name": "player",
                    "type": "address",
                    "internalType": "address"
                }
            ],
            "outputs": [
                {
                    "name": "participated",
                    "type": "bool",
                    "internalType": "bool"
                }
            ],
            "stateMutability": "view"
        },
        {
            "type": "function",
            "name": "pause",
            "inputs": [],
            "outputs": [],
            "stateMutability": "nonpayable"
        },
        {
            "type": "function",
            "name": "paused",
            "inputs": [],
            "outputs": [
                {
                    "name": "",
                    "type": "bool",
                    "internalType": "bool"
                }
            ],
            "stateMutability": "view"
        },
        {
            "type": "function",
            "name": "player1",
            "inputs": [],
            "outputs": [
                {
                    "name": "",
                    "type": "address",
                    "internalType": "address"
                }
            ],
            "stateMutability": "view"
        },
        {
            "type": "function",
            "name": "player2",
            "inputs": [],
            "outputs": [
                {
                    "name": "",
                    "type": "address",
                    "internalType": "address"
                }
            ],
            "stateMutability": "view"
        },
        {
            "type": "function",
            "name": "proxiableUUID",
            "inputs": [],
            "outputs": [
                {
                    "name": "",
                    "type": "bytes32",
                    "internalType": "bytes32"
                }
            ],
            "stateMutability": "view"
        },
        {
            "type": "function",
            "name": "renounceRole",
            "inputs": [
                {
                    "name": "role",
                    "type": "bytes32",
                    "internalType": "bytes32"
                },
                {
                    "name": "callerConfirmation",
                    "type": "address",
                    "internalType": "address"
                }
            ],
            "outputs": [],
            "stateMutability": "nonpayable"
        },
        {
            "type": "function",
            "name": "revokeRole",
            "inputs": [
                {
                    "name": "role",
                    "type": "bytes32",
                    "internalType": "bytes32"
                },
                {
                    "name": "account",
                    "type": "address",
                    "internalType": "address"
                }
            ],
            "outputs": [],
            "stateMutability": "nonpayable"
        },
        {
            "type": "function",
            "name": "startGame",
            "inputs": [],
            "outputs": [],
            "stateMutability": "nonpayable"
        },
        {
            "type": "function",
            "name": "state",
            "inputs": [],
            "outputs": [
                {
                    "name": "",
                    "type": "uint8",
                    "internalType": "enum BattleshipGameImplementation.GameState"
                }
            ],
            "stateMutability": "view"
        },
        {
            "type": "function",
            "name": "submitGameResult",
            "inputs": [
                {
                    "name": "winner",
                    "type": "address",
                    "internalType": "address"
                },
                {
                    "name": "totalShots",
                    "type": "uint256",
                    "internalType": "uint256"
                },
                {
                    "name": "endReason",
                    "type": "string",
                    "internalType": "string"
                }
            ],
            "outputs": [],
            "stateMutability": "nonpayable"
        },
        {
            "type": "function",
            "name": "supportsInterface",
            "inputs": [
                {
                    "name": "interfaceId",
                    "type": "bytes4",
                    "internalType": "bytes4"
                }
            ],
            "outputs": [
                {
                    "name": "",
                    "type": "bool",
                    "internalType": "bool"
                }
            ],
            "stateMutability": "view"
        },
        {
            "type": "function",
            "name": "unpause",
            "inputs": [],
            "outputs": [],
            "stateMutability": "nonpayable"
        },
        {
            "type": "function",
            "name": "updateBackend",
            "inputs": [
                {
                    "name": "newBackend",
                    "type": "address",
                    "internalType": "address"
                }
            ],
            "outputs": [],
            "stateMutability": "nonpayable"
        },
        {
            "type": "function",
            "name": "upgradeToAndCall",
            "inputs": [
                {
                    "name": "newImplementation",
                    "type": "address",
                    "internalType": "address"
                },
                {
                    "name": "data",
                    "type": "bytes",
                    "internalType": "bytes"
                }
            ],
            "outputs": [],
            "stateMutability": "payable"
        },
        {
            "type": "event",
            "name": "BackendUpdated",
            "inputs": [
                {
                    "name": "oldBackend",
                    "type": "address",
                    "indexed": true,
                    "internalType": "address"
                },
                {
                    "name": "newBackend",
                    "type": "address",
                    "indexed": true,
                    "internalType": "address"
                }
            ],
            "anonymous": false
        },
        {
            "type": "event",
            "name": "GameCancelled",
            "inputs": [
                {
                    "name": "gameId",
                    "type": "uint256",
                    "indexed": true,
                    "internalType": "uint256"
                }
            ],
            "anonymous": false
        },
        {
            "type": "event",
            "name": "GameCompleted",
            "inputs": [
                {
                    "name": "gameId",
                    "type": "uint256",
                    "indexed": true,
                    "internalType": "uint256"
                },
                {
                    "name": "winner",
                    "type": "address",
                    "indexed": true,
                    "internalType": "address"
                },
                {
                    "name": "endTime",
                    "type": "uint256",
                    "indexed": false,
                    "internalType": "uint256"
                },
                {
                    "name": "totalShots",
                    "type": "uint256",
                    "indexed": false,
                    "internalType": "uint256"
                },
                {
                    "name": "endReason",
                    "type": "string",
                    "indexed": false,
                    "internalType": "string"
                }
            ],
            "anonymous": false
        },
        {
            "type": "event",
            "name": "GameStarted",
            "inputs": [
                {
                    "name": "gameId",
                    "type": "uint256",
                    "indexed": true,
                    "internalType": "uint256"
                },
                {
                    "name": "startTime",
                    "type": "uint256",
                    "indexed": false,
                    "internalType": "uint256"
                }
            ],
            "anonymous": false
        },
        {
            "type": "event",
            "name": "Initialized",
            "inputs": [
                {
                    "name": "version",
                    "type": "uint64",
                    "indexed": false,
                    "internalType": "uint64"
                }
            ],
            "anonymous": false
        },
        {
            "type": "event",
            "name": "Paused",
            "inputs": [
                {
                    "name": "account",
                    "type": "address",
                    "indexed": false,
                    "internalType": "address"
                }
            ],
            "anonymous": false
        },
        {
            "type": "event",
            "name": "RoleAdminChanged",
            "inputs": [
                {
                    "name": "role",
                    "type": "bytes32",
                    "indexed": true,
                    "internalType": "bytes32"
                },
                {
                    "name": "previousAdminRole",
                    "type": "bytes32",
                    "indexed": true,
                    "internalType": "bytes32"
                },
                {
                    "name": "newAdminRole",
                    "type": "bytes32",
                    "indexed": true,
                    "internalType": "bytes32"
                }
            ],
            "anonymous": false
        },
        {
            "type": "event",
            "name": "RoleGranted",
            "inputs": [
                {
                    "name": "role",
                    "type": "bytes32",
                    "indexed": true,
                    "internalType": "bytes32"
                },
                {
                    "name": "account",
                    "type": "address",
                    "indexed": true,
                    "internalType": "address"
                },
                {
                    "name": "sender",
                    "type": "address",
                    "indexed": true,
                    "internalType": "address"
                }
            ],
            "anonymous": false
        },
        {
            "type": "event",
            "name": "RoleRevoked",
            "inputs": [
                {
                    "name": "role",
                    "type": "bytes32",
                    "indexed": true,
                    "internalType": "bytes32"
                },
                {
                    "name": "account",
                    "type": "address",
                    "indexed": true,
                    "internalType": "address"
                },
                {
                    "name": "sender",
                    "type": "address",
                    "indexed": true,
                    "internalType": "address"
                }
            ],
            "anonymous": false
        },
        {
            "type": "event",
            "name": "Unpaused",
            "inputs": [
                {
                    "name": "account",
                    "type": "address",
                    "indexed": false,
                    "internalType": "address"
                }
            ],
            "anonymous": false
        },
        {
            "type": "event",
            "name": "Upgraded",
            "inputs": [
                {
                    "name": "implementation",
                    "type": "address",
                    "indexed": true,
                    "internalType": "address"
                }
            ],
            "anonymous": false
        },
        {
            "type": "error",
            "name": "AccessControlBadConfirmation",
            "inputs": []
        },
        {
            "type": "error",
            "name": "AccessControlUnauthorizedAccount",
            "inputs": [
                {
                    "name": "account",
                    "type": "address",
                    "internalType": "address"
                },
                {
                    "name": "neededRole",
                    "type": "bytes32",
                    "internalType": "bytes32"
                }
            ]
        },
        {
            "type": "error",
            "name": "AddressEmptyCode",
            "inputs": [
                {
                    "name": "target",
                    "type": "address",
                    "internalType": "address"
                }
            ]
        },
        {
            "type": "error",
            "name": "ERC1967InvalidImplementation",
            "inputs": [
                {
                    "name": "implementation",
                    "type": "address",
                    "internalType": "address"
                }
            ]
        },
        {
            "type": "error",
            "name": "ERC1967NonPayable",
            "inputs": []
        },
        {
            "type": "error",
            "name": "EnforcedPause",
            "inputs": []
        },
        {
            "type": "error",
            "name": "ExpectedPause",
            "inputs": []
        },
        {
            "type": "error",
            "name": "FailedCall",
            "inputs": []
        },
        {
            "type": "error",
            "name": "GameAlreadyCompleted",
            "inputs": []
        },
        {
            "type": "error",
            "name": "InvalidGameState",
            "inputs": []
        },
        {
            "type": "error",
            "name": "InvalidInitialization",
            "inputs": []
        },
        {
            "type": "error",
            "name": "InvalidPlayer",
            "inputs": []
        },
        {
            "type": "error",
            "name": "NotBackend",
            "inputs": []
        },
        {
            "type": "error",
            "name": "NotInitializing",
            "inputs": []
        },
        {
            "type": "error",
            "name": "UUPSUnauthorizedCallContext",
            "inputs": []
        },
        {
            "type": "error",
            "name": "UUPSUnsupportedProxiableUUID",
            "inputs": [
                {
                    "name": "slot",
                    "type": "bytes32",
                    "internalType": "bytes32"
                }
            ]
        }
    ],
    "bytecode": {
        "object": "0x60a080604052346100c257306080525f5160206127f05f395f51905f525460ff8160401c166100b3576002600160401b03196001600160401b03821601610060575b60405161272990816100c7823960805181818161105e01526111500152f35b6001600160401b0319166001600160401b039081175f5160206127f05f395f51905f525581527fc7f505b2f371ae2175ee4913f4499e1f2633a7b5936321eed1cdaeb6115181d290602090a15f80610041565b63f92ee8a960e01b5f5260045ffd5b5f80fdfe6080806040526004361015610012575f80fd5b5f3560e01c90816301ffc9a714611c1a5750806304a0fb1714611bc2578063099e413314611b7157806309c95e1014611ae45780631746bd1b14611a06578063248a9ca31461199e5780632f2ff15d146119235780633641e0831461158e57806336568abe146115065780633f4ba83a1461140d5780634f1ef286146110d657806352d1902d1461101957806359a5f12d14610fc85780635c975abb14610f695780637152f80014610e0c57806378e9ae6014610dcc5780638456cb5914610cd057806391d1485414610c3c57806392c2becc14610be4578063a217fddf14610bac578063ad3cb1cc14610b2f578063c0ed969a14610a6f578063c19d93fb14610a25578063c45a0155146109d4578063cf09e0d014610999578063d30895e414610948578063d547741f146108c6578063d65ab5f214610809578063d7c81b55146107cf578063d84c1ac91461065d578063e91a92af146102015763ffa1ad741461017c575f80fd5b346101fd575f7ffffffffffffffffffffffffffffffffffffffffffffffffffffffffffffffffc3601126101fd576101f96040516101bb604082611d5f565b600581527f322e302e300000000000000000000000000000000000000000000000000000006020820152604051918291602083526020830190611d1c565b0390f35b5f80fd5b346101fd5760607ffffffffffffffffffffffffffffffffffffffffffffffffffffffffffffffffc3601126101fd57610238611cd6565b60243560443567ffffffffffffffff81116101fd57366023820112156101fd5761026c903690602481600401359101611dda565b91610275611f25565b60ff60045460a01c166004811015610630576001036106085773ffffffffffffffffffffffffffffffffffffffff1691821515806105e6575b806105c4575b61059c57827fffffffffffffffffffffffff000000000000000000000000000000000000000060065416176006554260085581600955805167ffffffffffffffff811161056f57610306600a54611e10565b601f81116104ce575b506020601f82116001146103ef5790807fdc18fff784c88d9b3344cf8855847b2a0923dc4828d11479cd71fde13ae0231093925f916103e4575b507fffffffffffffffffffffffffffffffffffffffffffffffffffffffffffffffff8260011b9260031b1c191617600a555b740200000000000000000000000000000000000000007fffffffffffffffffffffff00ffffffffffffffffffffffffffffffffffffffff60045416176004555f54926103df6040519283924284526020840152606060408401526060830190611d1c565b0390a3005b905082015186610349565b7fffffffffffffffffffffffffffffffffffffffffffffffffffffffffffffffe0821690600a5f527fc65a7bb8d6351c1cf70c95a316cc6a92839c986682d98bc35f958f4883f9d2a8915f5b8181106104b657509183917fdc18fff784c88d9b3344cf8855847b2a0923dc4828d11479cd71fde13ae0231095946001941061047f575b5050811b01600a5561037b565b8401517fffffffffffffffffffffffffffffffffffffffffffffffffffffffffffffffff60f88460031b161c191690558680610472565b9192602060018192868901518155019401920161043b565b600a5f52601f820160051c7fc65a7bb8d6351c1cf70c95a316cc6a92839c986682d98bc35f958f4883f9d2a8019060208310610547575b601f0160051c7fc65a7bb8d6351c1cf70c95a316cc6a92839c986682d98bc35f958f4883f9d2a801905b81811061053c575061030f565b5f815560010161052f565b7fc65a7bb8d6351c1cf70c95a316cc6a92839c986682d98bc35f958f4883f9d2a89150610505565b7f4e487b71000000000000000000000000000000000000000000000000000000005f52604160045260245ffd5b7f0e8a471c000000000000000000000000000000000000000000000000000000005f5260045ffd5b5073ffffffffffffffffffffffffffffffffffffffff600354168314156102b4565b5073ffffffffffffffffffffffffffffffffffffffff600254168314156102ae565b7fc25865ef000000000000000000000000000000000000000000000000000000005f5260045ffd5b7f4e487b71000000000000000000000000000000000000000000000000000000005f52602160045260245ffd5b346101fd575f7ffffffffffffffffffffffffffffffffffffffffffffffffffffffffffffffffc3601126101fd57335f9081527fae397ad4942fd55c39428db5ea3ac85cc8592b20d92437b6ec53a8b6ff39d42d602052604090205460ff161580610797575b61076f5760ff60045460a01c1660048110156106305760021461074757740300000000000000000000000000000000000000007fffffffffffffffffffffff00ffffffffffffffffffffffffffffffffffffffff60045416176004555f547f681705fdbd93dba3b679fd712577e9a86d57c5551c520f8c74857deb57f9623f5f80a2005b7f12da2089000000000000000000000000000000000000000000000000000000005f5260045ffd5b7fa31c3dd0000000000000000000000000000000000000000000000000000000005f5260045ffd5b50335f9081527f8711c7ad2010465760ca2187c05c4a2975c1f6b1029f45463cc126ae48775140602052604090205460ff16156106c3565b346101fd575f7ffffffffffffffffffffffffffffffffffffffffffffffffffffffffffffffffc3601126101fd5760205f54604051908152f35b346101fd575f7ffffffffffffffffffffffffffffffffffffffffffffffffffffffffffffffffc3601126101fd5761083f611f25565b60ff60045460a01c1660048110156106305761060857740100000000000000000000000000000000000000007fffffffffffffffffffffff00ffffffffffffffffffffffffffffffffffffffff6004541617600455426007555f547fa2dfaa3573b86004ec9d4d4abe5068d942579c59da4da8cd0d9e45e71a393bc16020604051428152a2005b346101fd5760407ffffffffffffffffffffffffffffffffffffffffffffffffffffffffffffffffc3601126101fd57610946600435610903611cf9565b9061094161093c825f527f02dd7bc7dec4dceedda775e58dd541e08a116c6c53815c0bd028192f7b626800602052600160405f20015490565b611fad565b612531565b005b346101fd575f7ffffffffffffffffffffffffffffffffffffffffffffffffffffffffffffffffc3601126101fd57602073ffffffffffffffffffffffffffffffffffffffff60025416604051908152f35b346101fd575f7ffffffffffffffffffffffffffffffffffffffffffffffffffffffffffffffffc3601126101fd576020600554604051908152f35b346101fd575f7ffffffffffffffffffffffffffffffffffffffffffffffffffffffffffffffffc3601126101fd57602073ffffffffffffffffffffffffffffffffffffffff60015416604051908152f35b346101fd575f7ffffffffffffffffffffffffffffffffffffffffffffffffffffffffffffffffc3601126101fd5760ff60045460a01c166040516004821015610630576020918152f35b346101fd5760207ffffffffffffffffffffffffffffffffffffffffffffffffffffffffffffffffc3601126101fd57610aa6611cd6565b610aae611ebd565b73ffffffffffffffffffffffffffffffffffffffff806004541691610ad28361242f565b50610adc81612219565b501690817fffffffffffffffffffffffff000000000000000000000000000000000000000060045416176004557f37f6c561371bb449a598aaf7e5528fc87ad233e82669756cd67fec9c5f665a7b5f80a3005b346101fd575f7ffffffffffffffffffffffffffffffffffffffffffffffffffffffffffffffffc3601126101fd576101f9604051610b6e604082611d5f565b600581527f352e302e300000000000000000000000000000000000000000000000000000006020820152604051918291602083526020830190611d1c565b346101fd575f7ffffffffffffffffffffffffffffffffffffffffffffffffffffffffffffffffc3601126101fd5760206040515f8152f35b346101fd575f7ffffffffffffffffffffffffffffffffffffffffffffffffffffffffffffffffc3601126101fd5760206040517f25cf2b509f2a7f322675b2a5322b182f44ad2c03ac941a0af17c9b178f5d5d5f8152f35b346101fd5760407ffffffffffffffffffffffffffffffffffffffffffffffffffffffffffffffffc3601126101fd57610c73611cf9565b6004355f527f02dd7bc7dec4dceedda775e58dd541e08a116c6c53815c0bd028192f7b62680060205273ffffffffffffffffffffffffffffffffffffffff60405f2091165f52602052602060ff60405f2054166040519015158152f35b346101fd575f7ffffffffffffffffffffffffffffffffffffffffffffffffffffffffffffffffc3601126101fd57610d06611ebd565b7fcd5ed15c6e187e77e9aee88184c21f4f2182ab5827cb3b7e07fbedcd63f033005460ff8116610da4577fffffffffffffffffffffffffffffffffffffffffffffffffffffffffffffff0060019116177fcd5ed15c6e187e77e9aee88184c21f4f2182ab5827cb3b7e07fbedcd63f03300557f62e78cea01bee320cd4e420270b5ea74000d11b0c9f74754ebdbfc544b05a2586020604051338152a1005b7fd93c0665000000000000000000000000000000000000000000000000000000005f5260045ffd5b346101fd575f7ffffffffffffffffffffffffffffffffffffffffffffffffffffffffffffffffc3601126101fd576020610e04611e61565b604051908152f35b346101fd575f7ffffffffffffffffffffffffffffffffffffffffffffffffffffffffffffffffc3601126101fd5773ffffffffffffffffffffffffffffffffffffffff6006541660075490600854600954604051915f600a54610e6e81611e10565b8086529060018116908115610f275750600114610ec1575b5090610e99846101f99594930384611d5f565b604051958695865260208601526040850152606084015260a0608084015260a0830190611d1c565b9392919050600a5f527fc65a7bb8d6351c1cf70c95a316cc6a92839c986682d98bc35f958f4883f9d2a8935f905b808210610f09575092935090918301602001610e99610e86565b919293946001816020925483858a0101520191019094939291610eef565b7fffffffffffffffffffffffffffffffffffffffffffffffffffffffffffffff001660208088019190915291151560051b86019091019150610e999050610e86565b346101fd575f7ffffffffffffffffffffffffffffffffffffffffffffffffffffffffffffffffc3601126101fd57602060ff7fcd5ed15c6e187e77e9aee88184c21f4f2182ab5827cb3b7e07fbedcd63f0330054166040519015158152f35b346101fd575f7ffffffffffffffffffffffffffffffffffffffffffffffffffffffffffffffffc3601126101fd57602073ffffffffffffffffffffffffffffffffffffffff60035416604051908152f35b346101fd575f7ffffffffffffffffffffffffffffffffffffffffffffffffffffffffffffffffc3601126101fd5773ffffffffffffffffffffffffffffffffffffffff7f00000000000000000000000000000000000000000000000000000000000000001630036110ae5760206040517f360894a13ba1a3210667c828492db98dca3e2076cc3735a920a3ca505d382bbc8152f35b7fe07c8dba000000000000000000000000000000000000000000000000000000005f5260045ffd5b60407ffffffffffffffffffffffffffffffffffffffffffffffffffffffffffffffffc3601126101fd57611108611cd6565b60243567ffffffffffffffff81116101fd57366023820112156101fd57611139903690602481600401359101611dda565b73ffffffffffffffffffffffffffffffffffffffff7f0000000000000000000000000000000000000000000000000000000000000000168030149081156113cb575b506110ae57611188611ebd565b73ffffffffffffffffffffffffffffffffffffffff8216916040517f52d1902d000000000000000000000000000000000000000000000000000000008152602081600481875afa5f9181611397575b5061120857837f4c9c8ce3000000000000000000000000000000000000000000000000000000005f5260045260245ffd5b807f360894a13ba1a3210667c828492db98dca3e2076cc3735a920a3ca505d382bbc85920361136c5750813b1561134157807fffffffffffffffffffffffff00000000000000000000000000000000000000007f360894a13ba1a3210667c828492db98dca3e2076cc3735a920a3ca505d382bbc5416177f360894a13ba1a3210667c828492db98dca3e2076cc3735a920a3ca505d382bbc557fbc7cd75a20ee27fd9adebab32041f755214dbc6bffa90cc0225b39da2e5c2d3b5f80a2815115611310575f8083602061094695519101845af43d15611308573d916112ec83611da0565b926112fa6040519485611d5f565b83523d5f602085013e612690565b606091612690565b50503461131957005b7fb398979f000000000000000000000000000000000000000000000000000000005f5260045ffd5b7f4c9c8ce3000000000000000000000000000000000000000000000000000000005f5260045260245ffd5b7faa1d49a4000000000000000000000000000000000000000000000000000000005f5260045260245ffd5b9091506020813d6020116113c3575b816113b360209383611d5f565b810103126101fd575190856111d7565b3d91506113a6565b905073ffffffffffffffffffffffffffffffffffffffff7f360894a13ba1a3210667c828492db98dca3e2076cc3735a920a3ca505d382bbc541614158361117b565b346101fd575f7ffffffffffffffffffffffffffffffffffffffffffffffffffffffffffffffffc3601126101fd57611443611ebd565b7fcd5ed15c6e187e77e9aee88184c21f4f2182ab5827cb3b7e07fbedcd63f033005460ff8116156114de577fffffffffffffffffffffffffffffffffffffffffffffffffffffffffffffff00167fcd5ed15c6e187e77e9aee88184c21f4f2182ab5827cb3b7e07fbedcd63f03300557f5db9ee0a495bf2e6ff9c91a7834c1ba4fdd244a5e8aa4e537bd38aeae4b073aa6020604051338152a1005b7f8dfc202b000000000000000000000000000000000000000000000000000000005f5260045ffd5b346101fd5760407ffffffffffffffffffffffffffffffffffffffffffffffffffffffffffffffffc3601126101fd5761153d611cf9565b3373ffffffffffffffffffffffffffffffffffffffff8216036115665761094690600435612531565b7f6697b232000000000000000000000000000000000000000000000000000000005f5260045ffd5b346101fd5760a07ffffffffffffffffffffffffffffffffffffffffffffffffffffffffffffffffc3601126101fd576115c5611cf9565b6044359073ffffffffffffffffffffffffffffffffffffffff82168092036101fd5760643573ffffffffffffffffffffffffffffffffffffffff8116918282036101fd576084359173ffffffffffffffffffffffffffffffffffffffff83168084036101fd577ff0c57e16840df040f15088dc2f81fe391c3923bec73e23a9662efc9c229c6a00549460ff8660401c16159667ffffffffffffffff87168015908161191b575b6001149081611911575b159081611908575b506118e05773ffffffffffffffffffffffffffffffffffffffff6117eb95888a60017fffffffffffffffffffffffffffffffffffffffffffffffff00000000000000006117f19c16177ff0c57e16840df040f15088dc2f81fe391c3923bec73e23a9662efc9c229c6a005561188b575b506116f6612639565b6116fe612639565b611706612639565b6004355f55167fffffffffffffffffffffffff000000000000000000000000000000000000000060025416176002557fffffffffffffffffffffffff000000000000000000000000000000000000000060035416176003557fffffffffffffffffffffffff000000000000000000000000000000000000000060015416176001557fffffffffffffffffffffffff000000000000000000000000000000000000000060045416176004557fffffffffffffffffffffff00ffffffffffffffffffffffffffffffffffffffff60045416600455426005556117e581612033565b50612115565b50612219565b506117f857005b7fffffffffffffffffffffffffffffffffffffffffffffff00ffffffffffffffff7ff0c57e16840df040f15088dc2f81fe391c3923bec73e23a9662efc9c229c6a0054167ff0c57e16840df040f15088dc2f81fe391c3923bec73e23a9662efc9c229c6a00557fc7f505b2f371ae2175ee4913f4499e1f2633a7b5936321eed1cdaeb6115181d2602060405160018152a1005b7fffffffffffffffffffffffffffffffffffffffffffffff0000000000000000001668010000000000000001177ff0c57e16840df040f15088dc2f81fe391c3923bec73e23a9662efc9c229c6a00558a6116ed565b7ff92ee8a9000000000000000000000000000000000000000000000000000000005f5260045ffd5b9050158961167d565b303b159150611675565b89915061166b565b346101fd5760407ffffffffffffffffffffffffffffffffffffffffffffffffffffffffffffffffc3601126101fd57610946600435611960611cf9565b9061199961093c825f527f02dd7bc7dec4dceedda775e58dd541e08a116c6c53815c0bd028192f7b626800602052600160405f20015490565b61231d565b346101fd5760207ffffffffffffffffffffffffffffffffffffffffffffffffffffffffffffffffc3601126101fd576020610e046004355f527f02dd7bc7dec4dceedda775e58dd541e08a116c6c53815c0bd028192f7b626800602052600160405f20015490565b346101fd575f7ffffffffffffffffffffffffffffffffffffffffffffffffffffffffffffffffc3601126101fd5760405160a081019080821067ffffffffffffffff83111761056f5773ffffffffffffffffffffffffffffffffffffffff916040525f81526101f9602082015f8152604083015f815260608401905f82526080850192606084526040519687965f88525f60208901525f60408901525f60608901525f608089015260c060a0890152511660c08701525160e086015251610100850152516101208401525160a0610140840152610160830190611d1c565b346101fd5760207ffffffffffffffffffffffffffffffffffffffffffffffffffffffffffffffffc3601126101fd576020611b1d611cd6565b73ffffffffffffffffffffffffffffffffffffffff80600254169116908114908115611b4f575b506040519015158152f35b905073ffffffffffffffffffffffffffffffffffffffff600354161482611b44565b346101fd575f7ffffffffffffffffffffffffffffffffffffffffffffffffffffffffffffffffc3601126101fd57602073ffffffffffffffffffffffffffffffffffffffff60045416604051908152f35b346101fd575f7ffffffffffffffffffffffffffffffffffffffffffffffffffffffffffffffffc3601126101fd5760206040517fdfbefbf47cfe66b701d8cfdbce1de81c821590819cb07e71cb01b6602fb0ee278152f35b346101fd5760207ffffffffffffffffffffffffffffffffffffffffffffffffffffffffffffffffc3601126101fd57600435907fffffffff0000000000000000000000000000000000000000000000000000000082168092036101fd57817f7965db0b0000000000000000000000000000000000000000000000000000000060209314908115611cac575b5015158152f35b7f01ffc9a70000000000000000000000000000000000000000000000000000000091501483611ca5565b6004359073ffffffffffffffffffffffffffffffffffffffff821682036101fd57565b6024359073ffffffffffffffffffffffffffffffffffffffff821682036101fd57565b907fffffffffffffffffffffffffffffffffffffffffffffffffffffffffffffffe0601f602080948051918291828752018686015e5f8582860101520116010190565b90601f7fffffffffffffffffffffffffffffffffffffffffffffffffffffffffffffffe0910116810190811067ffffffffffffffff82111761056f57604052565b67ffffffffffffffff811161056f57601f017fffffffffffffffffffffffffffffffffffffffffffffffffffffffffffffffe01660200190565b929192611de682611da0565b91611df46040519384611d5f565b8294818452818301116101fd578281602093845f960137010152565b90600182811c92168015611e57575b6020831014611e2a57565b7f4e487b71000000000000000000000000000000000000000000000000000000005f52602260045260245ffd5b91607f1691611e1f565b60075480158015611eb3575b611eae57600854908103908111611e815790565b7f4e487b71000000000000000000000000000000000000000000000000000000005f52601160045260245ffd5b505f90565b5060085415611e6d565b335f9081527fb7db2dd08fcb62d0c9e08c51941cae53c267786a0b75803fb7960902fc8ef97d602052604090205460ff1615611ef557565b7fe2517d3f000000000000000000000000000000000000000000000000000000005f52336004525f60245260445ffd5b335f9081527f8711c7ad2010465760ca2187c05c4a2975c1f6b1029f45463cc126ae48775140602052604090205460ff1615611f5d57565b7fe2517d3f000000000000000000000000000000000000000000000000000000005f52336004527f25cf2b509f2a7f322675b2a5322b182f44ad2c03ac941a0af17c9b178f5d5d5f60245260445ffd5b805f527f02dd7bc7dec4dceedda775e58dd541e08a116c6c53815c0bd028192f7b62680060205260405f2073ffffffffffffffffffffffffffffffffffffffff33165f5260205260ff60405f205416156120045750565b7fe2517d3f000000000000000000000000000000000000000000000000000000005f523360045260245260445ffd5b73ffffffffffffffffffffffffffffffffffffffff81165f9081527fb7db2dd08fcb62d0c9e08c51941cae53c267786a0b75803fb7960902fc8ef97d602052604090205460ff16611eae5773ffffffffffffffffffffffffffffffffffffffff165f8181527fb7db2dd08fcb62d0c9e08c51941cae53c267786a0b75803fb7960902fc8ef97d6020526040812080547fffffffffffffffffffffffffffffffffffffffffffffffffffffffffffffff001660011790553391907f2f8788117e7eff1d82e926ec794901d17c78024a50270940304540a733656f0d8180a4600190565b73ffffffffffffffffffffffffffffffffffffffff81165f9081527fae397ad4942fd55c39428db5ea3ac85cc8592b20d92437b6ec53a8b6ff39d42d602052604090205460ff16611eae5773ffffffffffffffffffffffffffffffffffffffff165f8181527fae397ad4942fd55c39428db5ea3ac85cc8592b20d92437b6ec53a8b6ff39d42d6020526040812080547fffffffffffffffffffffffffffffffffffffffffffffffffffffffffffffff001660011790553391907fdfbefbf47cfe66b701d8cfdbce1de81c821590819cb07e71cb01b6602fb0ee27907f2f8788117e7eff1d82e926ec794901d17c78024a50270940304540a733656f0d9080a4600190565b73ffffffffffffffffffffffffffffffffffffffff81165f9081527f8711c7ad2010465760ca2187c05c4a2975c1f6b1029f45463cc126ae48775140602052604090205460ff16611eae5773ffffffffffffffffffffffffffffffffffffffff165f8181527f8711c7ad2010465760ca2187c05c4a2975c1f6b1029f45463cc126ae487751406020526040812080547fffffffffffffffffffffffffffffffffffffffffffffffffffffffffffffff001660011790553391907f25cf2b509f2a7f322675b2a5322b182f44ad2c03ac941a0af17c9b178f5d5d5f907f2f8788117e7eff1d82e926ec794901d17c78024a50270940304540a733656f0d9080a4600190565b805f527f02dd7bc7dec4dceedda775e58dd541e08a116c6c53815c0bd028192f7b62680060205260405f2073ffffffffffffffffffffffffffffffffffffffff83165f5260205260ff60405f205416155f1461242957805f527f02dd7bc7dec4dceedda775e58dd541e08a116c6c53815c0bd028192f7b62680060205260405f2073ffffffffffffffffffffffffffffffffffffffff83165f5260205260405f2060017fffffffffffffffffffffffffffffffffffffffffffffffffffffffffffffff0082541617905573ffffffffffffffffffffffffffffffffffffffff339216907f2f8788117e7eff1d82e926ec794901d17c78024a50270940304540a733656f0d5f80a4600190565b50505f90565b73ffffffffffffffffffffffffffffffffffffffff81165f9081527f8711c7ad2010465760ca2187c05c4a2975c1f6b1029f45463cc126ae48775140602052604090205460ff1615611eae5773ffffffffffffffffffffffffffffffffffffffff165f8181527f8711c7ad2010465760ca2187c05c4a2975c1f6b1029f45463cc126ae487751406020526040812080547fffffffffffffffffffffffffffffffffffffffffffffffffffffffffffffff001690553391907f25cf2b509f2a7f322675b2a5322b182f44ad2c03ac941a0af17c9b178f5d5d5f907ff6391f5c32d9c69d2a47ea670b442974b53935d1edc7fd64eb21e047a839171b9080a4600190565b805f527f02dd7bc7dec4dceedda775e58dd541e08a116c6c53815c0bd028192f7b62680060205260405f2073ffffffffffffffffffffffffffffffffffffffff83165f5260205260ff60405f2054165f1461242957805f527f02dd7bc7dec4dceedda775e58dd541e08a116c6c53815c0bd028192f7b62680060205260405f2073ffffffffffffffffffffffffffffffffffffffff83165f5260205260405f207fffffffffffffffffffffffffffffffffffffffffffffffffffffffffffffff00815416905573ffffffffffffffffffffffffffffffffffffffff339216907ff6391f5c32d9c69d2a47ea670b442974b53935d1edc7fd64eb21e047a839171b5f80a4600190565b60ff7ff0c57e16840df040f15088dc2f81fe391c3923bec73e23a9662efc9c229c6a005460401c161561266857565b7fd7e6bcf8000000000000000000000000000000000000000000000000000000005f5260045ffd5b906126cd57508051156126a557805190602001fd5b7fd6bda275000000000000000000000000000000000000000000000000000000005f5260045ffd5b81511580612720575b6126de575090565b73ffffffffffffffffffffffffffffffffffffffff907f9996b315000000000000000000000000000000000000000000000000000000005f521660045260245ffd5b50803b156126d656f0c57e16840df040f15088dc2f81fe391c3923bec73e23a9662efc9c229c6a00",
        "linkReferences": {}
    },
    "methodIdentifiers": {
        "BACKEND_ROLE()": "92c2becc",
        "DEFAULT_ADMIN_ROLE()": "a217fddf",
        "FACTORY_ROLE()": "04a0fb17",
        "UPGRADE_INTERFACE_VERSION()": "ad3cb1cc",
        "VERSION()": "ffa1ad74",
        "backend()": "099e4133",
        "cancelGame()": "d84c1ac9",
        "createdAt()": "cf09e0d0",
        "factory()": "c45a0155",
        "gameId()": "d7c81b55",
        "gameResult()": "7152f800",
        "getGameDuration()": "78e9ae60",
        "getGameInfo()": "1746bd1b",
        "getRoleAdmin(bytes32)": "248a9ca3",
        "grantRole(bytes32,address)": "2f2ff15d",
        "hasRole(bytes32,address)": "91d14854",
        "initialize(uint256,address,address,address,address)": "3641e083",
        "isPlayer(address)": "09c95e10",
        "pause()": "8456cb59",
        "paused()": "5c975abb",
        "player1()": "d30895e4",
        "player2()": "59a5f12d",
        "proxiableUUID()": "52d1902d",
        "renounceRole(bytes32,address)": "36568abe",
        "revokeRole(bytes32,address)": "d547741f",
        "startGame()": "d65ab5f2",
        "state()": "c19d93fb",
        "submitGameResult(address,uint256,string)": "e91a92af",
        "supportsInterface(bytes4)": "01ffc9a7",
        "unpause()": "3f4ba83a",
        "updateBackend(address)": "c0ed969a",
        "upgradeToAndCall(address,bytes)": "4f1ef286"
    },
    "id": 44
}