{"abi":[{"type":"constructor","inputs":[{"name":"_implementation","type":"address","internalType":"address"},{"name":"_backend","type":"address","internalType":"address"},{"name":"_shipToken","type":"address","internalType":"address"},{"name":"_statistics","type":"address","internalType":"address"}],"stateMutability":"nonpayable"},{"type":"function","name":"BACKEND_ROLE","inputs":[],"outputs":[{"name":"","type":"bytes32","internalType":"bytes32"}],"stateMutability":"view"},{"type":"function","name":"DEFAULT_ADMIN_ROLE","inputs":[],"outputs":[{"name":"","type":"bytes32","internalType":"bytes32"}],"stateMutability":"view"},{"type":"function","name":"STATS_ROLE","inputs":[],"outputs":[{"name":"","type":"bytes32","internalType":"bytes32"}],"stateMutability":"view"},{"type":"function","name":"UPGRADER_ROLE","inputs":[],"outputs":[{"name":"","type":"bytes32","internalType":"bytes32"}],"stateMutability":"view"},{"type":"function","name":"backend","inputs":[],"outputs":[{"name":"","type":"address","internalType":"address"}],"stateMutability":"view"},{"type":"function","name":"cancelGame","inputs":[{"name":"gameId","type":"uint256","internalType":"uint256"}],"outputs":[],"stateMutability":"nonpayable"},{"type":"function","name":"createGame","inputs":[{"name":"player1","type":"address","internalType":"address"},{"name":"player2","type":"address","internalType":"address"}],"outputs":[{"name":"gameId","type":"uint256","internalType":"uint256"}],"stateMutability":"nonpayable"},{"type":"function","name":"currentImplementation","inputs":[],"outputs":[{"name":"","type":"address","internalType":"address"}],"stateMutability":"view"},{"type":"function","name":"gameStats","inputs":[],"outputs":[{"name":"totalGames","type":"uint256","internalType":"uint256"},{"name":"completedGames","type":"uint256","internalType":"uint256"},{"name":"cancelledGames","type":"uint256","internalType":"uint256"},{"name":"totalPlayTime","type":"uint256","internalType":"uint256"},{"name":"averageGameDuration","type":"uint256","internalType":"uint256"},{"name":"totalShotsAcrossGames","type":"uint256","internalType":"uint256"}],"stateMutability":"view"},{"type":"function","name":"games","inputs":[{"name":"","type":"uint256","internalType":"uint256"}],"outputs":[{"name":"","type":"address","internalType":"address"}],"stateMutability":"view"},{"type":"function","name":"getGameStats","inputs":[],"outputs":[{"name":"totalGames","type":"uint256","internalType":"uint256"},{"name":"completedGames","type":"uint256","internalType":"uint256"},{"name":"cancelledGames","type":"uint256","internalType":"uint256"},{"name":"averageDuration","type":"uint256","internalType":"uint256"},{"name":"totalShots","type":"uint256","internalType":"uint256"}],"stateMutability":"view"},{"type":"function","name":"getLeaderboard","inputs":[{"name":"limit","type":"uint256","internalType":"uint256"}],"outputs":[{"name":"entries","type":"tuple[]","internalType":"struct GameFactoryWithStats.LeaderboardEntry[]","components":[{"name":"player","type":"address","internalType":"address"},{"name":"wins","type":"uint256","internalType":"uint256"},{"name":"winRate","type":"uint256","internalType":"uint256"},{"name":"currentStreak","type":"uint256","internalType":"uint256"},{"name":"bestStreak","type":"uint256","internalType":"uint256"}]}],"stateMutability":"view"},{"type":"function","name":"getPlayerGames","inputs":[{"name":"player","type":"address","internalType":"address"}],"outputs":[{"name":"gameIds","type":"uint256[]","internalType":"uint256[]"}],"stateMutability":"view"},{"type":"function","name":"getPlayerStats","inputs":[{"name":"player","type":"address","internalType":"address"}],"outputs":[{"name":"stats","type":"tuple","internalType":"struct GameFactoryWithStats.PlayerStats","components":[{"name":"totalGames","type":"uint256","internalType":"uint256"},{"name":"wins","type":"uint256","internalType":"uint256"},{"name":"losses","type":"uint256","internalType":"uint256"},{"name":"winStreak","type":"uint256","internalType":"uint256"},{"name":"bestWinStreak","type":"uint256","internalType":"uint256"},{"name":"totalShipsDestroyed","type":"uint256","internalType":"uint256"},{"name":"totalGameDuration","type":"uint256","internalType":"uint256"},{"name":"totalRewardsEarned","type":"uint256","internalType":"uint256"},{"name":"firstGameTime","type":"uint256","internalType":"uint256"},{"name":"lastGameTime","type":"uint256","internalType":"uint256"}]}],"stateMutability":"view"},{"type":"function","name":"getRoleAdmin","inputs":[{"name":"role","type":"bytes32","internalType":"bytes32"}],"outputs":[{"name":"","type":"bytes32","internalType":"bytes32"}],"stateMutability":"view"},{"type":"function","name":"grantRole","inputs":[{"name":"role","type":"bytes32","internalType":"bytes32"},{"name":"account","type":"address","internalType":"address"}],"outputs":[],"stateMutability":"nonpayable"},{"type":"function","name":"hasRole","inputs":[{"name":"role","type":"bytes32","internalType":"bytes32"},{"name":"account","type":"address","internalType":"address"}],"outputs":[{"name":"","type":"bool","internalType":"bool"}],"stateMutability":"view"},{"type":"function","name":"pause","inputs":[],"outputs":[],"stateMutability":"nonpayable"},{"type":"function","name":"paused","inputs":[],"outputs":[{"name":"","type":"bool","internalType":"bool"}],"stateMutability":"view"},{"type":"function","name":"playerGames","inputs":[{"name":"","type":"address","internalType":"address"},{"name":"","type":"uint256","internalType":"uint256"}],"outputs":[{"name":"","type":"uint256","internalType":"uint256"}],"stateMutability":"view"},{"type":"function","name":"playerStats","inputs":[{"name":"","type":"address","internalType":"address"}],"outputs":[{"name":"totalGames","type":"uint256","internalType":"uint256"},{"name":"wins","type":"uint256","internalType":"uint256"},{"name":"losses","type":"uint256","internalType":"uint256"},{"name":"winStreak","type":"uint256","internalType":"uint256"},{"name":"bestWinStreak","type":"uint256","internalType":"uint256"},{"name":"totalShipsDestroyed","type":"uint256","internalType":"uint256"},{"name":"totalGameDuration","type":"uint256","internalType":"uint256"},{"name":"totalRewardsEarned","type":"uint256","internalType":"uint256"},{"name":"firstGameTime","type":"uint256","internalType":"uint256"},{"name":"lastGameTime","type":"uint256","internalType":"uint256"}],"stateMutability":"view"},{"type":"function","name":"renounceRole","inputs":[{"name":"role","type":"bytes32","internalType":"bytes32"},{"name":"callerConfirmation","type":"address","internalType":"address"}],"outputs":[],"stateMutability":"nonpayable"},{"type":"function","name":"reportGameCompletion","inputs":[{"name":"gameId","type":"uint256","internalType":"uint256"},{"name":"winner","type":"address","internalType":"address"},{"name":"duration","type":"uint256","internalType":"uint256"},{"name":"shots","type":"uint256","internalType":"uint256"},{"name":"endReason","type":"string","internalType":"string"}],"outputs":[],"stateMutability":"nonpayable"},{"type":"function","name":"revokeRole","inputs":[{"name":"role","type":"bytes32","internalType":"bytes32"},{"name":"account","type":"address","internalType":"address"}],"outputs":[],"stateMutability":"nonpayable"},{"type":"function","name":"setBackend","inputs":[{"name":"newBackend","type":"address","internalType":"address"}],"outputs":[],"stateMutability":"nonpayable"},{"type":"function","name":"setImplementation","inputs":[{"name":"newImplementation","type":"address","internalType":"address"}],"outputs":[],"stateMutability":"nonpayable"},{"type":"function","name":"setShipToken","inputs":[{"name":"_shipToken","type":"address","internalType":"address"}],"outputs":[],"stateMutability":"nonpayable"},{"type":"function","name":"setStatistics","inputs":[{"name":"_statistics","type":"address","internalType":"address"}],"outputs":[],"stateMutability":"nonpayable"},{"type":"function","name":"shipToken","inputs":[],"outputs":[{"name":"","type":"address","internalType":"contract SHIPToken"}],"stateMutability":"view"},{"type":"function","name":"statistics","inputs":[],"outputs":[{"name":"","type":"address","internalType":"contract BattleshipStatistics"}],"stateMutability":"view"},{"type":"function","name":"supportsInterface","inputs":[{"name":"interfaceId","type":"bytes4","internalType":"bytes4"}],"outputs":[{"name":"","type":"bool","internalType":"bool"}],"stateMutability":"view"},{"type":"function","name":"unpause","inputs":[],"outputs":[],"stateMutability":"nonpayable"},{"type":"event","name":"BackendUpdated","inputs":[{"name":"oldBackend","type":"address","indexed":true,"internalType":"address"},{"name":"newBackend","type":"address","indexed":true,"internalType":"address"}],"anonymous":false},{"type":"event","name":"GameCompleted","inputs":[{"name":"gameId","type":"uint256","indexed":true,"internalType":"uint256"},{"name":"winner","type":"address","indexed":true,"internalType":"address"},{"name":"duration","type":"uint256","indexed":false,"internalType":"uint256"},{"name":"shots","type":"uint256","indexed":false,"internalType":"uint256"}],"anonymous":false},{"type":"event","name":"GameCreated","inputs":[{"name":"gameId","type":"uint256","indexed":true,"internalType":"uint256"},{"name":"gameAddress","type":"address","indexed":true,"internalType":"address"},{"name":"player1","type":"address","indexed":true,"internalType":"address"},{"name":"player2","type":"address","indexed":false,"internalType":"address"}],"anonymous":false},{"type":"event","name":"ImplementationUpdated","inputs":[{"name":"oldImplementation","type":"address","indexed":true,"internalType":"address"},{"name":"newImplementation","type":"address","indexed":true,"internalType":"address"}],"anonymous":false},{"type":"event","name":"Paused","inputs":[{"name":"account","type":"address","indexed":false,"internalType":"address"}],"anonymous":false},{"type":"event","name":"RewardsDistributed","inputs":[{"name":"gameId","type":"uint256","indexed":true,"internalType":"uint256"},{"name":"player","type":"address","indexed":true,"internalType":"address"},{"name":"amount","type":"uint256","indexed":false,"internalType":"uint256"},{"name":"isWinner","type":"bool","indexed":false,"internalType":"bool"}],"anonymous":false},{"type":"event","name":"RoleAdminChanged","inputs":[{"name":"role","type":"bytes32","indexed":true,"internalType":"bytes32"},{"name":"previousAdminRole","type":"bytes32","indexed":true,"internalType":"bytes32"},{"name":"newAdminRole","type":"bytes32","indexed":true,"internalType":"bytes32"}],"anonymous":false},{"type":"event","name":"RoleGranted","inputs":[{"name":"role","type":"bytes32","indexed":true,"internalType":"bytes32"},{"name":"account","type":"address","indexed":true,"internalType":"address"},{"name":"sender","type":"address","indexed":true,"internalType":"address"}],"anonymous":false},{"type":"event","name":"RoleRevoked","inputs":[{"name":"role","type":"bytes32","indexed":true,"internalType":"bytes32"},{"name":"account","type":"address","indexed":true,"internalType":"address"},{"name":"sender","type":"address","indexed":true,"internalType":"address"}],"anonymous":false},{"type":"event","name":"StatsUpdated","inputs":[{"name":"player","type":"address","indexed":true,"internalType":"address"}],"anonymous":false},{"type":"event","name":"Unpaused","inputs":[{"name":"account","type":"address","indexed":false,"internalType":"address"}],"anonymous":false},{"type":"error","name":"AccessControlBadConfirmation","inputs":[]},{"type":"error","name":"AccessControlUnauthorizedAccount","inputs":[{"name":"account","type":"address","internalType":"address"},{"name":"neededRole","type":"bytes32","internalType":"bytes32"}]},{"type":"error","name":"EnforcedPause","inputs":[]},{"type":"error","name":"ExpectedPause","inputs":[]},{"type":"error","name":"GameNotFound","inputs":[]},{"type":"error","name":"InvalidBackend","inputs":[]},{"type":"error","name":"InvalidImplementation","inputs":[]},{"type":"error","name":"NoGames","inputs":[]},{"type":"error","name":"UnauthorizedCaller","inputs":[]}],"bytecode":{"object":"0x6080346100ef57601f6135dd38819003918201601f19168301916001600160401b038311848410176100f3578084926080946040528339810103126100ef5761004781610107565b9061005460208201610107565b61006c606061006560408501610107565b9301610107565b926100763361011b565b5061008033610191565b5061008a82610224565b50600680546001600160a01b03199081166001600160a01b03938416179091556007805482169383169390931790925560088054831693821693909317909255600980549091169290911691909117905560016005556040516132a590816102b88239f35b5f80fd5b634e487b7160e01b5f52604160045260245ffd5b51906001600160a01b03821682036100ef57565b6001600160a01b0381165f9081525f5160206135bd5f395f51905f52602052604090205460ff1661018c576001600160a01b03165f8181525f5160206135bd5f395f51905f5260205260408120805460ff191660011790553391905f51602061355d5f395f51905f528180a4600190565b505f90565b6001600160a01b0381165f9081525f51602061359d5f395f51905f52602052604090205460ff1661018c576001600160a01b03165f8181525f51602061359d5f395f51905f5260205260408120805460ff191660011790553391907f189ab7a9244df0848122154315af71fe140f3db0fe014031783b0946b8c9d2e3905f51602061355d5f395f51905f529080a4600190565b6001600160a01b0381165f9081525f51602061357d5f395f51905f52602052604090205460ff1661018c576001600160a01b03165f8181525f51602061357d5f395f51905f5260205260408120805460ff191660011790553391907f25cf2b509f2a7f322675b2a5322b182f44ad2c03ac941a0af17c9b178f5d5d5f905f51602061355d5f395f51905f529080a460019056fe6080806040526004361015610012575f80fd5b5f905f3560e01c90816301ffc9a7146125d55750806306d1fa7b146124ef578063099e41331461249e5780630a5694c21461241e578063117a5b90146123c0578063129daf84146122e15780631aff30dd14612284578063248a9ca3146122345780632f2ff15d146121d957806336568abe1461214f5780633f4ba83a146120945780634fd66eae14611f305780635c975abb14611ef05780635f221bfe14611e9f57806369958ab914611c085780638456cb5914611b7257806391d1485414611afd57806392c2becc14611aa457806395e272bd14611a52578063a217fddf14611a18578063a34b46fe1461160e578063a6f979ff14611277578063b2ebd55414610789578063b4510e2b14610730578063be117dfd1461064a578063cdafbbb614610582578063d547741f1461051d578063d68199dc146104b7578063d784d4261461032f578063d8bd5c29146102dd578063da7fc24f146101d95763f72c0d8b1461017e575f80fd5b346101d657807ffffffffffffffffffffffffffffffffffffffffffffffffffffffffffffffffc3601126101d65760206040517f189ab7a9244df0848122154315af71fe140f3db0fe014031783b0946b8c9d2e38152f35b80fd5b50346101d65760207ffffffffffffffffffffffffffffffffffffffffffffffffffffffffffffffffc3601126101d657610211612691565b610219612a43565b73ffffffffffffffffffffffffffffffffffffffff81169081156102b55761026373ffffffffffffffffffffffffffffffffffffffff600754169161025d83612d74565b50612b99565b50817fffffffffffffffffffffffff000000000000000000000000000000000000000060075416176007557f37f6c561371bb449a598aaf7e5528fc87ad233e82669756cd67fec9c5f665a7b8380a380f35b6004837fc9dcfb33000000000000000000000000000000000000000000000000000000008152fd5b50346101d657807ffffffffffffffffffffffffffffffffffffffffffffffffffffffffffffffffc3601126101d657602073ffffffffffffffffffffffffffffffffffffffff60065416604051908152f35b50346101d65760207ffffffffffffffffffffffffffffffffffffffffffffffffffffffffffffffffc3601126101d657610367612691565b7f189ab7a9244df0848122154315af71fe140f3db0fe014031783b0946b8c9d2e38252816020526040822073ffffffffffffffffffffffffffffffffffffffff33165f5260205260ff60405f205416156104675773ffffffffffffffffffffffffffffffffffffffff16801561043f5773ffffffffffffffffffffffffffffffffffffffff600654827fffffffffffffffffffffffff0000000000000000000000000000000000000000821617600655167faa3f731066a578e5f39b4215468d826cdd15373cbc0dfc9cb9bdc649718ef7da8380a380f35b6004827f68155f9a000000000000000000000000000000000000000000000000000000008152fd5b6044827fe2517d3f000000000000000000000000000000000000000000000000000000008152336004527f189ab7a9244df0848122154315af71fe140f3db0fe014031783b0946b8c9d2e3602452fd5b50346101d657807ffffffffffffffffffffffffffffffffffffffffffffffffffffffffffffffffc3601126101d65760c0600a54600b54600c54600d54600e5491600f5493604051958652602086015260408501526060840152608083015260a0820152f35b50346101d65760407ffffffffffffffffffffffffffffffffffffffffffffffffffffffffffffffffc3601126101d65761057e60043561055b6126b4565b90610579610574825f525f602052600160405f20015490565b612b33565b612e76565b5080f35b50346101d65760207ffffffffffffffffffffffffffffffffffffffffffffffffffffffffffffffffc3601126101d65760406101409173ffffffffffffffffffffffffffffffffffffffff6105d5612691565b1681526004602052208054906001810154906002810154600382015460048301546005840154906006850154926007860154946009600888015497015497604051998a5260208a015260408901526060880152608087015260a086015260c085015260e0840152610100830152610120820152f35b50346101d65760207ffffffffffffffffffffffffffffffffffffffffffffffffffffffffffffffffc3601126101d65773ffffffffffffffffffffffffffffffffffffffff610697612691565b61069f612a43565b1680156106d2577fffffffffffffffffffffffff0000000000000000000000000000000000000000600954161760095580f35b60646040517f08c379a000000000000000000000000000000000000000000000000000000000815260206004820152601a60248201527f496e76616c6964207374617469737469637320616464726573730000000000006044820152fd5b50346101d657807ffffffffffffffffffffffffffffffffffffffffffffffffffffffffffffffffc3601126101d65760206040517f06917144a7bc7c0a741c115e685c4bb7fdb1687664f73d6ad5e5c80157cae1cd8152f35b50346101d65760a07ffffffffffffffffffffffffffffffffffffffffffffffffffffffffffffffffc3601126101d6576004356107c46126b4565b906044356064356084359367ffffffffffffffff8511610e9e5736602386011215610e9e5784600401359467ffffffffffffffff861161124a57866040519161083560207fffffffffffffffffffffffffffffffffffffffffffffffffffffffffffffffe0601f8b01160184612797565b8783526020830197366024828401011161124657806024602093018a378301015261085e612aab565b848752600260205273ffffffffffffffffffffffffffffffffffffffff60408820541695861561121e5790879291604051977fd30895e4000000000000000000000000000000000000000000000000000000008952602089600481845afa9889156111ea5785996111f5575b5090602060049392604051948580927f59a5f12d0000000000000000000000000000000000000000000000000000000082525afa9283156111ea5785936111b9575b5061094361091b600b54612804565b80600b5561092b89600d5461294b565b80600d5561093b89600f5461294b565b600f55612900565b600e556020604051809284518091835e810160108152030190206109678154612804565b905573ffffffffffffffffffffffffffffffffffffffff8816918285526004602052604085206109978154612804565b90558285526004602052600660408620016109b388825461294b565b9055828552600460205242600960408720015573ffffffffffffffffffffffffffffffffffffffff808216948587526004602052604087206109f58154612804565b9055858752600460205260066040882001610a118a825461294b565b9055858752600460205242600960408920015516988915805f1461104e57848752600460205286600360408220015585875260046020528660036040822001555b604051857f8c5337ea9b045e5ee60a0fd9e61ce70d04f149225d2119ddf896bcb7dda2e4058980a2867f8c5337ea9b045e5ee60a0fd9e61ce70d04f149225d2119ddf896bcb7dda2e4058980a273ffffffffffffffffffffffffffffffffffffffff60085416907f89afec6d000000000000000000000000000000000000000000000000000000008152602081600481855afa90811561104357899161100e575b506040517fd17dced2000000000000000000000000000000000000000000000000000000008152602081600481865afa928315611003578d928f928c95610fc0575b50918a8c610bd16020878b968f85610b71889c9b8e938b149d8e94855f14610fb657610b62905b8361294b565b9b149e8f15610fae579061294b565b99604051968795869485937fcfbb35ce0000000000000000000000000000000000000000000000000000000085526004850160409194939273ffffffffffffffffffffffffffffffffffffffff6060830196168252151560208201520152565b03925af19081610f91575b50610f3557909150925b6008546040517fcfbb35ce00000000000000000000000000000000000000000000000000000000815273ffffffffffffffffffffffffffffffffffffffff8b811660048301528815156024830152604482018490528f92602091839160649183918791165af19081610f08575b50610eb15792505050935b15610d4d5750505050505073ffffffffffffffffffffffffffffffffffffffff60095416803b15610d3e57610ce493858094604051968795869485937f40ce2569000000000000000000000000000000000000000000000000000000008552600485015260248401528b60448401528a606484015260a0608484015260a4830190612958565b03925af18015610d4257610d29575b50507fa3a193cd49fb44d3709b2d13235998e900d960268b8356d3c2233340fd215c38916040915b82519182526020820152a380f35b81610d3391612797565b610d3e57845f610cf3565b8480fd5b6040513d84823e3d90fd5b91939650919493965073ffffffffffffffffffffffffffffffffffffffff60095416958960011c96803b15610ead578b938a8e93610dbe82968a8d6040519a8b998a9889977f577d8d87000000000000000000000000000000000000000000000000000000008952600489016129f2565b03925af1908115610ea2578791610e89575b505073ffffffffffffffffffffffffffffffffffffffff6009541691823b15610e85578895610e358b9589979388946040519a8b998a9889977f577d8d87000000000000000000000000000000000000000000000000000000008952600489016129f2565b03925af18015610d4257610e70575b50507fa3a193cd49fb44d3709b2d13235998e900d960268b8356d3c2233340fd215c3891604091610d1b565b81610e7a91612797565b610d3e57845f610e44565b8680fd5b81610e9391612797565b610e9e57855f610dd0565b8580fd5b6040513d89823e3d90fd5b8980fd5b604081846007939a969a5260046020522001610ece88825461294b565b90556040805188815287151560208201527f081ba4152610d5dedd994b0baa815d9644db3c57fca43480452f89a1f2d25bad9190a3610c5e565b610f299060203d602011610f2e575b610f218183612797565b810190613020565b610c53565b503d610f17565b6040818d600793979495975260046020522001610f5385825461294b565b90556040805185815286151560208201528c9183917f081ba4152610d5dedd994b0baa815d9644db3c57fca43480452f89a1f2d25bad9190a3610be6565b610fa99060203d602011610f2e57610f218183612797565b610bdc565b50829061294b565b50610b6284610b5c565b935093509950506020813d602011610ffb575b81610fe060209383612797565b81010312610ff757518d9890918c918e918a610b35565b5f80fd5b3d9150610fd3565b6040513d8c823e3d90fd5b9850506020883d60201161103b575b8161102a60209383612797565b81010312610ff7578c97515f610af3565b3d915061101d565b6040513d8b823e3d90fd5b8a85036111075784875260046020526001604088200161106e8154612804565b90558487526004602052600360408820016110898154612804565b90558487526004602052600360408820015485885260046020526004604089200154106110e2575b8587526004602052600260408820016110ca8154612804565b90558587526004602052866003604082200155610a52565b84875260046020526003604088200154858852600460205260046040892001556110b1565b8587526004602052600160408820016111208154612804565b905585875260046020526003604088200161113b8154612804565b9055858752600460205260036040882001548688526004602052600460408920015410611194575b84875260046020526002604088200161117c8154612804565b90558487526004602052866003604082200155610a52565b8587526004602052600360408820015486885260046020526004604089200155611163565b6111dc91935060203d6020116111e3575b6111d48183612797565b8101906127d8565b915f61090c565b503d6111ca565b6040513d87823e3d90fd5b60049392919950611214602091823d84116111e3576111d48183612797565b99919293506108ca565b6004887f26cf189c000000000000000000000000000000000000000000000000000000008152fd5b8280fd5b6024877f4e487b710000000000000000000000000000000000000000000000000000000081526041600452fd5b50346101d65760407ffffffffffffffffffffffffffffffffffffffffffffffffffffffffffffffffc3601126101d6576112af612691565b6112b76126b4565b906112c0612aab565b6112c8612f3e565b73ffffffffffffffffffffffffffffffffffffffff82169073ffffffffffffffffffffffffffffffffffffffff8116918083146115b057821515806115a7575b15611549576005549361131a85612804565b60055573ffffffffffffffffffffffffffffffffffffffff60075416604051907f3641e08300000000000000000000000000000000000000000000000000000000602083015286602483015285604483015283606483015230608483015260a482015260a4815261138c60c482612797565b73ffffffffffffffffffffffffffffffffffffffff60065416906040519161026c908184019184831067ffffffffffffffff84111761151c576113e392859492604092613039873981528160208201520190612958565b039087f080156115115785926020977f63a3d7f77dca07e334cb3a181bbcbe04540c8e7e554a9832e4234acaac210fa69373ffffffffffffffffffffffffffffffffffffffff8a9416968683526002855260408320887fffffffffffffffffffffffff000000000000000000000000000000000000000082541617905588835260038552611474876040852061299b565b83835260038552611488876040852061299b565b888352600485526008604084200154156114f2575b50828252600484526008604083200154156114d2575b50506114c0600a54612804565b600a55604051908152a4604051908152f35b81836114eb935260048552600860404292200155612f72565b5f806114b3565b61150b9089845260048652426008604086200155612f72565b5f61149d565b6040513d88823e3d90fd5b60248b7f4e487b710000000000000000000000000000000000000000000000000000000081526041600452fd5b60646040517f08c379a000000000000000000000000000000000000000000000000000000000815260206004820152601660248201527f496e76616c696420706c617965722061646472657373000000000000000000006044820152fd5b50801515611308565b60646040517f08c379a000000000000000000000000000000000000000000000000000000000815260206004820152601c60248201527f43616e6e6f7420706c617920616761696e737420796f757273656c66000000006044820152fd5b50346101d65760207ffffffffffffffffffffffffffffffffffffffffffffffffffffffffffffffffc3601126101d65760115460043581811115611a12575080915b61165983612876565b9261166383612876565b93825b8481106118ba575082917fffffffffffffffffffffffffffffffffffffffffffffffffffffffffffffffff85019185831191825b61188d57838510156117cf57855b8588038881116117a2577fffffffffffffffffffffffffffffffffffffffffffffffffffffffffffffffff81019081116117a2578110156117955760206116ef828b612937565b5101516001820190818311611768579060019291602061170f838e612937565b5101511161171f575b50016116a8565b808b61175a611761936117328684612937565b519261173e8282612937565b516117498883612937565b526117548782612937565b50612937565b528b612937565b505f611718565b6024897f4e487b710000000000000000000000000000000000000000000000000000000081526011600452fd5b506001909401938261169a565b6024887f4e487b710000000000000000000000000000000000000000000000000000000081526011600452fd5b85925087835b828110611863578385604051918291602083016020845282518091526020604085019301915b818110611809575050500390f35b91935091602060a06001926080875173ffffffffffffffffffffffffffffffffffffffff815116835284810151858401526040810151604084015260608101516060840152015160808201520194019101918493926117fb565b8061187060019284612937565b5161187b8287612937565b526118868186612937565b50016117d5565b6024867f4e487b710000000000000000000000000000000000000000000000000000000081526011600452fd5b73ffffffffffffffffffffffffffffffffffffffff6118d8826126d7565b90549060031b1c16808552600460205260408520604051906118f982612731565b80548083526001820154928360208201526002830154604082015260038301549160608201928352600960048501549460808401958652600581015460a0850152600681015460c0850152600781015460e08501526008810154610100850152015461012083015215155f14611a035761271084029084820461271014851517156119d6576001969594939291611991915190612900565b905b51915192604051946119a48661277b565b855260208501526040840152606083015260808201526119c48289612937565b526119cf8188612937565b5001611666565b60248a7f4e487b710000000000000000000000000000000000000000000000000000000081526011600452fd5b50906001949392918890611993565b91611650565b50346101d657807ffffffffffffffffffffffffffffffffffffffffffffffffffffffffffffffffc3601126101d657602090604051908152f35b50346101d657807ffffffffffffffffffffffffffffffffffffffffffffffffffffffffffffffffc3601126101d657602073ffffffffffffffffffffffffffffffffffffffff60095416604051908152f35b50346101d657807ffffffffffffffffffffffffffffffffffffffffffffffffffffffffffffffffc3601126101d65760206040517f25cf2b509f2a7f322675b2a5322b182f44ad2c03ac941a0af17c9b178f5d5d5f8152f35b50346101d65760407ffffffffffffffffffffffffffffffffffffffffffffffffffffffffffffffffc3601126101d65773ffffffffffffffffffffffffffffffffffffffff6040611b4c6126b4565b926004358152806020522091165f52602052602060ff60405f2054166040519015158152f35b50346101d657807ffffffffffffffffffffffffffffffffffffffffffffffffffffffffffffffffc3601126101d657611ba9612a43565b611bb1612f3e565b60017fffffffffffffffffffffffffffffffffffffffffffffffffffffffffffffff00815416176001557f62e78cea01bee320cd4e420270b5ea74000d11b0c9f74754ebdbfc544b05a2586020604051338152a180f35b5034610ff75760207ffffffffffffffffffffffffffffffffffffffffffffffffffffffffffffffffc360112610ff757611c40612aab565b6004355f52600260205273ffffffffffffffffffffffffffffffffffffffff60405f205416908115611e77576040517fd30895e4000000000000000000000000000000000000000000000000000000008152602081600481865afa908115611e2c575f91611e58575b50604051907f59a5f12d000000000000000000000000000000000000000000000000000000008252602082600481875afa918215611e2c575f92611e37575b50833b15610ff7575f80946004604051809781937fd84c1ac90000000000000000000000000000000000000000000000000000000083525af18015611e2c57611e16575b829350611d3a600c54612804565b600c5573ffffffffffffffffffffffffffffffffffffffff6009541690813b15611e115760e473ffffffffffffffffffffffffffffffffffffffff918580948460405197889687957f40ce256900000000000000000000000000000000000000000000000000000000875216600486015216602484015281604484015281606484015260a06084840152600960a48401527f63616e63656c6c6564000000000000000000000000000000000000000000000060c48401525af18015610d4257611e005750f35b81611e0a91612797565b6101d65780f35b505050fd5b9150915f611e2391612797565b5f908290611d2c565b6040513d5f823e3d90fd5b611e5191925060203d6020116111e3576111d48183612797565b905f611ce8565b611e71915060203d6020116111e3576111d48183612797565b5f611ca9565b7f26cf189c000000000000000000000000000000000000000000000000000000005f5260045ffd5b34610ff7575f7ffffffffffffffffffffffffffffffffffffffffffffffffffffffffffffffffc360112610ff757602073ffffffffffffffffffffffffffffffffffffffff60085416604051908152f35b34610ff7575f7ffffffffffffffffffffffffffffffffffffffffffffffffffffffffffffffffc360112610ff757602060ff600154166040519015158152f35b34610ff75760207ffffffffffffffffffffffffffffffffffffffffffffffffffffffffffffffffc360112610ff75773ffffffffffffffffffffffffffffffffffffffff611f7c612691565b5f610120604051611f8c81612731565b8281528260208201528260408201528260608201528260808201528260a08201528260c08201528260e0820152826101008201520152165f52600460205261014060405f20604051611fdd81612731565b81549182825260018101546020830190815260028201546040840190815260038301546060850190815260048401546080860190815260058501549160a0870192835260068601549360c0880194855260078701549560e08901968752610120600960088a0154996101008c019a8b5201549901988952604051998a525160208a01525160408901525160608801525160808701525160a08601525160c08501525160e08401525161010083015251610120820152f35b34610ff7575f7ffffffffffffffffffffffffffffffffffffffffffffffffffffffffffffffffc360112610ff7576120ca612a43565b60015460ff811615612127577fffffffffffffffffffffffffffffffffffffffffffffffffffffffffffffff00166001557f5db9ee0a495bf2e6ff9c91a7834c1ba4fdd244a5e8aa4e537bd38aeae4b073aa6020604051338152a1005b7f8dfc202b000000000000000000000000000000000000000000000000000000005f5260045ffd5b34610ff75760407ffffffffffffffffffffffffffffffffffffffffffffffffffffffffffffffffc360112610ff7576121866126b4565b3373ffffffffffffffffffffffffffffffffffffffff8216036121b1576121af90600435612e76565b005b7f6697b232000000000000000000000000000000000000000000000000000000005f5260045ffd5b34610ff75760407ffffffffffffffffffffffffffffffffffffffffffffffffffffffffffffffffc360112610ff7576121af6004356122166126b4565b9061222f610574825f525f602052600160405f20015490565b612ca2565b34610ff75760207ffffffffffffffffffffffffffffffffffffffffffffffffffffffffffffffffc360112610ff757602061227c6004355f525f602052600160405f20015490565b604051908152f35b34610ff7575f7ffffffffffffffffffffffffffffffffffffffffffffffffffffffffffffffffc360112610ff75760a0600a54600b54600c54600e5490600f54926040519485526020850152604084015260608301526080820152f35b34610ff75760207ffffffffffffffffffffffffffffffffffffffffffffffffffffffffffffffffc360112610ff75773ffffffffffffffffffffffffffffffffffffffff61232d612691565b165f52600360205260405f20604051806020835491828152019081935f5260205f20905f5b8181106123aa5750505081612368910382612797565b604051918291602083019060208452518091526040830191905f5b818110612391575050500390f35b8251845285945060209384019390920191600101612383565b8254845260209093019260019283019201612352565b34610ff75760207ffffffffffffffffffffffffffffffffffffffffffffffffffffffffffffffffc360112610ff7576004355f526002602052602073ffffffffffffffffffffffffffffffffffffffff60405f205416604051908152f35b34610ff75760407ffffffffffffffffffffffffffffffffffffffffffffffffffffffffffffffffc360112610ff757612455612691565b73ffffffffffffffffffffffffffffffffffffffff60243591165f52600360205260405f208054821015610ff75760209161248f9161271c565b90549060031b1c604051908152f35b34610ff7575f7ffffffffffffffffffffffffffffffffffffffffffffffffffffffffffffffffc360112610ff757602073ffffffffffffffffffffffffffffffffffffffff60075416604051908152f35b34610ff75760207ffffffffffffffffffffffffffffffffffffffffffffffffffffffffffffffffc360112610ff75773ffffffffffffffffffffffffffffffffffffffff61253b612691565b612543612a43565b168015612577577fffffffffffffffffffffffff000000000000000000000000000000000000000060085416176008555f80f35b60646040517f08c379a000000000000000000000000000000000000000000000000000000000815260206004820152601560248201527f496e76616c696420746f6b656e206164647265737300000000000000000000006044820152fd5b34610ff75760207ffffffffffffffffffffffffffffffffffffffffffffffffffffffffffffffffc360112610ff757600435907fffffffff000000000000000000000000000000000000000000000000000000008216809203610ff757817f7965db0b0000000000000000000000000000000000000000000000000000000060209314908115612667575b5015158152f35b7f01ffc9a70000000000000000000000000000000000000000000000000000000091501483612660565b6004359073ffffffffffffffffffffffffffffffffffffffff82168203610ff757565b6024359073ffffffffffffffffffffffffffffffffffffffff82168203610ff757565b6011548110156126ef5760115f5260205f2001905f90565b7f4e487b71000000000000000000000000000000000000000000000000000000005f52603260045260245ffd5b80548210156126ef575f5260205f2001905f90565b610140810190811067ffffffffffffffff82111761274e57604052565b7f4e487b71000000000000000000000000000000000000000000000000000000005f52604160045260245ffd5b60a0810190811067ffffffffffffffff82111761274e57604052565b90601f7fffffffffffffffffffffffffffffffffffffffffffffffffffffffffffffffe0910116810190811067ffffffffffffffff82111761274e57604052565b90816020910312610ff7575173ffffffffffffffffffffffffffffffffffffffff81168103610ff75790565b7fffffffffffffffffffffffffffffffffffffffffffffffffffffffffffffffff81146128315760010190565b7f4e487b71000000000000000000000000000000000000000000000000000000005f52601160045260245ffd5b67ffffffffffffffff811161274e5760051b60200190565b906128808261285e565b61288d6040519182612797565b8281527fffffffffffffffffffffffffffffffffffffffffffffffffffffffffffffffe06128bb829461285e565b01905f5b8281106128cb57505050565b6020906040516128da8161277b565b5f81525f838201525f60408201525f60608201525f6080820152828285010152016128bf565b811561290a570490565b7f4e487b71000000000000000000000000000000000000000000000000000000005f52601260045260245ffd5b80518210156126ef5760209160051b010190565b9190820180921161283157565b907fffffffffffffffffffffffffffffffffffffffffffffffffffffffffffffffe0601f602080948051918291828752018686015e5f8582860101520116010190565b80546801000000000000000081101561274e576129bd9160018201815561271c565b7fffffffffffffffffffffffffffffffffffffffffffffffffffffffffffffffff829392549160031b92831b921b1916179055565b9796959260c0959273ffffffffffffffffffffffffffffffffffffffff612a3e9693168a52151560208a015260408901526060880152608087015260e060a087015260e0860190612958565b930152565b335f9081527fad3228b676f7d3cd4284a5443f17f1962b36e491b30a40b2405849e597ba5fb5602052604090205460ff1615612a7b57565b7fe2517d3f000000000000000000000000000000000000000000000000000000005f52336004525f60245260445ffd5b335f9081527f48c7bdbf6e737fbd4f28e9ac2ee21ca1cecfc20cb008a302f41dcc98ef949678602052604090205460ff1615612ae357565b7fe2517d3f000000000000000000000000000000000000000000000000000000005f52336004527f25cf2b509f2a7f322675b2a5322b182f44ad2c03ac941a0af17c9b178f5d5d5f60245260445ffd5b805f525f60205260405f2073ffffffffffffffffffffffffffffffffffffffff33165f5260205260ff60405f20541615612b6a5750565b7fe2517d3f000000000000000000000000000000000000000000000000000000005f523360045260245260445ffd5b73ffffffffffffffffffffffffffffffffffffffff81165f9081527f48c7bdbf6e737fbd4f28e9ac2ee21ca1cecfc20cb008a302f41dcc98ef949678602052604090205460ff16612c9d5773ffffffffffffffffffffffffffffffffffffffff165f8181527f48c7bdbf6e737fbd4f28e9ac2ee21ca1cecfc20cb008a302f41dcc98ef9496786020526040812080547fffffffffffffffffffffffffffffffffffffffffffffffffffffffffffffff001660011790553391907f25cf2b509f2a7f322675b2a5322b182f44ad2c03ac941a0af17c9b178f5d5d5f907f2f8788117e7eff1d82e926ec794901d17c78024a50270940304540a733656f0d9080a4600190565b505f90565b805f525f60205260405f2073ffffffffffffffffffffffffffffffffffffffff83165f5260205260ff60405f205416155f14612d6e57805f525f60205260405f2073ffffffffffffffffffffffffffffffffffffffff83165f5260205260405f2060017fffffffffffffffffffffffffffffffffffffffffffffffffffffffffffffff0082541617905573ffffffffffffffffffffffffffffffffffffffff339216907f2f8788117e7eff1d82e926ec794901d17c78024a50270940304540a733656f0d5f80a4600190565b50505f90565b73ffffffffffffffffffffffffffffffffffffffff81165f9081527f48c7bdbf6e737fbd4f28e9ac2ee21ca1cecfc20cb008a302f41dcc98ef949678602052604090205460ff1615612c9d5773ffffffffffffffffffffffffffffffffffffffff165f8181527f48c7bdbf6e737fbd4f28e9ac2ee21ca1cecfc20cb008a302f41dcc98ef9496786020526040812080547fffffffffffffffffffffffffffffffffffffffffffffffffffffffffffffff001690553391907f25cf2b509f2a7f322675b2a5322b182f44ad2c03ac941a0af17c9b178f5d5d5f907ff6391f5c32d9c69d2a47ea670b442974b53935d1edc7fd64eb21e047a839171b9080a4600190565b805f525f60205260405f2073ffffffffffffffffffffffffffffffffffffffff83165f5260205260ff60405f2054165f14612d6e57805f525f60205260405f2073ffffffffffffffffffffffffffffffffffffffff83165f5260205260405f207fffffffffffffffffffffffffffffffffffffffffffffffffffffffffffffff00815416905573ffffffffffffffffffffffffffffffffffffffff339216907ff6391f5c32d9c69d2a47ea670b442974b53935d1edc7fd64eb21e047a839171b5f80a4600190565b60ff60015416612f4a57565b7fd93c0665000000000000000000000000000000000000000000000000000000005f5260045ffd5b73ffffffffffffffffffffffffffffffffffffffff16805f52601260205260ff60405f20541615612fa05750565b6011546801000000000000000081101561274e57806001612fc492016011556126d7565b81549060031b9073ffffffffffffffffffffffffffffffffffffffff84831b921b19161790555f52601260205260405f2060017fffffffffffffffffffffffffffffffffffffffffffffffffffffffffffffff00825416179055565b90816020910312610ff757518015158103610ff7579056fe60806040523461015e575f61026c908138038061001b81610162565b938439820160408382031261015e5782516001600160a01b0381169390919084830361015e576020810151906001600160401b03821161015e57019381601f8601121561015e5784516100756100708261019b565b610162565b9581875260208701936020838301011161015e57815f926020809301865e87010152823b1561014c577f360894a13ba1a3210667c828492db98dca3e2076cc3735a920a3ca505d382bbc80546001600160a01b031916821790557fbc7cd75a20ee27fd9adebab32041f755214dbc6bffa90cc0225b39da2e5c2d3b5f80a28351156101435782809161012a955190845af4903d1561013a573d61011a6100708261019b565b908152809360203d92013e6101b6565b505b604051605790816102158239f35b606092506101b6565b5050505061012c565b634c9c8ce360e01b5f5260045260245ffd5b5f80fd5b6040519190601f01601f191682016001600160401b0381118382101761018757604052565b634e487b7160e01b5f52604160045260245ffd5b6001600160401b03811161018757601f01601f191660200190565b906101da57508051156101cb57805190602001fd5b63d6bda27560e01b5f5260045ffd5b8151158061020b575b6101eb575090565b639996b31560e01b5f9081526001600160a01b0391909116600452602490fd5b50803b156101e356fe60806040525f8073ffffffffffffffffffffffffffffffffffffffff7f360894a13ba1a3210667c828492db98dca3e2076cc3735a920a3ca505d382bbc5416368280378136915af43d5f803e156053573d5ff35b3d5ffd2f8788117e7eff1d82e926ec794901d17c78024a50270940304540a733656f0d48c7bdbf6e737fbd4f28e9ac2ee21ca1cecfc20cb008a302f41dcc98ef949678cc1f69e0eef30e6cab9eba078dfde64e8255bf01f21b8122b031b67f051e2292ad3228b676f7d3cd4284a5443f17f1962b36e491b30a40b2405849e597ba5fb5","linkReferences":{}},"methodIdentifiers":{"BACKEND_ROLE()":"92c2becc","DEFAULT_ADMIN_ROLE()":"a217fddf","STATS_ROLE()":"b4510e2b","UPGRADER_ROLE()":"f72c0d8b","backend()":"099e4133","cancelGame(uint256)":"69958ab9","createGame(address,address)":"a6f979ff","currentImplementation()":"d8bd5c29","gameStats()":"d68199dc","games(uint256)":"117a5b90","getGameStats()":"1aff30dd","getLeaderboard(uint256)":"a34b46fe","getPlayerGames(address)":"129daf84","getPlayerStats(address)":"4fd66eae","getRoleAdmin(bytes32)":"248a9ca3","grantRole(bytes32,address)":"2f2ff15d","hasRole(bytes32,address)":"91d14854","pause()":"8456cb59","paused()":"5c975abb","playerGames(address,uint256)":"0a5694c2","playerStats(address)":"cdafbbb6","renounceRole(bytes32,address)":"36568abe","reportGameCompletion(uint256,address,uint256,uint256,string)":"b2ebd554","revokeRole(bytes32,address)":"d547741f","setBackend(address)":"da7fc24f","setImplementation(address)":"d784d426","setShipToken(address)":"06d1fa7b","setStatistics(address)":"be117dfd","shipToken()":"5f221bfe","statistics()":"95e272bd","supportsInterface(bytes4)":"01ffc9a7","unpause()":"3f4ba83a"},"id":53}