{
    "abi": [
        {
            "type": "constructor",
            "inputs": [
                {
                    "name": "_implementation",
                    "type": "address",
                    "internalType": "address"
                },
                {
                    "name": "_backend",
                    "type": "address",
                    "internalType": "address"
                },
                {
                    "name": "_shipToken",
                    "type": "address",
                    "internalType": "address"
                }
            ],
            "stateMutability": "nonpayable"
        },
        {
            "type": "function",
            "name": "BACKEND_ROLE",
            "inputs": [],
            "outputs": [
                {
                    "name": "",
                    "type": "bytes32",
                    "internalType": "bytes32"
                }
            ],
            "stateMutability": "view"
        },
        {
            "type": "function",
            "name": "DEFAULT_ADMIN_ROLE",
            "inputs": [],
            "outputs": [
                {
                    "name": "",
                    "type": "bytes32",
                    "internalType": "bytes32"
                }
            ],
            "stateMutability": "view"
        },
        {
            "type": "function",
            "name": "STATS_ROLE",
            "inputs": [],
            "outputs": [
                {
                    "name": "",
                    "type": "bytes32",
                    "internalType": "bytes32"
                }
            ],
            "stateMutability": "view"
        },
        {
            "type": "function",
            "name": "UPGRADER_ROLE",
            "inputs": [],
            "outputs": [
                {
                    "name": "",
                    "type": "bytes32",
                    "internalType": "bytes32"
                }
            ],
            "stateMutability": "view"
        },
        {
            "type": "function",
            "name": "backend",
            "inputs": [],
            "outputs": [
                {
                    "name": "",
                    "type": "address",
                    "internalType": "address"
                }
            ],
            "stateMutability": "view"
        },
        {
            "type": "function",
            "name": "cancelGame",
            "inputs": [
                {
                    "name": "gameId",
                    "type": "uint256",
                    "internalType": "uint256"
                }
            ],
            "outputs": [],
            "stateMutability": "nonpayable"
        },
        {
            "type": "function",
            "name": "createGame",
            "inputs": [
                {
                    "name": "player1",
                    "type": "address",
                    "internalType": "address"
                },
                {
                    "name": "player2",
                    "type": "address",
                    "internalType": "address"
                }
            ],
            "outputs": [
                {
                    "name": "gameId",
                    "type": "uint256",
                    "internalType": "uint256"
                }
            ],
            "stateMutability": "nonpayable"
        },
        {
            "type": "function",
            "name": "currentImplementation",
            "inputs": [],
            "outputs": [
                {
                    "name": "",
                    "type": "address",
                    "internalType": "address"
                }
            ],
            "stateMutability": "view"
        },
        {
            "type": "function",
            "name": "gameStats",
            "inputs": [],
            "outputs": [
                {
                    "name": "totalGames",
                    "type": "uint256",
                    "internalType": "uint256"
                },
                {
                    "name": "completedGames",
                    "type": "uint256",
                    "internalType": "uint256"
                },
                {
                    "name": "cancelledGames",
                    "type": "uint256",
                    "internalType": "uint256"
                },
                {
                    "name": "totalPlayTime",
                    "type": "uint256",
                    "internalType": "uint256"
                },
                {
                    "name": "averageGameDuration",
                    "type": "uint256",
                    "internalType": "uint256"
                },
                {
                    "name": "totalShotsAcrossGames",
                    "type": "uint256",
                    "internalType": "uint256"
                }
            ],
            "stateMutability": "view"
        },
        {
            "type": "function",
            "name": "games",
            "inputs": [
                {
                    "name": "",
                    "type": "uint256",
                    "internalType": "uint256"
                }
            ],
            "outputs": [
                {
                    "name": "",
                    "type": "address",
                    "internalType": "address"
                }
            ],
            "stateMutability": "view"
        },
        {
            "type": "function",
            "name": "getGameStats",
            "inputs": [],
            "outputs": [
                {
                    "name": "totalGames",
                    "type": "uint256",
                    "internalType": "uint256"
                },
                {
                    "name": "completedGames",
                    "type": "uint256",
                    "internalType": "uint256"
                },
                {
                    "name": "cancelledGames",
                    "type": "uint256",
                    "internalType": "uint256"
                },
                {
                    "name": "averageDuration",
                    "type": "uint256",
                    "internalType": "uint256"
                },
                {
                    "name": "totalShots",
                    "type": "uint256",
                    "internalType": "uint256"
                }
            ],
            "stateMutability": "view"
        },
        {
            "type": "function",
            "name": "getLeaderboard",
            "inputs": [
                {
                    "name": "limit",
                    "type": "uint256",
                    "internalType": "uint256"
                }
            ],
            "outputs": [
                {
                    "name": "entries",
                    "type": "tuple[]",
                    "internalType": "struct GameFactoryWithStats.LeaderboardEntry[]",
                    "components": [
                        {
                            "name": "player",
                            "type": "address",
                            "internalType": "address"
                        },
                        {
                            "name": "wins",
                            "type": "uint256",
                            "internalType": "uint256"
                        },
                        {
                            "name": "winRate",
                            "type": "uint256",
                            "internalType": "uint256"
                        },
                        {
                            "name": "currentStreak",
                            "type": "uint256",
                            "internalType": "uint256"
                        },
                        {
                            "name": "bestStreak",
                            "type": "uint256",
                            "internalType": "uint256"
                        }
                    ]
                }
            ],
            "stateMutability": "view"
        },
        {
            "type": "function",
            "name": "getPlayerGames",
            "inputs": [
                {
                    "name": "player",
                    "type": "address",
                    "internalType": "address"
                }
            ],
            "outputs": [
                {
                    "name": "gameIds",
                    "type": "uint256[]",
                    "internalType": "uint256[]"
                }
            ],
            "stateMutability": "view"
        },
        {
            "type": "function",
            "name": "getPlayerStats",
            "inputs": [
                {
                    "name": "player",
                    "type": "address",
                    "internalType": "address"
                }
            ],
            "outputs": [
                {
                    "name": "stats",
                    "type": "tuple",
                    "internalType": "struct GameFactoryWithStats.PlayerStats",
                    "components": [
                        {
                            "name": "totalGames",
                            "type": "uint256",
                            "internalType": "uint256"
                        },
                        {
                            "name": "wins",
                            "type": "uint256",
                            "internalType": "uint256"
                        },
                        {
                            "name": "losses",
                            "type": "uint256",
                            "internalType": "uint256"
                        },
                        {
                            "name": "winStreak",
                            "type": "uint256",
                            "internalType": "uint256"
                        },
                        {
                            "name": "bestWinStreak",
                            "type": "uint256",
                            "internalType": "uint256"
                        },
                        {
                            "name": "totalShipsDestroyed",
                            "type": "uint256",
                            "internalType": "uint256"
                        },
                        {
                            "name": "totalGameDuration",
                            "type": "uint256",
                            "internalType": "uint256"
                        },
                        {
                            "name": "totalRewardsEarned",
                            "type": "uint256",
                            "internalType": "uint256"
                        },
                        {
                            "name": "firstGameTime",
                            "type": "uint256",
                            "internalType": "uint256"
                        },
                        {
                            "name": "lastGameTime",
                            "type": "uint256",
                            "internalType": "uint256"
                        }
                    ]
                }
            ],
            "stateMutability": "view"
        },
        {
            "type": "function",
            "name": "getRoleAdmin",
            "inputs": [
                {
                    "name": "role",
                    "type": "bytes32",
                    "internalType": "bytes32"
                }
            ],
            "outputs": [
                {
                    "name": "",
                    "type": "bytes32",
                    "internalType": "bytes32"
                }
            ],
            "stateMutability": "view"
        },
        {
            "type": "function",
            "name": "grantRole",
            "inputs": [
                {
                    "name": "role",
                    "type": "bytes32",
                    "internalType": "bytes32"
                },
                {
                    "name": "account",
                    "type": "address",
                    "internalType": "address"
                }
            ],
            "outputs": [],
            "stateMutability": "nonpayable"
        },
        {
            "type": "function",
            "name": "hasRole",
            "inputs": [
                {
                    "name": "role",
                    "type": "bytes32",
                    "internalType": "bytes32"
                },
                {
                    "name": "account",
                    "type": "address",
                    "internalType": "address"
                }
            ],
            "outputs": [
                {
                    "name": "",
                    "type": "bool",
                    "internalType": "bool"
                }
            ],
            "stateMutability": "view"
        },
        {
            "type": "function",
            "name": "pause",
            "inputs": [],
            "outputs": [],
            "stateMutability": "nonpayable"
        },
        {
            "type": "function",
            "name": "paused",
            "inputs": [],
            "outputs": [
                {
                    "name": "",
                    "type": "bool",
                    "internalType": "bool"
                }
            ],
            "stateMutability": "view"
        },
        {
            "type": "function",
            "name": "playerGames",
            "inputs": [
                {
                    "name": "",
                    "type": "address",
                    "internalType": "address"
                },
                {
                    "name": "",
                    "type": "uint256",
                    "internalType": "uint256"
                }
            ],
            "outputs": [
                {
                    "name": "",
                    "type": "uint256",
                    "internalType": "uint256"
                }
            ],
            "stateMutability": "view"
        },
        {
            "type": "function",
            "name": "playerStats",
            "inputs": [
                {
                    "name": "",
                    "type": "address",
                    "internalType": "address"
                }
            ],
            "outputs": [
                {
                    "name": "totalGames",
                    "type": "uint256",
                    "internalType": "uint256"
                },
                {
                    "name": "wins",
                    "type": "uint256",
                    "internalType": "uint256"
                },
                {
                    "name": "losses",
                    "type": "uint256",
                    "internalType": "uint256"
                },
                {
                    "name": "winStreak",
                    "type": "uint256",
                    "internalType": "uint256"
                },
                {
                    "name": "bestWinStreak",
                    "type": "uint256",
                    "internalType": "uint256"
                },
                {
                    "name": "totalShipsDestroyed",
                    "type": "uint256",
                    "internalType": "uint256"
                },
                {
                    "name": "totalGameDuration",
                    "type": "uint256",
                    "internalType": "uint256"
                },
                {
                    "name": "totalRewardsEarned",
                    "type": "uint256",
                    "internalType": "uint256"
                },
                {
                    "name": "firstGameTime",
                    "type": "uint256",
                    "internalType": "uint256"
                },
                {
                    "name": "lastGameTime",
                    "type": "uint256",
                    "internalType": "uint256"
                }
            ],
            "stateMutability": "view"
        },
        {
            "type": "function",
            "name": "renounceRole",
            "inputs": [
                {
                    "name": "role",
                    "type": "bytes32",
                    "internalType": "bytes32"
                },
                {
                    "name": "callerConfirmation",
                    "type": "address",
                    "internalType": "address"
                }
            ],
            "outputs": [],
            "stateMutability": "nonpayable"
        },
        {
            "type": "function",
            "name": "reportGameCompletion",
            "inputs": [
                {
                    "name": "gameId",
                    "type": "uint256",
                    "internalType": "uint256"
                },
                {
                    "name": "winner",
                    "type": "address",
                    "internalType": "address"
                },
                {
                    "name": "duration",
                    "type": "uint256",
                    "internalType": "uint256"
                },
                {
                    "name": "shots",
                    "type": "uint256",
                    "internalType": "uint256"
                },
                {
                    "name": "endReason",
                    "type": "string",
                    "internalType": "string"
                }
            ],
            "outputs": [],
            "stateMutability": "nonpayable"
        },
        {
            "type": "function",
            "name": "revokeRole",
            "inputs": [
                {
                    "name": "role",
                    "type": "bytes32",
                    "internalType": "bytes32"
                },
                {
                    "name": "account",
                    "type": "address",
                    "internalType": "address"
                }
            ],
            "outputs": [],
            "stateMutability": "nonpayable"
        },
        {
            "type": "function",
            "name": "setBackend",
            "inputs": [
                {
                    "name": "newBackend",
                    "type": "address",
                    "internalType": "address"
                }
            ],
            "outputs": [],
            "stateMutability": "nonpayable"
        },
        {
            "type": "function",
            "name": "setImplementation",
            "inputs": [
                {
                    "name": "newImplementation",
                    "type": "address",
                    "internalType": "address"
                }
            ],
            "outputs": [],
            "stateMutability": "nonpayable"
        },
        {
            "type": "function",
            "name": "setShipToken",
            "inputs": [
                {
                    "name": "_shipToken",
                    "type": "address",
                    "internalType": "address"
                }
            ],
            "outputs": [],
            "stateMutability": "nonpayable"
        },
        {
            "type": "function",
            "name": "shipToken",
            "inputs": [],
            "outputs": [
                {
                    "name": "",
                    "type": "address",
                    "internalType": "contract SHIPToken"
                }
            ],
            "stateMutability": "view"
        },
        {
            "type": "function",
            "name": "supportsInterface",
            "inputs": [
                {
                    "name": "interfaceId",
                    "type": "bytes4",
                    "internalType": "bytes4"
                }
            ],
            "outputs": [
                {
                    "name": "",
                    "type": "bool",
                    "internalType": "bool"
                }
            ],
            "stateMutability": "view"
        },
        {
            "type": "function",
            "name": "unpause",
            "inputs": [],
            "outputs": [],
            "stateMutability": "nonpayable"
        },
        {
            "type": "event",
            "name": "BackendUpdated",
            "inputs": [
                {
                    "name": "oldBackend",
                    "type": "address",
                    "indexed": true,
                    "internalType": "address"
                },
                {
                    "name": "newBackend",
                    "type": "address",
                    "indexed": true,
                    "internalType": "address"
                }
            ],
            "anonymous": false
        },
        {
            "type": "event",
            "name": "GameCompleted",
            "inputs": [
                {
                    "name": "gameId",
                    "type": "uint256",
                    "indexed": true,
                    "internalType": "uint256"
                },
                {
                    "name": "winner",
                    "type": "address",
                    "indexed": true,
                    "internalType": "address"
                },
                {
                    "name": "duration",
                    "type": "uint256",
                    "indexed": false,
                    "internalType": "uint256"
                },
                {
                    "name": "shots",
                    "type": "uint256",
                    "indexed": false,
                    "internalType": "uint256"
                }
            ],
            "anonymous": false
        },
        {
            "type": "event",
            "name": "GameCreated",
            "inputs": [
                {
                    "name": "gameId",
                    "type": "uint256",
                    "indexed": true,
                    "internalType": "uint256"
                },
                {
                    "name": "gameAddress",
                    "type": "address",
                    "indexed": true,
                    "internalType": "address"
                },
                {
                    "name": "player1",
                    "type": "address",
                    "indexed": true,
                    "internalType": "address"
                },
                {
                    "name": "player2",
                    "type": "address",
                    "indexed": false,
                    "internalType": "address"
                }
            ],
            "anonymous": false
        },
        {
            "type": "event",
            "name": "ImplementationUpdated",
            "inputs": [
                {
                    "name": "oldImplementation",
                    "type": "address",
                    "indexed": true,
                    "internalType": "address"
                },
                {
                    "name": "newImplementation",
                    "type": "address",
                    "indexed": true,
                    "internalType": "address"
                }
            ],
            "anonymous": false
        },
        {
            "type": "event",
            "name": "Paused",
            "inputs": [
                {
                    "name": "account",
                    "type": "address",
                    "indexed": false,
                    "internalType": "address"
                }
            ],
            "anonymous": false
        },
        {
            "type": "event",
            "name": "RewardsDistributed",
            "inputs": [
                {
                    "name": "gameId",
                    "type": "uint256",
                    "indexed": true,
                    "internalType": "uint256"
                },
                {
                    "name": "player",
                    "type": "address",
                    "indexed": true,
                    "internalType": "address"
                },
                {
                    "name": "amount",
                    "type": "uint256",
                    "indexed": false,
                    "internalType": "uint256"
                },
                {
                    "name": "isWinner",
                    "type": "bool",
                    "indexed": false,
                    "internalType": "bool"
                }
            ],
            "anonymous": false
        },
        {
            "type": "event",
            "name": "RoleAdminChanged",
            "inputs": [
                {
                    "name": "role",
                    "type": "bytes32",
                    "indexed": true,
                    "internalType": "bytes32"
                },
                {
                    "name": "previousAdminRole",
                    "type": "bytes32",
                    "indexed": true,
                    "internalType": "bytes32"
                },
                {
                    "name": "newAdminRole",
                    "type": "bytes32",
                    "indexed": true,
                    "internalType": "bytes32"
                }
            ],
            "anonymous": false
        },
        {
            "type": "event",
            "name": "RoleGranted",
            "inputs": [
                {
                    "name": "role",
                    "type": "bytes32",
                    "indexed": true,
                    "internalType": "bytes32"
                },
                {
                    "name": "account",
                    "type": "address",
                    "indexed": true,
                    "internalType": "address"
                },
                {
                    "name": "sender",
                    "type": "address",
                    "indexed": true,
                    "internalType": "address"
                }
            ],
            "anonymous": false
        },
        {
            "type": "event",
            "name": "RoleRevoked",
            "inputs": [
                {
                    "name": "role",
                    "type": "bytes32",
                    "indexed": true,
                    "internalType": "bytes32"
                },
                {
                    "name": "account",
                    "type": "address",
                    "indexed": true,
                    "internalType": "address"
                },
                {
                    "name": "sender",
                    "type": "address",
                    "indexed": true,
                    "internalType": "address"
                }
            ],
            "anonymous": false
        },
        {
            "type": "event",
            "name": "StatsUpdated",
            "inputs": [
                {
                    "name": "player",
                    "type": "address",
                    "indexed": true,
                    "internalType": "address"
                }
            ],
            "anonymous": false
        },
        {
            "type": "event",
            "name": "Unpaused",
            "inputs": [
                {
                    "name": "account",
                    "type": "address",
                    "indexed": false,
                    "internalType": "address"
                }
            ],
            "anonymous": false
        },
        {
            "type": "error",
            "name": "AccessControlBadConfirmation",
            "inputs": []
        },
        {
            "type": "error",
            "name": "AccessControlUnauthorizedAccount",
            "inputs": [
                {
                    "name": "account",
                    "type": "address",
                    "internalType": "address"
                },
                {
                    "name": "neededRole",
                    "type": "bytes32",
                    "internalType": "bytes32"
                }
            ]
        },
        {
            "type": "error",
            "name": "EnforcedPause",
            "inputs": []
        },
        {
            "type": "error",
            "name": "ExpectedPause",
            "inputs": []
        },
        {
            "type": "error",
            "name": "GameNotFound",
            "inputs": []
        },
        {
            "type": "error",
            "name": "InvalidBackend",
            "inputs": []
        },
        {
            "type": "error",
            "name": "InvalidImplementation",
            "inputs": []
        },
        {
            "type": "error",
            "name": "NoGames",
            "inputs": []
        },
        {
            "type": "error",
            "name": "UnauthorizedCaller",
            "inputs": []
        }
    ],
    "bytecode": {
        "object": "0x6080346100d157601f61307838819003918201601f19168301916001600160401b038311848410176100d5578084926060946040528339810103126100d157610047816100e9565b906100606040610059602084016100e9565b92016100e9565b9161006a336100fd565b5061007433610173565b5061007e82610206565b50600680546001600160a01b03199081166001600160a01b0393841617909155600780548216938316939093179092556008805490921692169190911790556001600555604051612d5e908161029a8239f35b5f80fd5b634e487b7160e01b5f52604160045260245ffd5b51906001600160a01b03821682036100d157565b6001600160a01b0381165f9081525f5160206130585f395f51905f52602052604090205460ff1661016e576001600160a01b03165f8181525f5160206130585f395f51905f5260205260408120805460ff191660011790553391905f516020612ff85f395f51905f528180a4600190565b505f90565b6001600160a01b0381165f9081525f5160206130385f395f51905f52602052604090205460ff1661016e576001600160a01b03165f8181525f5160206130385f395f51905f5260205260408120805460ff191660011790553391907f189ab7a9244df0848122154315af71fe140f3db0fe014031783b0946b8c9d2e3905f516020612ff85f395f51905f529080a4600190565b6001600160a01b0381165f9081525f5160206130185f395f51905f52602052604090205460ff1661016e576001600160a01b03165f8181525f5160206130185f395f51905f5260205260408120805460ff191660011790553391907f25cf2b509f2a7f322675b2a5322b182f44ad2c03ac941a0af17c9b178f5d5d5f905f516020612ff85f395f51905f529080a460019056fe6080806040526004361015610012575f80fd5b5f905f3560e01c90816301ffc9a7146121225750806306d1fa7b1461203c578063099e413314611feb5780630a5694c214611f6b578063117a5b9014611f0d578063129daf8414611e2e5780631aff30dd14611dd1578063248a9ca314611d815780632f2ff15d14611d2657806336568abe14611c9c5780633f4ba83a14611be15780634fd66eae14611a7d5780635c975abb14611a3d5780635f221bfe146119ec57806369958ab9146118ee5780638456cb591461185857806391d14854146117e357806392c2becc1461178a578063a217fddf14611750578063a34b46fe14611346578063a6f979ff14610f7a578063b2ebd5541461068d578063b4510e2b14610634578063cdafbbb61461056c578063d547741f14610507578063d68199dc146104a1578063d784d42614610319578063d8bd5c29146102c7578063da7fc24f146101c35763f72c0d8b14610168575f80fd5b346101c057807ffffffffffffffffffffffffffffffffffffffffffffffffffffffffffffffffc3601126101c05760206040517f189ab7a9244df0848122154315af71fe140f3db0fe014031783b0946b8c9d2e38152f35b80fd5b50346101c05760207ffffffffffffffffffffffffffffffffffffffffffffffffffffffffffffffffc3601126101c0576101fb6121de565b6102036124fc565b73ffffffffffffffffffffffffffffffffffffffff811690811561029f5761024d73ffffffffffffffffffffffffffffffffffffffff60075416916102478361282d565b50612652565b50817fffffffffffffffffffffffff000000000000000000000000000000000000000060075416176007557f37f6c561371bb449a598aaf7e5528fc87ad233e82669756cd67fec9c5f665a7b8380a380f35b6004837fc9dcfb33000000000000000000000000000000000000000000000000000000008152fd5b50346101c057807ffffffffffffffffffffffffffffffffffffffffffffffffffffffffffffffffc3601126101c057602073ffffffffffffffffffffffffffffffffffffffff60065416604051908152f35b50346101c05760207ffffffffffffffffffffffffffffffffffffffffffffffffffffffffffffffffc3601126101c0576103516121de565b7f189ab7a9244df0848122154315af71fe140f3db0fe014031783b0946b8c9d2e38252816020526040822073ffffffffffffffffffffffffffffffffffffffff33165f5260205260ff60405f205416156104515773ffffffffffffffffffffffffffffffffffffffff1680156104295773ffffffffffffffffffffffffffffffffffffffff600654827fffffffffffffffffffffffff0000000000000000000000000000000000000000821617600655167faa3f731066a578e5f39b4215468d826cdd15373cbc0dfc9cb9bdc649718ef7da8380a380f35b6004827f68155f9a000000000000000000000000000000000000000000000000000000008152fd5b6044827fe2517d3f000000000000000000000000000000000000000000000000000000008152336004527f189ab7a9244df0848122154315af71fe140f3db0fe014031783b0946b8c9d2e3602452fd5b50346101c057807ffffffffffffffffffffffffffffffffffffffffffffffffffffffffffffffffc3601126101c05760c0600954600a54600b54600c54600d5491600e5493604051958652602086015260408501526060840152608083015260a0820152f35b50346101c05760407ffffffffffffffffffffffffffffffffffffffffffffffffffffffffffffffffc3601126101c057610568600435610545612201565b9061056361055e825f525f602052600160405f20015490565b6125ec565b61292f565b5080f35b50346101c05760207ffffffffffffffffffffffffffffffffffffffffffffffffffffffffffffffffc3601126101c05760406101409173ffffffffffffffffffffffffffffffffffffffff6105bf6121de565b1681526004602052208054906001810154906002810154600382015460048301546005840154906006850154926007860154946009600888015497015497604051998a5260208a015260408901526060880152608087015260a086015260c085015260e0840152610100830152610120820152f35b50346101c057807ffffffffffffffffffffffffffffffffffffffffffffffffffffffffffffffffc3601126101c05760206040517f06917144a7bc7c0a741c115e685c4bb7fdb1687664f73d6ad5e5c80157cae1cd8152f35b50346101c05760a07ffffffffffffffffffffffffffffffffffffffffffffffffffffffffffffffffc3601126101c0576004356106c8612201565b608435919060443560643567ffffffffffffffff8511610f765736602386011215610f765784600401359267ffffffffffffffff8411610f4957866040519661073960207fffffffffffffffffffffffffffffffffffffffffffffffffffffffffffffffe0601f89011601896122e4565b85885260208801953660248284010111610f455780602460209301883788010152610762612564565b848752600260205273ffffffffffffffffffffffffffffffffffffffff604088205416938415610f1d57604051967fd30895e4000000000000000000000000000000000000000000000000000000008852602088600481895afa958615610ef0576004988a97610efb575b50602090604051998a80927f59a5f12d0000000000000000000000000000000000000000000000000000000082525afa978815610ef0578998610ebe575b5060209061084561081d600a54612325565b80600a5561082d88600c5461246c565b80600c5561083d88600e5461246c565b600e55612421565b600d55604051928391518091835e8101600f8152030190206108678154612325565b905573ffffffffffffffffffffffffffffffffffffffff8416938488526004602052604088206108978154612325565b90558488526004602052600660408920016108b385825461246c565b9055848852600460205242600960408a20015573ffffffffffffffffffffffffffffffffffffffff80881692838a52600460205260408a206108f58154612325565b9055838a526004602052600660408b200161091187825461246c565b9055838a52600460205242600960408c200155169687155f14610d5357858952600460205288600360408220015582895260046020528860036040822001555b8860405191877f8c5337ea9b045e5ee60a0fd9e61ce70d04f149225d2119ddf896bcb7dda2e4058380a2847f8c5337ea9b045e5ee60a0fd9e61ce70d04f149225d2119ddf896bcb7dda2e4058380a273ffffffffffffffffffffffffffffffffffffffff60085416907f89afec6d000000000000000000000000000000000000000000000000000000008452602084600481855afa938415610d48578394610d11575b50604051907fd17dced2000000000000000000000000000000000000000000000000000000008252602082600481865afa928315610d06578b968d938695610cb5575b50604080517fcfbb35ce00000000000000000000000000000000000000000000000000000000815273ffffffffffffffffffffffffffffffffffffffff929092166004830152848d1460248301819052604483018a90527fa3a193cd49fb44d3709b2d13235998e900d960268b8356d3c2233340fd215c389d919c9b9a99989796958795610b68956020958c95939492939286929091908890829060649082908e905af19081610c9a575b50610c2a575b5050508a73ffffffffffffffffffffffffffffffffffffffff6008541692149788918f51968795869485937fcfbb35ce0000000000000000000000000000000000000000000000000000000085526004850160409194939273ffffffffffffffffffffffffffffffffffffffff6060830196168252151560208201520152565b03925af1809250610bfd575b50610b8d575b505050505082519182526020820152a380f35b7f081ba4152610d5dedd994b0baa815d9644db3c57fca43480452f89a1f2d25bad92610bbf918315610bf5579061246c565b848c5260046020526007888d2001610bd882825461246c565b905587519081529015156020820152604090a35f85818080610b7a565b508c9061246c565b610c1e9060203d602011610c23575b610c1681836122e4565b810190612ad9565b610b74565b503d610c0c565b7f081ba4152610d5dedd994b0baa815d9644db3c57fca43480452f89a1f2d25bad908015610c9057610c5c8b8e61246c565b848b526004895260406007908c2001610c7682825461246c565b9055604080519182529115156020820152a35f8381610ae8565b610c5c8a8e61246c565b610cb090893d8b11610c2357610c1681836122e4565b610ae2565b9695509250925097969594506020843d602011610cfe575b81610cda602093836122e4565b81010312610cfa579251959694959394899492938c93928c929187610a37565b5f80fd5b3d9150610ccd565b6040513d86823e3d90fd5b925092506020823d602011610d40575b81610d2e602093836122e4565b81010312610cfa578a9151925f6109f4565b3d9150610d21565b6040513d85823e3d90fd5b878603610e0c578589526004602052600160408a2001610d738154612325565b90558589526004602052600360408a2001610d8e8154612325565b90558589526004602052600360408a200154868a526004602052600460408b20015410610de7575b8289526004602052600260408a2001610dcf8154612325565b90558289526004602052886003604082200155610951565b8589526004602052600360408a200154868a526004602052600460408b200155610db6565b8289526004602052600160408a2001610e258154612325565b90558289526004602052600360408a2001610e408154612325565b90558289526004602052600360408a200154838a526004602052600460408b20015410610e99575b8589526004602052600260408a2001610e818154612325565b90558589526004602052886003604082200155610951565b8289526004602052600360408a200154838a526004602052600460408b200155610e68565b6020919850610ee290823d8411610ee9575b610eda81836122e4565b8101906124d0565b979061080b565b503d610ed0565b6040513d8b823e3d90fd5b6020919750610f1690823d8411610ee957610eda81836122e4565b96906107cd565b6004887f26cf189c000000000000000000000000000000000000000000000000000000008152fd5b8280fd5b6024877f4e487b710000000000000000000000000000000000000000000000000000000081526041600452fd5b8580fd5b50346101c05760407ffffffffffffffffffffffffffffffffffffffffffffffffffffffffffffffffc3601126101c057610fb26121de565b610fba612201565b90610fc3612564565b610fcb6129f7565b73ffffffffffffffffffffffffffffffffffffffff82169073ffffffffffffffffffffffffffffffffffffffff8116918083146112e857821515806112df575b15611281576005549361101d85612325565b60055573ffffffffffffffffffffffffffffffffffffffff600754166040519060208201907f3641e08300000000000000000000000000000000000000000000000000000000825287602484015286604484015284606484015230608484015260a483015260a4825261109160c4836122e4565b73ffffffffffffffffffffffffffffffffffffffff60065416906040519261026c928385019385851067ffffffffffffffff861117611254578593606095937fffffffffffffffffffffffffffffffffffffffffffffffffffffffffffffffe093601f93612af288398552604060208601525180918160408701528786015e8c86828601015201160103019087f080156112495785926020977f63a3d7f77dca07e334cb3a181bbcbe04540c8e7e554a9832e4234acaac210fa69373ffffffffffffffffffffffffffffffffffffffff8a9416968683526002855260408320887fffffffffffffffffffffffff0000000000000000000000000000000000000000825416179055888352600385526111ac8760408520612479565b838352600385526111c08760408520612479565b8883526004855260086040842001541561122a575b508282526004845260086040832001541561120a575b50506111f8600954612325565b600955604051908152a4604051908152f35b8183611223935260048552600860404292200155612a2b565b5f806111eb565b6112439089845260048652426008604086200155612a2b565b5f6111d5565b6040513d88823e3d90fd5b60248c7f4e487b710000000000000000000000000000000000000000000000000000000081526041600452fd5b60646040517f08c379a000000000000000000000000000000000000000000000000000000000815260206004820152601660248201527f496e76616c696420706c617965722061646472657373000000000000000000006044820152fd5b5080151561100b565b60646040517f08c379a000000000000000000000000000000000000000000000000000000000815260206004820152601c60248201527f43616e6e6f7420706c617920616761696e737420796f757273656c66000000006044820152fd5b50346101c05760207ffffffffffffffffffffffffffffffffffffffffffffffffffffffffffffffffc3601126101c0576010546004358181111561174a575080915b61139183612397565b9261139b83612397565b93825b8481106115f2575082917fffffffffffffffffffffffffffffffffffffffffffffffffffffffffffffffff85019185831191825b6115c5578385101561150757855b8588038881116114da577fffffffffffffffffffffffffffffffffffffffffffffffffffffffffffffffff81019081116114da578110156114cd576020611427828b612458565b51015160018201908183116114a05790600192916020611447838e612458565b51015111611457575b50016113e0565b808b6114926114999361146a8684612458565b51926114768282612458565b516114818883612458565b5261148c8782612458565b50612458565b528b612458565b505f611450565b6024897f4e487b710000000000000000000000000000000000000000000000000000000081526011600452fd5b50600190940193826113d2565b6024887f4e487b710000000000000000000000000000000000000000000000000000000081526011600452fd5b85925087835b82811061159b578385604051918291602083016020845282518091526020604085019301915b818110611541575050500390f35b91935091602060a06001926080875173ffffffffffffffffffffffffffffffffffffffff81511683528481015185840152604081015160408401526060810151606084015201516080820152019401910191849392611533565b806115a860019284612458565b516115b38287612458565b526115be8186612458565b500161150d565b6024867f4e487b710000000000000000000000000000000000000000000000000000000081526011600452fd5b73ffffffffffffffffffffffffffffffffffffffff61161082612224565b90549060031b1c16808552600460205260408520604051906116318261227e565b80548083526001820154928360208201526002830154604082015260038301549160608201928352600960048501549460808401958652600581015460a0850152600681015460c0850152600781015460e08501526008810154610100850152015461012083015215155f1461173b57612710840290848204612710148515171561170e5760019695949392916116c9915190612421565b905b51915192604051946116dc866122c8565b855260208501526040840152606083015260808201526116fc8289612458565b526117078188612458565b500161139e565b60248a7f4e487b710000000000000000000000000000000000000000000000000000000081526011600452fd5b509060019493929188906116cb565b91611388565b50346101c057807ffffffffffffffffffffffffffffffffffffffffffffffffffffffffffffffffc3601126101c057602090604051908152f35b50346101c057807ffffffffffffffffffffffffffffffffffffffffffffffffffffffffffffffffc3601126101c05760206040517f25cf2b509f2a7f322675b2a5322b182f44ad2c03ac941a0af17c9b178f5d5d5f8152f35b50346101c05760407ffffffffffffffffffffffffffffffffffffffffffffffffffffffffffffffffc3601126101c05773ffffffffffffffffffffffffffffffffffffffff6040611832612201565b926004358152806020522091165f52602052602060ff60405f2054166040519015158152f35b50346101c057807ffffffffffffffffffffffffffffffffffffffffffffffffffffffffffffffffc3601126101c05761188f6124fc565b6118976129f7565b60017fffffffffffffffffffffffffffffffffffffffffffffffffffffffffffffff00815416176001557f62e78cea01bee320cd4e420270b5ea74000d11b0c9f74754ebdbfc544b05a2586020604051338152a180f35b5034610cfa5760207ffffffffffffffffffffffffffffffffffffffffffffffffffffffffffffffffc360112610cfa57611926612564565b6004355f52600260205273ffffffffffffffffffffffffffffffffffffffff60405f20541680156119c457803b15610cfa575f80916004604051809481937fd84c1ac90000000000000000000000000000000000000000000000000000000083525af180156119b9576119a6575b506119a0600b54612325565b600b5580f35b6119b291505f906122e4565b5f5f611994565b6040513d5f823e3d90fd5b7f26cf189c000000000000000000000000000000000000000000000000000000005f5260045ffd5b34610cfa575f7ffffffffffffffffffffffffffffffffffffffffffffffffffffffffffffffffc360112610cfa57602073ffffffffffffffffffffffffffffffffffffffff60085416604051908152f35b34610cfa575f7ffffffffffffffffffffffffffffffffffffffffffffffffffffffffffffffffc360112610cfa57602060ff600154166040519015158152f35b34610cfa5760207ffffffffffffffffffffffffffffffffffffffffffffffffffffffffffffffffc360112610cfa5773ffffffffffffffffffffffffffffffffffffffff611ac96121de565b5f610120604051611ad98161227e565b8281528260208201528260408201528260608201528260808201528260a08201528260c08201528260e0820152826101008201520152165f52600460205261014060405f20604051611b2a8161227e565b81549182825260018101546020830190815260028201546040840190815260038301546060850190815260048401546080860190815260058501549160a0870192835260068601549360c0880194855260078701549560e08901968752610120600960088a0154996101008c019a8b5201549901988952604051998a525160208a01525160408901525160608801525160808701525160a08601525160c08501525160e08401525161010083015251610120820152f35b34610cfa575f7ffffffffffffffffffffffffffffffffffffffffffffffffffffffffffffffffc360112610cfa57611c176124fc565b60015460ff811615611c74577fffffffffffffffffffffffffffffffffffffffffffffffffffffffffffffff00166001557f5db9ee0a495bf2e6ff9c91a7834c1ba4fdd244a5e8aa4e537bd38aeae4b073aa6020604051338152a1005b7f8dfc202b000000000000000000000000000000000000000000000000000000005f5260045ffd5b34610cfa5760407ffffffffffffffffffffffffffffffffffffffffffffffffffffffffffffffffc360112610cfa57611cd3612201565b3373ffffffffffffffffffffffffffffffffffffffff821603611cfe57611cfc9060043561292f565b005b7f6697b232000000000000000000000000000000000000000000000000000000005f5260045ffd5b34610cfa5760407ffffffffffffffffffffffffffffffffffffffffffffffffffffffffffffffffc360112610cfa57611cfc600435611d63612201565b90611d7c61055e825f525f602052600160405f20015490565b61275b565b34610cfa5760207ffffffffffffffffffffffffffffffffffffffffffffffffffffffffffffffffc360112610cfa576020611dc96004355f525f602052600160405f20015490565b604051908152f35b34610cfa575f7ffffffffffffffffffffffffffffffffffffffffffffffffffffffffffffffffc360112610cfa5760a0600954600a54600b54600d5490600e54926040519485526020850152604084015260608301526080820152f35b34610cfa5760207ffffffffffffffffffffffffffffffffffffffffffffffffffffffffffffffffc360112610cfa5773ffffffffffffffffffffffffffffffffffffffff611e7a6121de565b165f52600360205260405f20604051806020835491828152019081935f5260205f20905f5b818110611ef75750505081611eb59103826122e4565b604051918291602083019060208452518091526040830191905f5b818110611ede575050500390f35b8251845285945060209384019390920191600101611ed0565b8254845260209093019260019283019201611e9f565b34610cfa5760207ffffffffffffffffffffffffffffffffffffffffffffffffffffffffffffffffc360112610cfa576004355f526002602052602073ffffffffffffffffffffffffffffffffffffffff60405f205416604051908152f35b34610cfa5760407ffffffffffffffffffffffffffffffffffffffffffffffffffffffffffffffffc360112610cfa57611fa26121de565b73ffffffffffffffffffffffffffffffffffffffff60243591165f52600360205260405f208054821015610cfa57602091611fdc91612269565b90549060031b1c604051908152f35b34610cfa575f7ffffffffffffffffffffffffffffffffffffffffffffffffffffffffffffffffc360112610cfa57602073ffffffffffffffffffffffffffffffffffffffff60075416604051908152f35b34610cfa5760207ffffffffffffffffffffffffffffffffffffffffffffffffffffffffffffffffc360112610cfa5773ffffffffffffffffffffffffffffffffffffffff6120886121de565b6120906124fc565b1680156120c4577fffffffffffffffffffffffff000000000000000000000000000000000000000060085416176008555f80f35b60646040517f08c379a000000000000000000000000000000000000000000000000000000000815260206004820152601560248201527f496e76616c696420746f6b656e206164647265737300000000000000000000006044820152fd5b34610cfa5760207ffffffffffffffffffffffffffffffffffffffffffffffffffffffffffffffffc360112610cfa57600435907fffffffff000000000000000000000000000000000000000000000000000000008216809203610cfa57817f7965db0b00000000000000000000000000000000000000000000000000000000602093149081156121b4575b5015158152f35b7f01ffc9a700000000000000000000000000000000000000000000000000000000915014836121ad565b6004359073ffffffffffffffffffffffffffffffffffffffff82168203610cfa57565b6024359073ffffffffffffffffffffffffffffffffffffffff82168203610cfa57565b60105481101561223c5760105f5260205f2001905f90565b7f4e487b71000000000000000000000000000000000000000000000000000000005f52603260045260245ffd5b805482101561223c575f5260205f2001905f90565b610140810190811067ffffffffffffffff82111761229b57604052565b7f4e487b71000000000000000000000000000000000000000000000000000000005f52604160045260245ffd5b60a0810190811067ffffffffffffffff82111761229b57604052565b90601f7fffffffffffffffffffffffffffffffffffffffffffffffffffffffffffffffe0910116810190811067ffffffffffffffff82111761229b57604052565b7fffffffffffffffffffffffffffffffffffffffffffffffffffffffffffffffff81146123525760010190565b7f4e487b71000000000000000000000000000000000000000000000000000000005f52601160045260245ffd5b67ffffffffffffffff811161229b5760051b60200190565b906123a18261237f565b6123ae60405191826122e4565b8281527fffffffffffffffffffffffffffffffffffffffffffffffffffffffffffffffe06123dc829461237f565b01905f5b8281106123ec57505050565b6020906040516123fb816122c8565b5f81525f838201525f60408201525f60608201525f6080820152828285010152016123e0565b811561242b570490565b7f4e487b71000000000000000000000000000000000000000000000000000000005f52601260045260245ffd5b805182101561223c5760209160051b010190565b9190820180921161235257565b80546801000000000000000081101561229b5761249b91600182018155612269565b7fffffffffffffffffffffffffffffffffffffffffffffffffffffffffffffffff829392549160031b92831b921b1916179055565b90816020910312610cfa575173ffffffffffffffffffffffffffffffffffffffff81168103610cfa5790565b335f9081527fad3228b676f7d3cd4284a5443f17f1962b36e491b30a40b2405849e597ba5fb5602052604090205460ff161561253457565b7fe2517d3f000000000000000000000000000000000000000000000000000000005f52336004525f60245260445ffd5b335f9081527f48c7bdbf6e737fbd4f28e9ac2ee21ca1cecfc20cb008a302f41dcc98ef949678602052604090205460ff161561259c57565b7fe2517d3f000000000000000000000000000000000000000000000000000000005f52336004527f25cf2b509f2a7f322675b2a5322b182f44ad2c03ac941a0af17c9b178f5d5d5f60245260445ffd5b805f525f60205260405f2073ffffffffffffffffffffffffffffffffffffffff33165f5260205260ff60405f205416156126235750565b7fe2517d3f000000000000000000000000000000000000000000000000000000005f523360045260245260445ffd5b73ffffffffffffffffffffffffffffffffffffffff81165f9081527f48c7bdbf6e737fbd4f28e9ac2ee21ca1cecfc20cb008a302f41dcc98ef949678602052604090205460ff166127565773ffffffffffffffffffffffffffffffffffffffff165f8181527f48c7bdbf6e737fbd4f28e9ac2ee21ca1cecfc20cb008a302f41dcc98ef9496786020526040812080547fffffffffffffffffffffffffffffffffffffffffffffffffffffffffffffff001660011790553391907f25cf2b509f2a7f322675b2a5322b182f44ad2c03ac941a0af17c9b178f5d5d5f907f2f8788117e7eff1d82e926ec794901d17c78024a50270940304540a733656f0d9080a4600190565b505f90565b805f525f60205260405f2073ffffffffffffffffffffffffffffffffffffffff83165f5260205260ff60405f205416155f1461282757805f525f60205260405f2073ffffffffffffffffffffffffffffffffffffffff83165f5260205260405f2060017fffffffffffffffffffffffffffffffffffffffffffffffffffffffffffffff0082541617905573ffffffffffffffffffffffffffffffffffffffff339216907f2f8788117e7eff1d82e926ec794901d17c78024a50270940304540a733656f0d5f80a4600190565b50505f90565b73ffffffffffffffffffffffffffffffffffffffff81165f9081527f48c7bdbf6e737fbd4f28e9ac2ee21ca1cecfc20cb008a302f41dcc98ef949678602052604090205460ff16156127565773ffffffffffffffffffffffffffffffffffffffff165f8181527f48c7bdbf6e737fbd4f28e9ac2ee21ca1cecfc20cb008a302f41dcc98ef9496786020526040812080547fffffffffffffffffffffffffffffffffffffffffffffffffffffffffffffff001690553391907f25cf2b509f2a7f322675b2a5322b182f44ad2c03ac941a0af17c9b178f5d5d5f907ff6391f5c32d9c69d2a47ea670b442974b53935d1edc7fd64eb21e047a839171b9080a4600190565b805f525f60205260405f2073ffffffffffffffffffffffffffffffffffffffff83165f5260205260ff60405f2054165f1461282757805f525f60205260405f2073ffffffffffffffffffffffffffffffffffffffff83165f5260205260405f207fffffffffffffffffffffffffffffffffffffffffffffffffffffffffffffff00815416905573ffffffffffffffffffffffffffffffffffffffff339216907ff6391f5c32d9c69d2a47ea670b442974b53935d1edc7fd64eb21e047a839171b5f80a4600190565b60ff60015416612a0357565b7fd93c0665000000000000000000000000000000000000000000000000000000005f5260045ffd5b73ffffffffffffffffffffffffffffffffffffffff16805f52601160205260ff60405f20541615612a595750565b6010546801000000000000000081101561229b57806001612a7d9201601055612224565b81549060031b9073ffffffffffffffffffffffffffffffffffffffff84831b921b19161790555f52601160205260405f2060017fffffffffffffffffffffffffffffffffffffffffffffffffffffffffffffff00825416179055565b90816020910312610cfa57518015158103610cfa579056fe60806040523461015e575f61026c908138038061001b81610162565b938439820160408382031261015e5782516001600160a01b0381169390919084830361015e576020810151906001600160401b03821161015e57019381601f8601121561015e5784516100756100708261019b565b610162565b9581875260208701936020838301011161015e57815f926020809301865e87010152823b1561014c577f360894a13ba1a3210667c828492db98dca3e2076cc3735a920a3ca505d382bbc80546001600160a01b031916821790557fbc7cd75a20ee27fd9adebab32041f755214dbc6bffa90cc0225b39da2e5c2d3b5f80a28351156101435782809161012a955190845af4903d1561013a573d61011a6100708261019b565b908152809360203d92013e6101b6565b505b604051605790816102158239f35b606092506101b6565b5050505061012c565b634c9c8ce360e01b5f5260045260245ffd5b5f80fd5b6040519190601f01601f191682016001600160401b0381118382101761018757604052565b634e487b7160e01b5f52604160045260245ffd5b6001600160401b03811161018757601f01601f191660200190565b906101da57508051156101cb57805190602001fd5b63d6bda27560e01b5f5260045ffd5b8151158061020b575b6101eb575090565b639996b31560e01b5f9081526001600160a01b0391909116600452602490fd5b50803b156101e356fe60806040525f8073ffffffffffffffffffffffffffffffffffffffff7f360894a13ba1a3210667c828492db98dca3e2076cc3735a920a3ca505d382bbc5416368280378136915af43d5f803e156053573d5ff35b3d5ffd2f8788117e7eff1d82e926ec794901d17c78024a50270940304540a733656f0d48c7bdbf6e737fbd4f28e9ac2ee21ca1cecfc20cb008a302f41dcc98ef949678cc1f69e0eef30e6cab9eba078dfde64e8255bf01f21b8122b031b67f051e2292ad3228b676f7d3cd4284a5443f17f1962b36e491b30a40b2405849e597ba5fb5",
        "linkReferences": {}
    },
    "methodIdentifiers": {
        "BACKEND_ROLE()": "92c2becc",
        "DEFAULT_ADMIN_ROLE()": "a217fddf",
        "STATS_ROLE()": "b4510e2b",
        "UPGRADER_ROLE()": "f72c0d8b",
        "backend()": "099e4133",
        "cancelGame(uint256)": "69958ab9",
        "createGame(address,address)": "a6f979ff",
        "currentImplementation()": "d8bd5c29",
        "gameStats()": "d68199dc",
        "games(uint256)": "117a5b90",
        "getGameStats()": "1aff30dd",
        "getLeaderboard(uint256)": "a34b46fe",
        "getPlayerGames(address)": "129daf84",
        "getPlayerStats(address)": "4fd66eae",
        "getRoleAdmin(bytes32)": "248a9ca3",
        "grantRole(bytes32,address)": "2f2ff15d",
        "hasRole(bytes32,address)": "91d14854",
        "pause()": "8456cb59",
        "paused()": "5c975abb",
        "playerGames(address,uint256)": "0a5694c2",
        "playerStats(address)": "cdafbbb6",
        "renounceRole(bytes32,address)": "36568abe",
        "reportGameCompletion(uint256,address,uint256,uint256,string)": "b2ebd554",
        "revokeRole(bytes32,address)": "d547741f",
        "setBackend(address)": "da7fc24f",
        "setImplementation(address)": "d784d426",
        "setShipToken(address)": "06d1fa7b",
        "shipToken()": "5f221bfe",
        "supportsInterface(bytes4)": "01ffc9a7",
        "unpause()": "3f4ba83a"
    },
    "id": 47
}