{"abi":[{"type":"constructor","inputs":[{"name":"_admin","type":"address","internalType":"address"},{"name":"_rewardDistributor","type":"address","internalType":"address"},{"name":"_initialSupply","type":"uint256","internalType":"uint256"}],"stateMutability":"nonpayable"},{"type":"function","name":"ADMIN_ROLE","inputs":[],"outputs":[{"name":"","type":"bytes32","internalType":"bytes32"}],"stateMutability":"view"},{"type":"function","name":"DEFAULT_ADMIN_ROLE","inputs":[],"outputs":[{"name":"","type":"bytes32","internalType":"bytes32"}],"stateMutability":"view"},{"type":"function","name":"DISTRIBUTOR_ROLE","inputs":[],"outputs":[{"name":"","type":"bytes32","internalType":"bytes32"}],"stateMutability":"view"},{"type":"function","name":"MINTER_ROLE","inputs":[],"outputs":[{"name":"","type":"bytes32","internalType":"bytes32"}],"stateMutability":"view"},{"type":"function","name":"PAUSER_ROLE","inputs":[],"outputs":[{"name":"","type":"bytes32","internalType":"bytes32"}],"stateMutability":"view"},{"type":"function","name":"allowance","inputs":[{"name":"owner","type":"address","internalType":"address"},{"name":"spender","type":"address","internalType":"address"}],"outputs":[{"name":"","type":"uint256","internalType":"uint256"}],"stateMutability":"view"},{"type":"function","name":"approve","inputs":[{"name":"spender","type":"address","internalType":"address"},{"name":"value","type":"uint256","internalType":"uint256"}],"outputs":[{"name":"","type":"bool","internalType":"bool"}],"stateMutability":"nonpayable"},{"type":"function","name":"balanceOf","inputs":[{"name":"account","type":"address","internalType":"address"}],"outputs":[{"name":"","type":"uint256","internalType":"uint256"}],"stateMutability":"view"},{"type":"function","name":"burn","inputs":[{"name":"value","type":"uint256","internalType":"uint256"}],"outputs":[],"stateMutability":"nonpayable"},{"type":"function","name":"burnFrom","inputs":[{"name":"account","type":"address","internalType":"address"},{"name":"value","type":"uint256","internalType":"uint256"}],"outputs":[],"stateMutability":"nonpayable"},{"type":"function","name":"canReceiveReward","inputs":[{"name":"player","type":"address","internalType":"address"}],"outputs":[{"name":"canReceive","type":"bool","internalType":"bool"},{"name":"reason","type":"string","internalType":"string"}],"stateMutability":"view"},{"type":"function","name":"currentDistributor","inputs":[],"outputs":[{"name":"","type":"address","internalType":"address"}],"stateMutability":"view"},{"type":"function","name":"decimals","inputs":[],"outputs":[{"name":"","type":"uint8","internalType":"uint8"}],"stateMutability":"view"},{"type":"function","name":"emergencyWithdraw","inputs":[{"name":"token","type":"address","internalType":"address"},{"name":"amount","type":"uint256","internalType":"uint256"}],"outputs":[],"stateMutability":"nonpayable"},{"type":"function","name":"getDailyRewardStatus","inputs":[{"name":"player","type":"address","internalType":"address"}],"outputs":[{"name":"dailyRewardsUsed","type":"uint256","internalType":"uint256"},{"name":"resetTime","type":"uint256","internalType":"uint256"}],"stateMutability":"view"},{"type":"function","name":"getRewardParams","inputs":[],"outputs":[{"name":"","type":"tuple","internalType":"struct SHIPToken.RewardParams","components":[{"name":"participationReward","type":"uint256","internalType":"uint256"},{"name":"victoryBonus","type":"uint256","internalType":"uint256"},{"name":"rewardCooldown","type":"uint256","internalType":"uint256"},{"name":"maxRewardsPerDay","type":"uint256","internalType":"uint256"}]}],"stateMutability":"view"},{"type":"function","name":"getRoleAdmin","inputs":[{"name":"role","type":"bytes32","internalType":"bytes32"}],"outputs":[{"name":"","type":"bytes32","internalType":"bytes32"}],"stateMutability":"view"},{"type":"function","name":"grantRole","inputs":[{"name":"role","type":"bytes32","internalType":"bytes32"},{"name":"account","type":"address","internalType":"address"}],"outputs":[],"stateMutability":"nonpayable"},{"type":"function","name":"hasRole","inputs":[{"name":"role","type":"bytes32","internalType":"bytes32"},{"name":"account","type":"address","internalType":"address"}],"outputs":[{"name":"","type":"bool","internalType":"bool"}],"stateMutability":"view"},{"type":"function","name":"mint","inputs":[{"name":"to","type":"address","internalType":"address"},{"name":"amount","type":"uint256","internalType":"uint256"}],"outputs":[],"stateMutability":"nonpayable"},{"type":"function","name":"mintBatchRewards","inputs":[{"name":"rewards","type":"tuple[]","internalType":"struct SHIPToken.BatchReward[]","components":[{"name":"player","type":"address","internalType":"address"},{"name":"isWinner","type":"bool","internalType":"bool"},{"name":"gameId","type":"uint256","internalType":"uint256"}]}],"outputs":[{"name":"batchId","type":"uint256","internalType":"uint256"},{"name":"totalRewarded","type":"uint256","internalType":"uint256"},{"name":"successCount","type":"uint256","internalType":"uint256"}],"stateMutability":"nonpayable"},{"type":"function","name":"mintGameReward","inputs":[{"name":"player","type":"address","internalType":"address"},{"name":"isWinner","type":"bool","internalType":"bool"},{"name":"gameId","type":"uint256","internalType":"uint256"}],"outputs":[{"name":"success","type":"bool","internalType":"bool"}],"stateMutability":"nonpayable"},{"type":"function","name":"name","inputs":[],"outputs":[{"name":"","type":"string","internalType":"string"}],"stateMutability":"view"},{"type":"function","name":"participationReward","inputs":[],"outputs":[{"name":"","type":"uint256","internalType":"uint256"}],"stateMutability":"view"},{"type":"function","name":"pause","inputs":[],"outputs":[],"stateMutability":"nonpayable"},{"type":"function","name":"paused","inputs":[],"outputs":[{"name":"","type":"bool","internalType":"bool"}],"stateMutability":"view"},{"type":"function","name":"renounceRole","inputs":[{"name":"role","type":"bytes32","internalType":"bytes32"},{"name":"callerConfirmation","type":"address","internalType":"address"}],"outputs":[],"stateMutability":"nonpayable"},{"type":"function","name":"revokeRole","inputs":[{"name":"role","type":"bytes32","internalType":"bytes32"},{"name":"account","type":"address","internalType":"address"}],"outputs":[],"stateMutability":"nonpayable"},{"type":"function","name":"rewardParams","inputs":[],"outputs":[{"name":"participationReward","type":"uint256","internalType":"uint256"},{"name":"victoryBonus","type":"uint256","internalType":"uint256"},{"name":"rewardCooldown","type":"uint256","internalType":"uint256"},{"name":"maxRewardsPerDay","type":"uint256","internalType":"uint256"}],"stateMutability":"view"},{"type":"function","name":"setDistributor","inputs":[{"name":"newDistributor","type":"address","internalType":"address"}],"outputs":[],"stateMutability":"nonpayable"},{"type":"function","name":"supportsInterface","inputs":[{"name":"interfaceId","type":"bytes4","internalType":"bytes4"}],"outputs":[{"name":"","type":"bool","internalType":"bool"}],"stateMutability":"view"},{"type":"function","name":"symbol","inputs":[],"outputs":[{"name":"","type":"string","internalType":"string"}],"stateMutability":"view"},{"type":"function","name":"totalSupply","inputs":[],"outputs":[{"name":"","type":"uint256","internalType":"uint256"}],"stateMutability":"view"},{"type":"function","name":"transfer","inputs":[{"name":"to","type":"address","internalType":"address"},{"name":"amount","type":"uint256","internalType":"uint256"}],"outputs":[{"name":"","type":"bool","internalType":"bool"}],"stateMutability":"nonpayable"},{"type":"function","name":"transferFrom","inputs":[{"name":"from","type":"address","internalType":"address"},{"name":"to","type":"address","internalType":"address"},{"name":"amount","type":"uint256","internalType":"uint256"}],"outputs":[{"name":"","type":"bool","internalType":"bool"}],"stateMutability":"nonpayable"},{"type":"function","name":"unpause","inputs":[],"outputs":[],"stateMutability":"nonpayable"},{"type":"function","name":"updateRewardParameters","inputs":[{"name":"newParams","type":"tuple","internalType":"struct SHIPToken.RewardParams","components":[{"name":"participationReward","type":"uint256","internalType":"uint256"},{"name":"victoryBonus","type":"uint256","internalType":"uint256"},{"name":"rewardCooldown","type":"uint256","internalType":"uint256"},{"name":"maxRewardsPerDay","type":"uint256","internalType":"uint256"}]}],"outputs":[],"stateMutability":"nonpayable"},{"type":"function","name":"victoryBonus","inputs":[],"outputs":[{"name":"","type":"uint256","internalType":"uint256"}],"stateMutability":"view"},{"type":"event","name":"AbuseAttemptBlocked","inputs":[{"name":"player","type":"address","indexed":true,"internalType":"address"},{"name":"reason","type":"string","indexed":false,"internalType":"string"}],"anonymous":false},{"type":"event","name":"Approval","inputs":[{"name":"owner","type":"address","indexed":true,"internalType":"address"},{"name":"spender","type":"address","indexed":true,"internalType":"address"},{"name":"value","type":"uint256","indexed":false,"internalType":"uint256"}],"anonymous":false},{"type":"event","name":"BatchRewardMinted","inputs":[{"name":"batchId","type":"uint256","indexed":true,"internalType":"uint256"},{"name":"totalAmount","type":"uint256","indexed":false,"internalType":"uint256"},{"name":"playersRewarded","type":"uint256","indexed":false,"internalType":"uint256"}],"anonymous":false},{"type":"event","name":"DistributorUpdated","inputs":[{"name":"oldDistributor","type":"address","indexed":true,"internalType":"address"},{"name":"newDistributor","type":"address","indexed":true,"internalType":"address"}],"anonymous":false},{"type":"event","name":"Paused","inputs":[{"name":"account","type":"address","indexed":false,"internalType":"address"}],"anonymous":false},{"type":"event","name":"RewardMinted","inputs":[{"name":"player","type":"address","indexed":true,"internalType":"address"},{"name":"isWinner","type":"bool","indexed":false,"internalType":"bool"},{"name":"amount","type":"uint256","indexed":false,"internalType":"uint256"},{"name":"gameId","type":"uint256","indexed":false,"internalType":"uint256"}],"anonymous":false},{"type":"event","name":"RewardParametersUpdated","inputs":[{"name":"oldParams","type":"tuple","indexed":false,"internalType":"struct SHIPToken.RewardParams","components":[{"name":"participationReward","type":"uint256","internalType":"uint256"},{"name":"victoryBonus","type":"uint256","internalType":"uint256"},{"name":"rewardCooldown","type":"uint256","internalType":"uint256"},{"name":"maxRewardsPerDay","type":"uint256","internalType":"uint256"}]},{"name":"newParams","type":"tuple","indexed":false,"internalType":"struct SHIPToken.RewardParams","components":[{"name":"participationReward","type":"uint256","internalType":"uint256"},{"name":"victoryBonus","type":"uint256","internalType":"uint256"},{"name":"rewardCooldown","type":"uint256","internalType":"uint256"},{"name":"maxRewardsPerDay","type":"uint256","internalType":"uint256"}]}],"anonymous":false},{"type":"event","name":"RoleAdminChanged","inputs":[{"name":"role","type":"bytes32","indexed":true,"internalType":"bytes32"},{"name":"previousAdminRole","type":"bytes32","indexed":true,"internalType":"bytes32"},{"name":"newAdminRole","type":"bytes32","indexed":true,"internalType":"bytes32"}],"anonymous":false},{"type":"event","name":"RoleGranted","inputs":[{"name":"role","type":"bytes32","indexed":true,"internalType":"bytes32"},{"name":"account","type":"address","indexed":true,"internalType":"address"},{"name":"sender","type":"address","indexed":true,"internalType":"address"}],"anonymous":false},{"type":"event","name":"RoleRevoked","inputs":[{"name":"role","type":"bytes32","indexed":true,"internalType":"bytes32"},{"name":"account","type":"address","indexed":true,"internalType":"address"},{"name":"sender","type":"address","indexed":true,"internalType":"address"}],"anonymous":false},{"type":"event","name":"Transfer","inputs":[{"name":"from","type":"address","indexed":true,"internalType":"address"},{"name":"to","type":"address","indexed":true,"internalType":"address"},{"name":"value","type":"uint256","indexed":false,"internalType":"uint256"}],"anonymous":false},{"type":"event","name":"Unpaused","inputs":[{"name":"account","type":"address","indexed":false,"internalType":"address"}],"anonymous":false},{"type":"error","name":"AccessControlBadConfirmation","inputs":[]},{"type":"error","name":"AccessControlUnauthorizedAccount","inputs":[{"name":"account","type":"address","internalType":"address"},{"name":"neededRole","type":"bytes32","internalType":"bytes32"}]},{"type":"error","name":"ERC20InsufficientAllowance","inputs":[{"name":"spender","type":"address","internalType":"address"},{"name":"allowance","type":"uint256","internalType":"uint256"},{"name":"needed","type":"uint256","internalType":"uint256"}]},{"type":"error","name":"ERC20InsufficientBalance","inputs":[{"name":"sender","type":"address","internalType":"address"},{"name":"balance","type":"uint256","internalType":"uint256"},{"name":"needed","type":"uint256","internalType":"uint256"}]},{"type":"error","name":"ERC20InvalidApprover","inputs":[{"name":"approver","type":"address","internalType":"address"}]},{"type":"error","name":"ERC20InvalidReceiver","inputs":[{"name":"receiver","type":"address","internalType":"address"}]},{"type":"error","name":"ERC20InvalidSender","inputs":[{"name":"sender","type":"address","internalType":"address"}]},{"type":"error","name":"ERC20InvalidSpender","inputs":[{"name":"spender","type":"address","internalType":"address"}]},{"type":"error","name":"EnforcedPause","inputs":[]},{"type":"error","name":"ExpectedPause","inputs":[]}],"bytecode":{"object":"0x60806040523461048c57612f6d6060813803918261001c81610490565b93849283398101031261048c57610032816104b5565b6040610040602084016104b5565b9201519061004e6040610490565b92600f84526e0426174746c6573686970205348495608c1b60208501526100756040610490565b60048152630534849560e41b6020820152845190946001600160401b0382116102a05760035490600182811c92168015610482575b60208310146103855781601f849311610414575b50602090601f83116001146103ae575f926103a3575b50508160011b915f199060031b1c1916176003555b83516001600160401b0381116102a057600454600181811c91168015610399575b602082101461038557601f8111610322575b50602094601f82116001146102bf579481929394955f926102b4575b50508160011b915f199060031b1c1916176004555b610156826104c9565b506101608261053f565b5061016a826105d2565b5061017482610665565b5061017e816106f8565b50600780546001600160a01b0319166001600160a01b039290921691909117905568056bc75e2d6310000068015af1d78b58c40000678ac7230489e80000604051608081016001600160401b038111828210176102a057849160609160405283815284602082015261012c6040820152015260085560095561012c600a55600b5581610214575b604051612721908161078c8239f35b6001600160a01b031690811561028d57600254908082018092116102795760207fddf252ad1be2c89b69c2b068fc378daa952ba7f163c4a11628f55a4df523b3ef915f9360025584845283825260408420818154019055604051908152a35f80610205565b634e487b7160e01b5f52601160045260245ffd5b63ec442f0560e01b5f525f60045260245ffd5b634e487b7160e01b5f52604160045260245ffd5b015190505f80610138565b601f1982169560045f52805f20915f5b88811061030a575083600195969798106102f2575b505050811b0160045561014d565b01515f1960f88460031b161c191690555f80806102e4565b919260206001819286850151815501940192016102cf565b60045f527f8a35acfbc15ff81a39ae7d344fd709f28e8600b4aa8c65c6b64bfe7fe36bd19b601f830160051c8101916020841061037b575b601f0160051c01905b818110610370575061011c565b5f8155600101610363565b909150819061035a565b634e487b7160e01b5f52602260045260245ffd5b90607f169061010a565b015190505f806100d4565b60035f9081528281209350601f198516905b8181106103fc57509084600195949392106103e4575b505050811b016003556100e9565b01515f1960f88460031b161c191690555f80806103d6565b929360206001819287860151815501950193016103c0565b60035f529091507fc2575a0e9e593c00f959f8c92f12db2869c3395a3b0502d05e2516446f71f85b601f840160051c81019160208510610478575b90601f859493920160051c01905b81811061046a57506100be565b5f815584935060010161045d565b909150819061044f565b91607f16916100aa565b5f80fd5b6040519190601f01601f191682016001600160401b038111838210176102a057604052565b51906001600160a01b038216820361048c57565b6001600160a01b0381165f9081525f516020612f2d5f395f51905f52602052604090205460ff1661053a576001600160a01b03165f8181525f516020612f2d5f395f51905f5260205260408120805460ff191660011790553391905f516020612ead5f395f51905f528180a4600190565b505f90565b6001600160a01b0381165f9081525f516020612eed5f395f51905f52602052604090205460ff1661053a576001600160a01b03165f8181525f516020612eed5f395f51905f5260205260408120805460ff191660011790553391907f65d7a28e3265b37a6474929f336521b332c1681b933f6cb9f3376673440d862a905f516020612ead5f395f51905f529080a4600190565b6001600160a01b0381165f9081525f516020612f0d5f395f51905f52602052604090205460ff1661053a576001600160a01b03165f8181525f516020612f0d5f395f51905f5260205260408120805460ff191660011790553391907fa49807205ce4d355092ef5a8a18f56e8913cf4a201fbe287825b095693c21775905f516020612ead5f395f51905f529080a4600190565b6001600160a01b0381165f9081525f516020612ecd5f395f51905f52602052604090205460ff1661053a576001600160a01b03165f8181525f516020612ecd5f395f51905f5260205260408120805460ff191660011790553391907f9f2df0fed2c77648de5860a4cc508cd0818c85b8b8a1ab4ceeef8d981c8956a6905f516020612ead5f395f51905f529080a4600190565b6001600160a01b0381165f9081525f516020612f4d5f395f51905f52602052604090205460ff1661053a576001600160a01b03165f8181525f516020612f4d5f395f51905f5260205260408120805460ff191660011790553391907ffbd454f36a7e1a388bd6fc3ab10d434aa4578f811acbbcf33afb1c697486313c905f516020612ead5f395f51905f529080a460019056fe6080806040526004361015610012575f80fd5b5f3560e01c90816301ffc9a7146118fa5750806306fdde0314611821578063095ea7b31461171c57806318160ddd146116e15780631b5e26bc1461168357806323b872dd14611625578063248a9ca3146115d45780632bbfd5df146115835780632f2ff15d14611527578063313ce567146114ee57806335ec73d5146112ff57806336568abe146112775780633f4ba83a146111bc57806340c10f19146110ea57806342966c68146110af57806355cc0d1014610d085780635c975abb14610cc857806370a0823114610c6657806375619ab514610b2e57806375b238fc14610ad65780637634691414610a8257806379cc679014610a345780638456cb591461099f57806389afec6d1461096457806391d14854146108ef57806395ccea671461079557806395d89b4114610634578063a217fddf146105fc578063a9059cbb146105a5578063c01ffcf8146104e6578063cb411e1714610461578063cfbb35ce146103f4578063d17dced2146103b9578063d539139314610361578063d547741f146102fe578063dd62ed3e14610272578063e63ab1e91461021a5763f0bd87cc146101be575f80fd5b34610216575f7ffffffffffffffffffffffffffffffffffffffffffffffffffffffffffffffffc3601126102165760206040517ffbd454f36a7e1a388bd6fc3ab10d434aa4578f811acbbcf33afb1c697486313c8152f35b5f80fd5b34610216575f7ffffffffffffffffffffffffffffffffffffffffffffffffffffffffffffffffc3601126102165760206040517f65d7a28e3265b37a6474929f336521b332c1681b933f6cb9f3376673440d862a8152f35b346102165760407ffffffffffffffffffffffffffffffffffffffffffffffffffffffffffffffffc360112610216576102a96119f9565b73ffffffffffffffffffffffffffffffffffffffff6102c6611a1c565b91165f52600160205273ffffffffffffffffffffffffffffffffffffffff60405f2091165f52602052602060405f2054604051908152f35b346102165760407ffffffffffffffffffffffffffffffffffffffffffffffffffffffffffffffffc3601126102165761035f60043561033b611a1c565b9061035a610355825f526006602052600160405f20015490565b611dcb565b612111565b005b34610216575f7ffffffffffffffffffffffffffffffffffffffffffffffffffffffffffffffffc3601126102165760206040517f9f2df0fed2c77648de5860a4cc508cd0818c85b8b8a1ab4ceeef8d981c8956a68152f35b34610216575f7ffffffffffffffffffffffffffffffffffffffffffffffffffffffffffffffffc360112610216576020600954604051908152f35b346102165760607ffffffffffffffffffffffffffffffffffffffffffffffffffffffffffffffffc3601126102165761042b6119f9565b60243580151581036102165760209161045791610446611d43565b61044e611bff565b60443591612469565b6040519015158152f35b34610216575f7ffffffffffffffffffffffffffffffffffffffffffffffffffffffffffffffffc360112610216575f606060405161049e81611a3f565b828152826020820152826040820152015260806104b9611bbb565b6104e46040518092606080918051845260208101516020850152604081015160408501520151910152565bf35b346102165760207ffffffffffffffffffffffffffffffffffffffffffffffffffffffffffffffffc3601126102165773ffffffffffffffffffffffffffffffffffffffff6105326119f9565b16805f52600e60205260405f20546201518081018091116105785760409142821161056757505f905b82519182526020820152f35b5f52600d602052815f20549061055b565b7f4e487b71000000000000000000000000000000000000000000000000000000005f52601160045260245ffd5b346102165760407ffffffffffffffffffffffffffffffffffffffffffffffffffffffffffffffffc360112610216576105f16105df6119f9565b6105e7611bff565b6024359033612657565b602060405160018152f35b34610216575f7ffffffffffffffffffffffffffffffffffffffffffffffffffffffffffffffffc3601126102165760206040515f8152f35b34610216575f7ffffffffffffffffffffffffffffffffffffffffffffffffffffffffffffffffc360112610216576040515f6004548060011c9060018116801561078b575b60208310811461075e5782855290811561071c57506001146106be575b6106ba836106a681850382611a5b565b6040519182916020835260208301906119b6565b0390f35b91905060045f527f8a35acfbc15ff81a39ae7d344fd709f28e8600b4aa8c65c6b64bfe7fe36bd19b915f905b808210610702575090915081016020016106a6610696565b9192600181602092548385880101520191019092916106ea565b7fffffffffffffffffffffffffffffffffffffffffffffffffffffffffffffff001660208086019190915291151560051b840190910191506106a69050610696565b7f4e487b71000000000000000000000000000000000000000000000000000000005f52602260045260245ffd5b91607f1691610679565b346102165760407ffffffffffffffffffffffffffffffffffffffffffffffffffffffffffffffffc360112610216576107cc6119f9565b335f9081527f54cdd369e4e8a8515e52ca72ec816c2101831ad1f18bf44102ed171459c9b4f860205260409020546024359060ff16156108bf575f9173ffffffffffffffffffffffffffffffffffffffff168061084e575081808092818115610845575b3390f11561083a57005b6040513d5f823e3d90fd5b506108fc610830565b604460209260405194859384927fa9059cbb00000000000000000000000000000000000000000000000000000000845233600485015260248401525af1801561083a5761089757005b61035f9060203d6020116108b8575b6108b08183611a5b565b810190611be7565b503d6108a6565b7fe2517d3f000000000000000000000000000000000000000000000000000000005f52336004525f60245260445ffd5b346102165760407ffffffffffffffffffffffffffffffffffffffffffffffffffffffffffffffffc36011261021657610926611a1c565b6004355f52600660205273ffffffffffffffffffffffffffffffffffffffff60405f2091165f52602052602060ff60405f2054166040519015158152f35b34610216575f7ffffffffffffffffffffffffffffffffffffffffffffffffffffffffffffffffc360112610216576020600854604051908152f35b34610216575f7ffffffffffffffffffffffffffffffffffffffffffffffffffffffffffffffffc360112610216576109d5611cbb565b6109dd611bff565b60017fffffffffffffffffffffffffffffffffffffffffffffffffffffffffffffff0060055416176005557f62e78cea01bee320cd4e420270b5ea74000d11b0c9f74754ebdbfc544b05a2586020604051338152a1005b346102165760407ffffffffffffffffffffffffffffffffffffffffffffffffffffffffffffffffc3601126102165761035f610a6e6119f9565b60243590610a7d823383612347565b612271565b34610216575f7ffffffffffffffffffffffffffffffffffffffffffffffffffffffffffffffffc360112610216576080600854600954600a54600b5491604051938452602084015260408301526060820152f35b34610216575f7ffffffffffffffffffffffffffffffffffffffffffffffffffffffffffffffffc3601126102165760206040517fa49807205ce4d355092ef5a8a18f56e8913cf4a201fbe287825b095693c217758152f35b346102165760207ffffffffffffffffffffffffffffffffffffffffffffffffffffffffffffffffc36011261021657610b656119f9565b610b6d611c33565b73ffffffffffffffffffffffffffffffffffffffff8116908115610c0857610bb773ffffffffffffffffffffffffffffffffffffffff6007541691610bb18361200f565b50611e32565b50817fffffffffffffffffffffffff000000000000000000000000000000000000000060075416176007557f111a961d91cf441fe07e7bfddc128b30ab56974d1a76851e969e0642fdb2dd505f80a3005b60646040517f08c379a000000000000000000000000000000000000000000000000000000000815260206004820152601960248201527f534849503a20496e76616c6964206469737472696275746f72000000000000006044820152fd5b346102165760207ffffffffffffffffffffffffffffffffffffffffffffffffffffffffffffffffc3601126102165773ffffffffffffffffffffffffffffffffffffffff610cb26119f9565b165f525f602052602060405f2054604051908152f35b34610216575f7ffffffffffffffffffffffffffffffffffffffffffffffffffffffffffffffffc36011261021657602060ff600554166040519015158152f35b346102165760207ffffffffffffffffffffffffffffffffffffffffffffffffffffffffffffffffc3601126102165760043567ffffffffffffffff8111610216573660238201121561021657806004013567ffffffffffffffff81116110825760405191610d7c60208360051b0184611a5b565b818352602460606020850193028201019036821161021657602401915b81831061100b5783610da9611d43565b610db1611bff565b5f905f6064825111610fad57815115610f4f57604051602081019042825244604082015260408152610de4606082611a5b565b519020915f5b8151811015610f085760208160051b8301015173ffffffffffffffffffffffffffffffffffffffff815116602082019160408351151591015190604051927fcfbb35ce0000000000000000000000000000000000000000000000000000000084526004840152602483015260448201526020816064815f305af15f9181610ee8575b50610e7d5750506001905b01610dea565b610e8b575b50600190610e77565b9094927fffffffffffffffffffffffffffffffffffffffffffffffffffffffffffffffff81146105785760019182610ecd9201946008549151610ed457611a9c565b9490610e82565b90610ee29060095490611a9c565b90611a9c565b610f0191925060203d81116108b8576108b08183611a5b565b9088610e6c565b5050606092827ff8eea5183b0474da6fe416fde1713faa73cdfe3511daa0acf7926fc1d7ec8caf60408051848152856020820152a260405192835260208301526040820152f35b60646040517f08c379a000000000000000000000000000000000000000000000000000000000815260206004820152601160248201527f534849503a20456d7074792062617463680000000000000000000000000000006044820152fd5b60646040517f08c379a000000000000000000000000000000000000000000000000000000000815260206004820152601a60248201527f534849503a2042617463682073697a6520746f6f206c617267650000000000006044820152fd5b60608336031261021657604051906060820182811067ffffffffffffffff82111761108257604052833573ffffffffffffffffffffffffffffffffffffffff811681036102165782526020840135908115158203610216578260209283606095015260408601356040820152815201920191610d99565b7f4e487b71000000000000000000000000000000000000000000000000000000005f52604160045260245ffd5b346102165760207ffffffffffffffffffffffffffffffffffffffffffffffffffffffffffffffffc3601126102165761035f60043533612271565b346102165760407ffffffffffffffffffffffffffffffffffffffffffffffffffffffffffffffffc360112610216576111216119f9565b335f9081527f3195c024b2ddd6d9b8f6c836aa52f67fe69376c8903d009b80229b3ce4425f51602052604090205460ff161561116c5761035f90611163611bff565b602435906121db565b7fe2517d3f000000000000000000000000000000000000000000000000000000005f52336004527f9f2df0fed2c77648de5860a4cc508cd0818c85b8b8a1ab4ceeef8d981c8956a660245260445ffd5b34610216575f7ffffffffffffffffffffffffffffffffffffffffffffffffffffffffffffffffc360112610216576111f2611cbb565b60055460ff81161561124f577fffffffffffffffffffffffffffffffffffffffffffffffffffffffffffffff00166005557f5db9ee0a495bf2e6ff9c91a7834c1ba4fdd244a5e8aa4e537bd38aeae4b073aa6020604051338152a1005b7f8dfc202b000000000000000000000000000000000000000000000000000000005f5260045ffd5b346102165760407ffffffffffffffffffffffffffffffffffffffffffffffffffffffffffffffffc360112610216576112ae611a1c565b3373ffffffffffffffffffffffffffffffffffffffff8216036112d75761035f90600435612111565b7f6697b232000000000000000000000000000000000000000000000000000000005f5260045ffd5b346102165760807ffffffffffffffffffffffffffffffffffffffffffffffffffffffffffffffffc3601126102165760405161133a81611a3f565b60043581526020810160243581526040820190604435825260608301916064358352611364611c33565b83511561146a57825184511161140c577fdd2824daffd830066f0807b672922fd9c610733e088024993cd05ddb0889a3b49361010093611409926113a6611bbb565b9483516008555160095551600a5551600b556113e36040518094606080918051845260208101516020850152604081015160408501520151910152565b80516080840152602081015160a0840152604081015160c08401526060015160e0830152565ba1005b60646040517f08c379a000000000000000000000000000000000000000000000000000000000815260206004820152601960248201527f534849503a20496e76616c6964206461696c79206c696d6974000000000000006044820152fd5b60846040517f08c379a000000000000000000000000000000000000000000000000000000000815260206004820152602260248201527f534849503a20496e76616c69642070617274696369706174696f6e207265776160448201527f72640000000000000000000000000000000000000000000000000000000000006064820152fd5b34610216575f7ffffffffffffffffffffffffffffffffffffffffffffffffffffffffffffffffc36011261021657602060405160128152f35b346102165760407ffffffffffffffffffffffffffffffffffffffffffffffffffffffffffffffffc3601126102165761035f600435611564611a1c565b9061157e610355825f526006602052600160405f20015490565b611f3b565b34610216575f7ffffffffffffffffffffffffffffffffffffffffffffffffffffffffffffffffc36011261021657602073ffffffffffffffffffffffffffffffffffffffff60075416604051908152f35b346102165760207ffffffffffffffffffffffffffffffffffffffffffffffffffffffffffffffffc36011261021657602061161d6004355f526006602052600160405f20015490565b604051908152f35b346102165760607ffffffffffffffffffffffffffffffffffffffffffffffffffffffffffffffffc360112610216576105f161165f6119f9565b611667611a1c565b60443591611673611bff565b61167e833383612347565b612657565b346102165760207ffffffffffffffffffffffffffffffffffffffffffffffffffffffffffffffffc360112610216576116c26116bd6119f9565b611aa9565b906106ba604051928392151583526040602084015260408301906119b6565b34610216575f7ffffffffffffffffffffffffffffffffffffffffffffffffffffffffffffffffc360112610216576020600254604051908152f35b346102165760407ffffffffffffffffffffffffffffffffffffffffffffffffffffffffffffffffc360112610216576117536119f9565b6024359033156117f55773ffffffffffffffffffffffffffffffffffffffff169081156117c957335f52600160205260405f20825f526020528060405f20556040519081527f8c5be1e5ebec7d5bd14f71427d1e84f3dd0314c0f7b2291e5b200ac8c7c3b92560203392a3602060405160018152f35b7f94280d62000000000000000000000000000000000000000000000000000000005f525f60045260245ffd5b7fe602df05000000000000000000000000000000000000000000000000000000005f525f60045260245ffd5b34610216575f7ffffffffffffffffffffffffffffffffffffffffffffffffffffffffffffffffc360112610216576040515f6003548060011c906001811680156118f0575b60208310811461075e5782855290811561071c5750600114611892576106ba836106a681850382611a5b565b91905060035f527fc2575a0e9e593c00f959f8c92f12db2869c3395a3b0502d05e2516446f71f85b915f905b8082106118d6575090915081016020016106a6610696565b9192600181602092548385880101520191019092916118be565b91607f1691611866565b346102165760207ffffffffffffffffffffffffffffffffffffffffffffffffffffffffffffffffc36011261021657600435907fffffffff00000000000000000000000000000000000000000000000000000000821680920361021657817f7965db0b000000000000000000000000000000000000000000000000000000006020931490811561198c575b5015158152f35b7f01ffc9a70000000000000000000000000000000000000000000000000000000091501483611985565b907fffffffffffffffffffffffffffffffffffffffffffffffffffffffffffffffe0601f602080948051918291828752018686015e5f8582860101520116010190565b6004359073ffffffffffffffffffffffffffffffffffffffff8216820361021657565b6024359073ffffffffffffffffffffffffffffffffffffffff8216820361021657565b6080810190811067ffffffffffffffff82111761108257604052565b90601f7fffffffffffffffffffffffffffffffffffffffffffffffffffffffffffffffe0910116810190811067ffffffffffffffff82111761108257604052565b9190820180921161057857565b73ffffffffffffffffffffffffffffffffffffffff16805f52600c602052611ad860405f2054600a5490611a9c565b4210611b7d57805f52600e60205260405f2054620151808101809111610578574210611b695750611b0d5f5b60085490611a9c565b600b5410611b2c57600190604051611b26602082611a5b565b5f815290565b5f90604051611b3c604082611a5b565b601d81527f4461696c79206c696d697420776f756c64206265206578636565646564000000602082015290565b5f52600d602052611b0d60405f2054611b04565b505f90604051611b8e604082611a5b565b600f81527f436f6f6c646f776e206163746976650000000000000000000000000000000000602082015290565b60405190611bc882611a3f565b60085482526009546020830152600a546040830152600b546060830152565b90816020910312610216575180151581036102165790565b60ff60055416611c0b57565b7fd93c0665000000000000000000000000000000000000000000000000000000005f5260045ffd5b335f9081527f0c3bb05773fb95f6688e1e7d9c896674dccd66884026cf30a3d5e3a9bfecd811602052604090205460ff1615611c6b57565b7fe2517d3f000000000000000000000000000000000000000000000000000000005f52336004527fa49807205ce4d355092ef5a8a18f56e8913cf4a201fbe287825b095693c2177560245260445ffd5b335f9081527fe09f975e15f8f53f24cbbc282b13c40b84df485fcdb8d3997fa103dc5a4ef841602052604090205460ff1615611cf357565b7fe2517d3f000000000000000000000000000000000000000000000000000000005f52336004527f65d7a28e3265b37a6474929f336521b332c1681b933f6cb9f3376673440d862a60245260445ffd5b335f9081527fe6cc81f6a62563e0c8f6332250f41f95d2671fc486aeab4518b018ff69edf1e0602052604090205460ff1615611d7b57565b7fe2517d3f000000000000000000000000000000000000000000000000000000005f52336004527ffbd454f36a7e1a388bd6fc3ab10d434aa4578f811acbbcf33afb1c697486313c60245260445ffd5b805f52600660205260405f2073ffffffffffffffffffffffffffffffffffffffff33165f5260205260ff60405f20541615611e035750565b7fe2517d3f000000000000000000000000000000000000000000000000000000005f523360045260245260445ffd5b73ffffffffffffffffffffffffffffffffffffffff81165f9081527fe6cc81f6a62563e0c8f6332250f41f95d2671fc486aeab4518b018ff69edf1e0602052604090205460ff16611f365773ffffffffffffffffffffffffffffffffffffffff165f8181527fe6cc81f6a62563e0c8f6332250f41f95d2671fc486aeab4518b018ff69edf1e06020526040812080547fffffffffffffffffffffffffffffffffffffffffffffffffffffffffffffff001660011790553391907ffbd454f36a7e1a388bd6fc3ab10d434aa4578f811acbbcf33afb1c697486313c907f2f8788117e7eff1d82e926ec794901d17c78024a50270940304540a733656f0d9080a4600190565b505f90565b805f52600660205260405f2073ffffffffffffffffffffffffffffffffffffffff83165f5260205260ff60405f205416155f1461200957805f52600660205260405f2073ffffffffffffffffffffffffffffffffffffffff83165f5260205260405f2060017fffffffffffffffffffffffffffffffffffffffffffffffffffffffffffffff0082541617905573ffffffffffffffffffffffffffffffffffffffff339216907f2f8788117e7eff1d82e926ec794901d17c78024a50270940304540a733656f0d5f80a4600190565b50505f90565b73ffffffffffffffffffffffffffffffffffffffff81165f9081527fe6cc81f6a62563e0c8f6332250f41f95d2671fc486aeab4518b018ff69edf1e0602052604090205460ff1615611f365773ffffffffffffffffffffffffffffffffffffffff165f8181527fe6cc81f6a62563e0c8f6332250f41f95d2671fc486aeab4518b018ff69edf1e06020526040812080547fffffffffffffffffffffffffffffffffffffffffffffffffffffffffffffff001690553391907ffbd454f36a7e1a388bd6fc3ab10d434aa4578f811acbbcf33afb1c697486313c907ff6391f5c32d9c69d2a47ea670b442974b53935d1edc7fd64eb21e047a839171b9080a4600190565b805f52600660205260405f2073ffffffffffffffffffffffffffffffffffffffff83165f5260205260ff60405f2054165f1461200957805f52600660205260405f2073ffffffffffffffffffffffffffffffffffffffff83165f5260205260405f207fffffffffffffffffffffffffffffffffffffffffffffffffffffffffffffff00815416905573ffffffffffffffffffffffffffffffffffffffff339216907ff6391f5c32d9c69d2a47ea670b442974b53935d1edc7fd64eb21e047a839171b5f80a4600190565b73ffffffffffffffffffffffffffffffffffffffff16908115612245577fddf252ad1be2c89b69c2b068fc378daa952ba7f163c4a11628f55a4df523b3ef6020826122295f94600254611a9c565b60025584845283825260408420818154019055604051908152a3565b7fec442f05000000000000000000000000000000000000000000000000000000005f525f60045260245ffd5b90919073ffffffffffffffffffffffffffffffffffffffff16801561231b57805f525f60205260405f20548381106122e8576020845f94957fddf252ad1be2c89b69c2b068fc378daa952ba7f163c4a11628f55a4df523b3ef938587528684520360408620558060025403600255604051908152a3565b91507fe450d38c000000000000000000000000000000000000000000000000000000005f5260045260245260445260645ffd5b7f96c6fd1e000000000000000000000000000000000000000000000000000000005f525f60045260245ffd5b73ffffffffffffffffffffffffffffffffffffffff909291921691825f52600160205260405f2073ffffffffffffffffffffffffffffffffffffffff82165f5260205260405f2054927fffffffffffffffffffffffffffffffffffffffffffffffffffffffffffffffff84106123be575b50505050565b82841061241f5780156117f55773ffffffffffffffffffffffffffffffffffffffff8216156117c9575f52600160205273ffffffffffffffffffffffffffffffffffffffff60405f2091165f5260205260405f20910390555f8080806123b8565b5073ffffffffffffffffffffffffffffffffffffffff83917ffb8f41b2000000000000000000000000000000000000000000000000000000005f521660045260245260445260645ffd5b73ffffffffffffffffffffffffffffffffffffffff811692835f52600c60205261249a60405f2054600a5490611a9c565b42106125f857835f52600e60205260405f2054906201518082018092116105785783914210156125d7575b600854936125c3575b845f52600d6020526124e48460405f2054611a9c565b600b5410612563578361254b7fc8f99dbd92f5fcdf5d5b1dabc597e8a732fc49487d4043e90ef324e1d6e7cb6a95606095885f52600d60205261252b8260405f2054611a9c565b895f52600d60205260405f2055885f52600c6020524260405f20556121db565b604051921515835260208301526040820152a2600190565b505050507f4ea35eb4babe99b7011d48ae0f6af640ea0fecdd5c62708cce3df3f3a541f08e606060405160208152601460208201527f4461696c79206c696d69742065786365656465640000000000000000000000006040820152a25f90565b926125d19060095490611a9c565b926124ce565b845f52600d6020525f6040812055845f52600e6020524260405f20556124c5565b5050507f4ea35eb4babe99b7011d48ae0f6af640ea0fecdd5c62708cce3df3f3a541f08e606060405160208152600f60208201527f436f6f6c646f776e2061637469766500000000000000000000000000000000006040820152a25f90565b73ffffffffffffffffffffffffffffffffffffffff1690811561231b5773ffffffffffffffffffffffffffffffffffffffff1691821561224557815f525f60205260405f20548181106126ef57817fddf252ad1be2c89b69c2b068fc378daa952ba7f163c4a11628f55a4df523b3ef92602092855f525f84520360405f2055845f525f825260405f20818154019055604051908152a3565b827fe450d38c000000000000000000000000000000000000000000000000000000005f5260045260245260445260645ffd2f8788117e7eff1d82e926ec794901d17c78024a50270940304540a733656f0d3195c024b2ddd6d9b8f6c836aa52f67fe69376c8903d009b80229b3ce4425f51e09f975e15f8f53f24cbbc282b13c40b84df485fcdb8d3997fa103dc5a4ef8410c3bb05773fb95f6688e1e7d9c896674dccd66884026cf30a3d5e3a9bfecd81154cdd369e4e8a8515e52ca72ec816c2101831ad1f18bf44102ed171459c9b4f8e6cc81f6a62563e0c8f6332250f41f95d2671fc486aeab4518b018ff69edf1e0","linkReferences":{}},"methodIdentifiers":{"ADMIN_ROLE()":"75b238fc","DEFAULT_ADMIN_ROLE()":"a217fddf","DISTRIBUTOR_ROLE()":"f0bd87cc","MINTER_ROLE()":"d5391393","PAUSER_ROLE()":"e63ab1e9","allowance(address,address)":"dd62ed3e","approve(address,uint256)":"095ea7b3","balanceOf(address)":"70a08231","burn(uint256)":"42966c68","burnFrom(address,uint256)":"79cc6790","canReceiveReward(address)":"1b5e26bc","currentDistributor()":"2bbfd5df","decimals()":"313ce567","emergencyWithdraw(address,uint256)":"95ccea67","getDailyRewardStatus(address)":"c01ffcf8","getRewardParams()":"cb411e17","getRoleAdmin(bytes32)":"248a9ca3","grantRole(bytes32,address)":"2f2ff15d","hasRole(bytes32,address)":"91d14854","mint(address,uint256)":"40c10f19","mintBatchRewards((address,bool,uint256)[])":"55cc0d10","mintGameReward(address,bool,uint256)":"cfbb35ce","name()":"06fdde03","participationReward()":"89afec6d","pause()":"8456cb59","paused()":"5c975abb","renounceRole(bytes32,address)":"36568abe","revokeRole(bytes32,address)":"d547741f","rewardParams()":"76346914","setDistributor(address)":"75619ab5","supportsInterface(bytes4)":"01ffc9a7","symbol()":"95d89b41","totalSupply()":"18160ddd","transfer(address,uint256)":"a9059cbb","transferFrom(address,address,uint256)":"23b872dd","unpause()":"3f4ba83a","updateRewardParameters((uint256,uint256,uint256,uint256))":"35ec73d5","victoryBonus()":"d17dced2"},"id":46}